:020000040800F2
:10000000882400209D010008893A0008253700084F
:10001000853A0008590A0008696C000800000000D1
:100020000000000000000000000000008D420008F9
:10003000EF0B0008000000007B3F0008A142000811
:10004000B7010008B7010008B7010008B7010008B0
:10005000B7010008B7010008B7010008B7010008A0
:10006000B7010008B7010008B7010008B701000890
:10007000B7010008B7010008B7010008B701000880
:10008000B7010008B7010008B7010008B701000870
:10009000B7010008B7010008B7010008B701000860
:1000A00079430008B7010008B7010008B70100084C
:1000B000B7010008B7010008B7010008B701000840
:1000C000B7010008B7010008B7010008B701000830
:1000D000B7010008B7010008B7010008B701000820
:1000E000B7010008B7010008B7010008B701000810
:1000F000B7010008B7010008B7010008B701000800
:10010000B7010008B7010008B7010008B7010008EF
:10011000B7010008B7010008B7010008B7010008DF
:10012000F10A0008B7010008B7010008010B000838
:10013000B70100080000000000000000B70100083F
:10014000B7010008B7010008B70100088D3A0008A0
:10015000B7010008B7010008B7010008B70100089F
:10016000B7010008B7010008B7010008B70100088F
:10017000B7010008B70100080000000000000000FF
:10018000B7010008B7010008DFF80CD000F06CFBE5
:10019000004800477D7800088824002006488047F2
:1001A00006480047FEE7FEE7FEE7FEE7FEE7FEE75C
:1001B000FEE7FEE7FEE7FEE75D4300088901000871
:1001C0002DE9F05F0546002092469B46884606468C
:1001D000814640241BE0284641464746224600F01F
:1001E0003CFA53465A46C01A914110D3114618465C
:1001F000224600F023FA2D1A67EB01084F462246EB
:100200000120002100F01AFA17EB00094E41201ED0
:10021000A4F10104DFDC484631462A464346BDE8E6
:10022000F09F40EA01039B0703D009E008C9121FB1
:1002300008C0042AFAD203E011F8013B00F8013BA0
:10024000521EF9D27047D2B201E000F8012B491ECC
:10025000FBD270470022F6E710B513460A46044663
:100260001946FFF7F0FF204610BD2DE9FE4F8046EE
:1002700081EA0300C00F0C46009021F0004123F0FA
:100280000045B8EB0200A94105D240462146904600
:100290001C460B46024623F00040104347D0270D72
:1002A000C7F30A00C3F30A510290401A0190402894
:1002B0006BDAC3F3130040F4801B0098924620B120
:1002C0000023D2EB030A63EB0B0B01985946C0F1F4
:1002D0004002504600F0B2F906460D4650465946D7
:1002E000019A00F0CAF910EB08006141002487EA86
:1002F000115284EAE7731A4340D0009A62B3019A1C
:10030000012A4FEA075215DC001B61EB02014FF096
:10031000004202EA0752CDE90042001C41F580117B
:1003200032462B4600F001FA03B0BDE8F08F40469C
:100330002146F9E7001B61EB0201001C41F5801327
:1003400000185B412018A2F5001747EB030140EAB3
:10035000D570B6196D4111E06D084FEA360645EAD1
:10036000C0754FEA0752001B61EB0201001C41F50A
:10037000801149084FEA30000019514132462B469E
:1003800003B0BDE8F04F00F0C1B900980122400071
:100390000023D0EB020263EBE073009821464FEAA2
:1003A000E074B8EB000061EB0401E9E783F000437F
:1003B0005BE781F0004158E72DE9FE4F81EA030435
:1003C00004F0004421F0004100944FF0000B23F0B2
:1003D000004350EA01045ED052EA03045BD0C3F349
:1003E0000A54C1F30A552C44A4F2F3340194A0FB3F
:1003F0000254C1F3130141F48011C3F3130343F416
:10040000801301FB024400FB034E840A970A44EA6E
:10041000815447EA8357A4FB076802958D0A05FBC0
:1004200007854FEA932C04FB0C542705029D4FEAE5
:10043000065847EA1637B5EB08056EEB070C870E32
:10044000920E47EA811742EA8312A7FB0201B6EB3C
:100450000B0164EB00042B0D43EA0C335E1844EBF4
:100460001C50DA465146E7FB0201C5F313044FEA7C
:100470000B3343EA14534FEA0432019C43EA060368
:10048000A4F10C040294009CCDE900B400F04DF9F5
:1004900003B0BDE8F08F00200146F9E72DE9F04DEB
:1004A00081EA030404F0004B21F0004514464FF0AC
:1004B000000A23F0004150EA050220D054EA01026C
:1004C0001DD0C5F30A570246C5F31303C1F3130049
:1004D000C1F30A5640F4801543F48013A7EB0608D5
:1004E000101BD64608F2FD3873EB050002D308F165
:1004F000010801E092185B41B8F1000F03DA002017
:100500000146BDE8F08D00204FF480110646844678
:100510000EE0171B73EB050705D3121B63EB0503F6
:1005200006434CEA010C49084FEA300092185B413F
:1005300050EA0107EDD152EA030012D082EA04002A
:1005400083EA0501084305D0101BAB4106D2012206
:10055000002306E000224FF0004302E06FF00102AA
:1005600053101AEB06004CEB085110EB0A0041EB5C
:100570000B01BDE8F04D00F0C9B8C1F30A5210B547
:10058000C1F3130140F2FF3341F480119A4201DAC2
:10059000002010BD40F233439A42A2F2334203DC02
:1005A000524200F05AF810BD904010BD00F00042D9
:1005B00030F000400AD0C10D01F56071C0F31600A3
:1005C00042EA0151C208400711437047002001462A
:1005D0007047000030B5041E71F1000404DB4FF0D9
:1005E0000044404264EB0101141E73F1000405DB7A
:1005F0001C464FF00043524263EB0403994208BF8C
:10060000904230BD01F0004330B421F0004150EA87
:10061000010206D00A0DA2F56072C1F31301002A8F
:1006200002DC30BC00207047440F44EAC104C10022
:10063000E01830BC00EBC25000F031B8202A04DBD7
:10064000203A00FA02F1002070479140C2F12003E5
:1006500020FA03F3194390407047202A04DB203A24
:1006600021FA02F00021704721FA02F3D040C2F1D2
:1006700020029140084319467047202A06DBCB1719
:10068000203A41FA02F043EAE07306E041FA02F34D
:10069000D040C2F12002914008431946704700291A
:1006A000A8BF7047401C490008BF20F001007047F8
:1006B00010B4B0FA80FC00FA0CF050EA010404BF58
:1006C00010BC704749B1CCF1200421FA04F411FAAE
:1006D0000CF118BF012121430843A3EB0C01CB1DF2
:1006E0004FEA00614FEA102042BF002010BC704763
:1006F00000EBC35010440029A4BF10BC7047401C3D
:10070000490008BF20F0010010BC704710B5141E4E
:1007100073F1000408DA401C41F1000192185B41BA
:100720001A4301D120F0010010BD2DE9F04D924691
:100730009B4611B1B1FA81F202E0B0FA80F22032A8
:100740009046FFF77BFF04460F4640EA0A0041EA65
:100750000B0153465A46084313D0114653EA010091
:1007600019D0C8F140025046FFF777FF05460E4604
:10077000504659464246FFF761FF084305D0012025
:1007800004E020463946BDE8F08D0020054346EAE6
:10079000E0762C4337430A986305E40AA0EB08008F
:1007A0000022FD0A44EA47540A3002D500200146DF
:1007B000E9E7010510196941DDE9084500196941BA
:1007C000BDE8F04DA2E72DE9F04D00231A461B1AB3
:1007D0008A4103DB00200146BDE8F08DC1F30A52D7
:1007E000C1F3130141F480154FF0000BD10702D182
:1007F00000186D41521E0027044640F2FF11384692
:1008000001EB620A3E468046024600204FF480110A
:10081000FFF723FFC2197141BB1846EB0100B4EB8F
:10082000030C75EB000C04D3E41A65EB00051746C6
:100830000E46241908F101006D4180463428E3DD9D
:10084000F91946EB0600091BA84103D24FF0FF320D
:10085000134601E0002213461BEB070046EB0A514A
:10086000BDE8F04DFFF752BF064C074D06E0E068CB
:1008700040F0010394E8070098471034AC42F6D3E7
:10088000FFF786FCE07F00080080000870B58C1838
:1008900010F8015B15F0070301D110F8013B2A1194
:1008A00006D110F8012B03E010F8016B01F8016B81
:1008B0005B1EF9D12B0705D40023521E0DD401F87D
:1008C000013BFAE710F8013BCB1A921C03E013F846
:1008D000015B01F8015B521EF9D5A142D8D300207B
:1008E00070BD000070B505460C46642322460249DF
:1008F000024802F0ABFE70BD511E0020EC04002047
:100900002DE9F0412DED048B82B0B0EE408AF0EE7F
:10091000608AB0EE419A05460E46174600240095BF
:10092000AA222146641C4A4842542146641C42546F
:1009300001222146641C425400222146641C425478
:100940009FED440A28EE000ABDEEC00A10EE100A20
:1009500000B201909DF805202146641C3C48425499
:100960009DF804202146641C42549FED3A0A28EE6B
:10097000800ABDEEC00A10EE100A00B201909DF888
:1009800005202146641C324842549DF8042020462C
:10099000611CCCB22E490A549FED2E0A29EE000AA2
:1009A000BDEEC00A10EE100A00B201909DF80520BD
:1009B0002046611CCCB226490A549DF804202046EA
:1009C000611CCCB222490A549DF803202046611CC8
:1009D000CCB21F490A549DF802202046611CCCB2BB
:1009E0001B490A549DF801202046611CCCB21849CD
:1009F0000A549DF800202146601CC4B21448425499
:100A00002046611CCCB212490E542046611CCCB267
:100A10000F490F54201FC8704FF00008002006E057
:100A20000B49095C414401F0FF08411CC8B2A042D7
:100A3000F6DB2046611CCCB2054901F80080214656
:100A40000348FFF74FFF02B0BDEC048BBDE8F08117
:100A5000511E00200000C84200BFFEE70346042BE1
:100A600015D007DC7BB1012B0ED0022B0DD0032B50
:100A700012D10BE0202B0BD0212B0AD0222B09D036
:100A8000232B09D107E008E007E006E005E004E0D9
:100A900003E002E001E000E000BF00BF002070477B
:100AA0000020704710B500220449054804F004F9FD
:100AB0000449034804F0F9F8002010BD0416002092
:100AC0002C050020040E002070B504460D4621467A
:100AD000034804F0EAF8024804F0C2F8002070BDB0
:100AE0002C05002010B503460C460021084610BD19
:100AF00010B5024800F006F910BD00006C0300209C
:100B000010B5024800F0FEF810BD0000CC03002034
:100B10000146087810381823B0FBF3F20848805CCF
:100B2000C865032A05D908686FF30900001D8865A8
:100B300003E008686FF309008865886D704700005E
:100B4000247F0008014600208A6A8B69CBB932B144
:100B5000012A0DD0022A03D0032A10D10EE000BFD3
:100B6000CB6A03F08073B3F1807F00D1012007E0EE
:100B7000CB6AB3F1C07F00D1012001E000E000BFEB
:100B800034E08B69B3F5005F1AD132B1012A07D086
:100B9000022A03D0032A11D10AE000BF01200EE08F
:100BA000CB6A03F08073B3F1807F00D1012006E0AF
:100BB000CB6AB3F1C07F00D1012000E000BF15E097
:100BC00032B1012A05D0022A04D0032A0CD103E055
:100BD00000BF00BF012008E0CB6A03F08073B3F1CF
:100BE000807F00D1012000E000BF00BF7047704748
:100BF00070472DE9F0470C46DDE908670021002524
:100C00008C4600BF60E04FF0010808FA01F504EAE5
:100C1000050CAC4557D1D0F800804FEA410A4FF09F
:100C2000030909FA0AF928EA0908C0F80080D0F88F
:100C300000804FEA410902FA09F948EA0908C0F8B8
:100C40000080012A01D0022A27D1D0F808804FEA7B
:100C5000410A4FF0030909FA0AF928EA0908C0F81D
:100C60000880D0F808804FEA410906FA09F948EAF5
:100C70000908C0F80880D0F804904FF0010808FA7D
:100C800001F829EA0809C0F80490D0F8048003FAB2
:100C900001F948EA0908C0F80480D0F80C804FEA4E
:100CA000410A4FF0030909FA0AF928EA0908C0F8CD
:100CB0000C80D0F80C804FEA410907FA09F948EA9C
:100CC0000908C0F80C80491C10299CD3BDE8F087A6
:100CD00070B50A480468001D0568001D06683444A4
:100CE00054B108220649204602F01EFD04220449A0
:100CF0001031284602F018FD70BD0000107AFF1F69
:100D00004E000020F8B50446002000908C48006892
:100D10004FF41651B0FBF1F7A56D2E6894F85C10F6
:100D200008208840304098B12068006800F0040036
:100D300070B12068006820F004002168086094F811
:100D40005C1008208840A860606D40F0010060657C
:100D500094F85C1001208840304068B120684069F8
:100D600000F0800040B194F85C1001208840A86039
:100D7000606D40F00200606594F85C1004208840CB
:100D8000304068B12068006800F0020040B194F87B
:100D90005C1004208840A860606D40F0040060652D
:100DA00094F85C1010208840304078B320680068C8
:100DB00000F0080050B394F85C1010208840A86040
:100DC0002068006800F4802080B12068006800F48A
:100DD000002028B9206CC8B12046216C884715E056
:100DE000A06C98B12046A16C88470FE0206800688D
:100DF00000F4807028B92068006820F0080021689D
:100E00000860206C10B12046216C884794F85C1073
:100E1000202088403040002865D02068006800F01D
:100E2000100000285FD094F85C1020208840A86053
:100E300094F83500052828D12068006820F01600B5
:100E4000216808602068406920F0800021684861BE
:100E5000206C08B9A06C28B12068006820F0080058
:100E60002168086094F85C103F208840A86000BFAB
:100E7000002084F8340000BF012084F83500206D84
:100E800010B12046216D8847F8BD2068006800F445
:100E9000802080B12068006800F4002028B9606CD0
:100EA00010B12046616C88471DE0E06BD8B1204648
:100EB000E16B884717E02068006800F4807068B92B
:100EC0002068006820F010002168086000BF002042
:100ED00084F8340000BF012084F83500E06B10B1C5
:100EE0002046E16B8847606D38B3606D00F001000B
:100EF000F0B1052084F835002068006820F001007A
:100F00002168086000BF0098401C0090B84200D9DA
:100F100005E02068006800F001000028F3D100BF60
:100F200000BF002084F8340000BF012084F83500A1
:100F3000E06C10B12046E16C884700BFA4E70000D8
:100F4000880000202DE9F0410446002500F08AF9D0
:100F5000074614B90120BDE8F081606A00B100BF06
:100F600000BF002084F8340000BF022084F8350060
:100F70002068006820F00100216808600AE000F0A5
:100F800071F9C01B052805D920206065032084F86D
:100F90003500E0E72068006800F001000028EED18D
:100FA0002068056821480540D4E901010843E1684B
:100FB00008432169084361690843A1690843E1695D
:100FC0000843216A08430543606A042803D1D4E931
:100FD0000B0108430543206805602068456925F03A
:100FE0000705606A0543606A04280DD1A06A0543BD
:100FF000E06A48B12046FFF7A5FD28B140206065B2
:10100000012084F83500A6E7206845612046FFF7F7
:101010007FFD064694F85C103F208840B0600020B9
:101020006065012084F83500002094E73F8010F0CF
:1010300070B5044600F016F906462546681C10B146
:1010400004480078054400BF00F00CF9801BA8425A
:10105000FAD370BD84000020F8B502460B46002587
:10106000002400200021DCE0012606FA01F51E68BC
:1010700006EA0504AC4273D15E68012E08D05E68B2
:10108000022E05D05E68112E02D05E68122E13D19A
:1010900090684F000326BE40B0434F00DE68BE405C
:1010A00030439060506801268E40B0431E79C6F3ED
:1010B00000168E4030435060D0684F000326BE407B
:1010C000B0434F009E68BE403043D0605E68022E41
:1010D00002D05E68122E13D1CF0802F1200656F816
:1010E00027004E07F70E0F26BE40B0434F07FF0EF6
:1010F0001E69BE403043CF0802F1200646F82700A3
:1011000010684F000326BE40B0431E7906F0030668
:101110004F00BE40304310605E6806F08056B6F166
:10112000805F7DD100BF00260096404E366846F4B1
:1011300080463E4F3E603E46366806F48046009646
:1011400000BF00BF3A4E8F0856F827008E07370FB2
:101150000F26BE40B043374EB24202D1002624E0F3
:101160005EE0354EB24201D101261EE0334EB2425E
:1011700001D1022619E0324EB24201D1032614E019
:10118000304EB24201D104260FE02F4EB24201D1BF
:1011900005260AE02D4EB24201D1062605E02C4E6E
:1011A000B24201D1072600E008268F073F0FBE405C
:1011B00030431F4E8F0846F82700264E3068A04364
:1011C0005E6806F48036B6F5803F00D12043214E9C
:1011D0003060361D3068A0435E6806F40036B6F510
:1011E000003F00D120431B4E361D3060361D306855
:1011F000A0435E6806F48016B6F5801F00D1204338
:10120000144E08363060361D3068A0435E6806F420
:101210000016B6F5001F00D120430E4E0C3630608C
:10122000491C1029FFF420AFF8BD000044380240EB
:10123000083801400000024000040240000802405B
:10124000000C02400010024000140240001802404E
:10125000001C0240003C01400AB1816101E00B0426
:101260008361704701480068704700007C000020DF
:1012700070B504460CB9012070BD94F83D0028B942
:10128000002084F83C00204600F0DAF8242084F89E
:101290003D002068006820F0010021680860206897
:1012A000006840F40040216808602068006820F46D
:1012B00000402168086001F0B3F805465C496068A9
:1012C000884206D85B48854201D2012007E0002011
:1012D00005E05948854201D2012000E000200128A4
:1012E00000D1C9E75548B5FBF0F62068406820F00A
:1012F0003F003043216848604D496068884201D80A
:10130000701C07E04FF4967070434FF47A71B0FB95
:10131000F1F0401C2168096A21F03F01084321686F
:10132000086243496068884214D8681E61684900B1
:10133000B0FBF1F0401CC0F30B00042801D20420E4
:101340003DE0681E61684900B0FBF1F0401CC0F34D
:101350000B0034E0A06838B9681E616801EB4101F8
:10136000B0FBF1F0401C0AE0681E616801EBC102AD
:1013700002EB0111B0FBF1F0401C40F48040C0F3DF
:101380000B0008B901201AE0A06848B9681E61681E
:1013900001EB4101B0FBF1F0401CC0F30B000CE08D
:1013A000681E616801EBC10202EB0111B0FBF1F0B4
:1013B000401CC0F30B0040F4804040F40040216822
:1013C000C9694CF6FF72914308432168C861D4E9AA
:1013D000070108432168096821F0C001084321681A
:1013E0000860D4E9031008432168896848F2FF3295
:1013F0009143084321688860D4E9050108432168C6
:10140000C96821F0FF0108432168C86020680068AE
:1014100040F001002168086000202064202084F84A
:101420003D000020206384F83E0000BF24E7000058
:10143000A086010080841E0000093D0040420F008C
:1014400010B586B00446142101A8FEF703FF1B491E
:10145000206888422FD100BF002000901848006803
:1014600040F00200164908600846006800F00200DB
:10147000009000BF00BFC020019012200290012008
:101480000390032004900420059001A90D48FFF764
:10149000E3FD00BF0020009009481030006840F4D0
:1014A00000100749103108600846006800F4001079
:1014B000009000BF00BF06B010BD00000054004007
:1014C00030380240000402400348006803490978AC
:1014D00008440149086070477C0000208400002017
:1014E00010B50D48006840F400700B4908600846CC
:1014F000006840F4806008600846006840F480702E
:101500000860032000F0A2F8002000F007F800F0C7
:101510002BF8002010BD0000003C024070B50446CE
:101520000E4800784FF47A71B1FBF0F00C4909686D
:10153000B1FBF0F5284601F0E7FC08B1012070BDD1
:10154000102C07D200222146501E00F041F8054819
:10155000046001E00120F2E70020F0E784000020B1
:10156000880000208000002008B500BF0020009007
:101570000E48006840F480400C4908600846006846
:1015800000F48040009000BF00BF00BF002000902A
:10159000081F006840F08050091F08600846006876
:1015A00000F08050009000BF00BF08BD44380240EA
:1015B00001460846002809DB00F01F0301229A407B
:1015C00043099B0003F1E023C3F8002100BF7047EB
:1015D0002DE9F05F80460D461646002705F05EFBBC
:1015E000074639462A46334601F00700C0F1070A8C
:1015F000BAF1040F02D94FF0040A01E0C0F1070A62
:10160000D14600F1040ABAF1070F02D24FF0000AE6
:1016100001E0A0F1030AD4464FF0010A0AFA09FAE0
:10162000AAF1010A0AEA020A0AFA0CFA4FF0010BBF
:101630000BFA0CFBABF1010B0BEA030B4AEA0B04B0
:101640002146404605F032FBBDE8F09F00BF00F0A8
:101650000702064B19684FF6FF031940044B0B4372
:1016600043EA0221014B196000BF70470CED00E016
:101670000000FA057047024610684162002070477A
:10168000F0B5034615461868446A21B944EA054096
:101690001E68B06219E01868806A04EB10440022EA
:1016A00008E0186800F5827050F8220004EB10443E
:1016B000501CC2B2481E9042F3D844EA054718684D
:1016C00000F582704E1E40F826700020F0BD10B567
:1016D0000446D4F8040403F034FF10BD70B504468A
:1016E0000D46C5EBC50304F13C0101EB8301CA685B
:1016F0002946D4F8040403F068FE70BD70B50446B2
:101700000D46C5EBC50304F5FE7101EB8301CA6804
:101710002946D4F8040403F0CBFE70BD10B504468E
:10172000D4F8040403F010FF10BD70B504460E4653
:1017300006F0800080280AD106F00F00C0EBC0013F
:1017400004F13C0000EB81050120687009E006F01F
:101750000F00C0EBC00104F5FE7000EB8105002016
:10176000687006F00F00287000BF94F8BC030128D1
:1017700001D1022070BD012084F8BC0300BF2946BE
:10178000206804F0EBFB00BF002084F8BC0300BF1E
:1017900000BFEFE770B504460E4606F00F00616823
:1017A000884201D9012070BD06F0800080280AD14E
:1017B00006F00F00C0EBC00104F13C0000EB810516
:1017C0000120687009E006F00F00C0EBC00104F5CD
:1017D000FE7000EB8105002068700020A87006F004
:1017E0000F00287000BF94F8BC03012801D102202B
:1017F000D9E7012084F8BC0300BF2946206804F023
:1018000093FE00BF002084F8BC0300BF00BFCAE7FE
:10181000024601F00F00C0EBC00302F5FE7000EBC2
:101820008300806970472DE9F04705460E469046D3
:101830001F464FF0000906F0800080280AD106F00C
:101840000F00C0EBC00105F13C0000EB810401205A
:10185000607009E006F00F00C0EBC00105F5FE70F6
:1018600000EB81040020607006F00F002070C4F8C7
:101870000880E770607808B12078E080022F01D1FD
:101880000020207100BF95F8BC03012802D102207E
:10189000BDE8F087012085F8BC0300BF2146286819
:1018A00004F078FA00BF002085F8BC0300BF48466A
:1018B000EEE72DE9F04104460E461746984606F03D
:1018C0000F00C0EBC00104F5FE7000EB8105EF6076
:1018D000C5F814800020A861687006F00F00287019
:1018E0002069012800D12F6106F00F0028B9227C61
:1018F0002946206804F0F4FC04E0227C2946206894
:1019000004F0A6FE0020BDE8F08170B504460D4647
:1019100005F00F006168884201D9012070BD05F013
:10192000800080280AD105F00F00C0EBC00104F14F
:101930003C0000EB81060120707007E0C5EBC5019B
:1019400004F5FE7000EB8106002070700120B0707D
:1019500005F00F00307000BF94F8BC03012801D1DE
:101960000220DBE7012084F8BC0300BF3146206879
:1019700004F021FE05F00F0028B9217C04F57172F6
:10198000206804F099FD00BF002084F8BC0300BF6C
:1019900000BFC3E72DE9F04104460E4617469846BE
:1019A00006F00F00C0EBC00104F13C0000EB810524
:1019B000EF60C5F814800020A8610120687006F06F
:1019C0000F0028702069012800D12F6106F00F0058
:1019D00028B9227C2946206804F082FC04E0227C9D
:1019E0002946206804F034FE0020BDE8F0812DE98E
:1019F000FE4F044620680290029D206805F013F80F
:101A000000287DD1206805F04DF808B9BDE8FE8FAB
:101A1000206805F047F800F00200022805D1206890
:101A2000406900F0020021684861206805F03AF83A
:101A300000F01000102846D12068806920F01000C6
:101A4000216888610298D0F8209009F00F00C0EB5F
:101A5000C00104F5FE7000EB810BC9F3434002287E
:101A60001AD147F6F07009EA000030B3C9F30A1240
:101A7000DBF80C10029805F01AF8C9F30A11DBF82C
:101A80000C000844CBF80C00C9F30A11DBF818006D
:101A90000844CBF8180010E0C9F3434006280CD1E5
:101AA000082204F57171029805F001F8C9F30A11D2
:101AB000DBF818000844CBF818002068806940F073
:101AC000100021688861206804F0ECFF00F4002019
:101AD000B0F5002F52D10026206804F0B3FF8246F3
:101AE00049E00AF00100E8B3F1B2206804F0CDFF4C
:101AF000804608F0010058B1012105F5306000E092
:101B000021E200EB461081603146204602F01CF9CC
:101B100008F00800082809D1082105F5306000EB1D
:101B2000461081603146204602F0DCF808F01000D3
:101B3000102805D1102105F5306000EB46108160BA
:101B400008F02000202805D1202105F5306000EBA9
:101B50004610816008F40050B0F5005F08D14FF4E2
:101B6000005100E004E005F5306000EB46108160B4
:101B7000761C4FEA5A0ABAF1000FB2D1206804F07D
:101B800091FF00F48020B0F5802F7ED1206804F012
:101B90004FFF8246002683E00AF0010000287CD037
:101BA000F1B2206804F058FF804608F00100F0B35D
:101BB00006F00F0101208840019040F634004159A1
:101BC000019821EA000040F634014851012105F551
:101BD000106000EB461081602069012824D1C6EB1B
:101BE000C60104F13C0000EB8100C6EBC602C168EF
:101BF00004F13C0000EB820080680144C6EBC602A1
:101C000004F13C0000EB8200C1606EB9C6EBC60176
:101C100004F13C0000EB8100406928B904F57172C1
:101C20000121206804F048FCF1B2204600E001E008
:101C3000FFF754FD08F00800082805D1082105F534
:101C4000106000EB4610816008F01000102805D1EC
:101C5000102105F5106000EB4610816008F040008F
:101C6000402805D1402105F5106000EB4610816049
:101C700008F00200022805D1022105F5106000EBF2
:101C80004610816008F0800001E00DE005E080284A
:101C900003D13146204602F015F9761C4FEA5A0A64
:101CA000BAF1000F7FF478AF206804F0FBFE00F07B
:101CB0000040B0F1004F1CD140F60400405920F024
:101CC000010140F60400415194F8F403012807D1C2
:101CD000002084F8F40300212046FFF7CBFC02E04B
:101CE000204600F063FA2068406900F00040216857
:101CF0004861206804F0D6FE00F40060B0F5006F83
:101D00000ED140F60800405900F0010010B1204605
:101D100000F0A4FA2068406900F40060216848617E
:101D2000206804F0BFFE00F48050B0F5805F7DD1E4
:101D300040F60400405920F0010140F604004151F2
:101D40001021206804F044FE00273EE04FF67F316A
:101D500005F5106000EB4710816005F5106000EBA1
:101D60004710006820F4001105F5106000EB4710E3
:101D7000016005F5106000EB4710006840F000615D
:101D800005F5106000EB471001604FF67F3105F557
:101D9000306000EB4710816005F5306000EB4710C4
:101DA000006820F4001105F5306000EB4710016079
:101DB00005F5306000EB4710006840F0006105F564
:101DC000306000EB471001607F1C6068B842BDD8EE
:101DD00040F61C00405940F0011140F61C004151F2
:101DE000206B70B1D5F8840840F00B01C5F8841859
:101DF00040F64400405940F00B0140F64400415188
:101E00000FE040F61400405942F22B01084340F61F
:101E100014014851081F405940F00B014FF4016074
:101E20004151D5F8000820F4FE6000E00DE0C5F84F
:101E30000008217C04F57172206804F03DFB2068E5
:101E4000406900F4805021684861206804F02AFE4F
:101E500000F40050B0F5005F17D1206804F002F8DC
:101E6000206804F0CDFDE06000F0D4FA0090227B01
:101E70002068009904F066FE204600F07FF9206893
:101E8000406900F4005021684861206804F00AFEAF
:101E900000F00800082808D1204600F08EF92068DC
:101EA000406900F0080021684861206804F0FAFDEC
:101EB00000F48010B0F5801F0AD10026314620467C
:101EC00000F043F82068406900F480102168486100
:101ED000206804F0E7FD00F40010B0F5001F0AD1FF
:101EE00000263146204600F039F82068406900F4A9
:101EF000001021684861206804F0D4FD00F08040A3
:101F0000B0F1804F08D12046FFF7E1FB206840691F
:101F100000F0804021684861206804F0C3FD00F0B3
:101F2000040004280FD12068D0F8049009F00400C0
:101F3000042802D12046FFF7F1FB2068406840EA00
:101F400009002168486000BF60E570B504460D4691
:101F50002946D4F8040403F061FB70BD70B5044653
:101F60000D462946D4F8040403F05BFB70BD70B540
:101F70008AB0044614B901200AB070BD266894F8EE
:101F8000BD0328B9002084F8BC03204600F0A2F865
:101F9000032084F8BD03F06B00F4807008B90021C1
:101FA0002161206804F094F9282204F110016846A8
:101FB000FEF737F994E80F0003F068FF20B1022024
:101FC00084F8BD030120D7E70021206804F080FDDC
:101FD000002531E00121C5EBC50204F13C0000EB16
:101FE00082004170C5EBC50104F13C0000F82150AE
:101FF000C5EBC50100EB8100C5800021C5EBC50222
:1020000004F13C0000EB8200C170C5EBC50204F195
:102010003C0000EB82008160C5EBC50204F13C008E
:1020200000EB8200C160C5EBC50204F13C0000EB8F
:1020300082004161681CC5B26068A842CAD8002508
:102040002AE00021C5EBC50204F5FE7000EB82001A
:102050004170C5EBC50104F5FE7000F82150002168
:10206000C5EBC50200EB8200C170C5EBC50204F5EB
:10207000FE7000EB82008160C5EBC50204F5FE70C6
:1020800000EB8200C160C5EBC50204F5FE7000EBF9
:1020900082004161681CC5B26068A842D1D828227C
:1020A00004F110016846FEF7BCF894E80F0004F054
:1020B0001FF820B1022084F8BD0301205CE7002056
:1020C00084F83800012084F8BD03206803F0FEFF87
:1020D000002051E710B586B00446142101A8FEF790
:1020E000B9F82068B0F1A04F42D100BF00200090A5
:1020F0002048006840F001001E490860084600685A
:1021000000F00100009000BF00BF4FF4C0500190EC
:102110000220029000200390032004900A200590E2
:1021200001A91548FEF798FF00BF1248001D00687E
:1021300040F080000F49091D086000BF002000909A
:102140000C481430006840F480400A49143108609B
:102150000846006800F48040009000BF00BF00BF48
:10216000002211464320FFF733FA4320FFF720FAFD
:1021700006B010BD303802400000024070B5044681
:102180000125E06808B9002506E0E068022801D1D1
:10219000012501E0FEF72CFD2946D4F8040403F0E4
:1021A000BCFAD4F8040403F06FFA70BD10B504460D
:1021B000D4F8040403F095FA10BD10B50446D4F821
:1021C000040403F099FA10BD70B504460D4600BF33
:1021D00094F8BC03012801D1022070BD012084F8CD
:1021E000BC0300BF84F838502946206804F08BFCFB
:1021F00000BF002084F8BC0300BF00BFEDE710B5AE
:10220000044604F57171D4F8040403F09DFA10BD7E
:1022100070B50446256800BF94F8BC03012801D1BD
:10222000022070BD012084F8BC0300BFA06A012811
:1022300006D1A069012803D0A86B40F48030A863C0
:10224000206804F0A7FB206803F02EFF00BF0020E9
:1022500084F8BC0300BF00BFE3E7000010B50446EC
:10226000D4F8040403F0CDFA2068D0F8000E40F052
:1022700001002168C1F8000E206A28B103480068F7
:1022800040F006000149086010BD000010ED00E0BC
:1022900070B504460D460CB9012070BD5848006861
:1022A00000F00F00A84209D255490D700846006899
:1022B00000F00F00A84201D00120EEE7207800F0E6
:1022C000020002281DD1207800F00400042805D166
:1022D0004C48006840F4E0504A490860207800F01B
:1022E0000800082805D14748006840F46040454987
:1022F00008604448006820F0F000A16808434149A4
:102300000860207800F00100A8B36068012807D1B8
:102310003C4808380068C0F34040B8B90120BCE729
:102320006068022802D06068032807D13548083861
:102330000068C0F3406048B90120AEE73148083872
:102340000068C0F3400008B90120A6E72D480068E6
:1023500020F00300616808432A490860FEF782FF05
:10236000064609E0FEF77EFF801B41F28831884275
:1023700002D9032091E707E02248006800F00C0032
:102380006168B0EB810FEDD11D48006800F00F00CF
:10239000A84209D91A490D700846006800F00F00DC
:1023A000A84201D0012078E7207800F0040004283A
:1023B00007D11448006820F4E050E168084311494F
:1023C0000860207800F00800082808D10D4800684F
:1023D00020F46040216940EAC1000A49086000F029
:1023E0003FF808490968C1F30311074A515CC84026
:1023F0000649086006480068FFF790F800204CE79F
:10240000003C0240083802402C7F00088800002071
:10241000800000200148006870470000880000200C
:1024200000B5FFF7F7FF04490968C1F38221034AA9
:10243000515CC84000BD0000083802403C7F0008E5
:1024400000B5FFF7E7FF04490968C1F34231034AC9
:10245000515CC84000BD0000083802403C7F0008C5
:102460002DE9F047002400250026A14625480068F4
:1024700000F00C0020B1042805D008283AD105E06E
:10248000DFF8849039E0DFF8849036E01D48001FC3
:10249000006800F03F041B48001F006800F4800043
:1024A00078B11A481749091F0968C1F38811A0FBC0
:1024B00001700146224600233846FDF781FE05469D
:1024C0000EE011480F49091F0968C1F38811A0FBEC
:1024D00001700146224600233846FDF771FE05468D
:1024E0000848001F0068C0F30140401C4600B5FBCF
:1024F000F6F902E0DFF8109000BF00BF4846BDE8E3
:10250000F0870000083802400024F40000127A002E
:10251000F8B504460CB90120F8BD207800F00100A0
:10252000002874D0F948006800F00C0004280DD091
:10253000F648006800F00C00082813D1F348001F8B
:10254000006800F48000B0F5800F0BD1EF48083828
:102550000068C0F34040002859D06068002856D178
:102560000120D9E700BF6068B0F5803F08D1E74897
:102570000838006840F48030E449083908601EE0FB
:102580006068B0F5A02F0DD1E0480838006840F42D
:102590008020DE49083908600846006840F4803031
:1025A00008600CE0D9480838006820F48030D7492A
:1025B000083908600846006820F48020086000BFE1
:1025C000606890B1FEF74EFE054606E0FEF74AFE53
:1025D000401B642801D903209EE7CC4808380068D6
:1025E000C0F340400028F1D011E0FEF73BFE054665
:1025F00006E0FEF737FE401B642801D903208BE775
:10260000C24808380068C0F340400028F1D1207863
:1026100000F0020002285FD1BC48006800F00C0006
:1026200058B1BA48006800F00C0008281CD1B7481F
:10263000001F006800F48000B0B9B4480838006892
:10264000C0F3400020B1E068012801D0012063E719
:10265000AE480838006820F0F800216940EAC1005F
:10266000AA490839086037E0E06800B30120A849AA
:102670000860FEF7F7FD054606E0FEF7F3FD401B98
:10268000022801D9032047E7A04808380068C0F3B2
:1026900040000028F1D09D480838006820F0F8007C
:1026A000216940EAC10099490839086014E0002016
:1026B00097490860FEF7D6FD054606E0FEF7D2FD15
:1026C000401B022801D9032026E7904808380068FB
:1026D000C0F340000028F1D1207800F0080008285D
:1026E0002CD16069A8B101208A490860FEF7BAFDC3
:1026F000054606E0FEF7B6FD401B022801D903207F
:102700000AE782486C300068C0F340000028F1D02E
:1027100014E000207F490860FEF7A4FD054606E0AE
:10272000FEF7A0FD401B022801D90320F4E67748FC
:102730006C300068C0F340000028F1D1207800F030
:102740000400042870D1002770483830006800F079
:10275000805090B900BF002000906C48383000686D
:1027600040F080506949383108600846006800F040
:102770008050009000BF00BF01276748006800F448
:102780008070B0B96448006840F4807062490860A5
:10279000FEF768FD054606E0FEF764FD401B0228D3
:1027A00001D90320B8E65C48006800F48070002876
:1027B000F2D000BFA068012808D1544868300068F2
:1027C00040F001005149683108601DE0A06805280B
:1027D0000DD14E486830006840F004004B49683124
:1027E00008600846006840F0010008600CE04748B7
:1027F0006830006820F001004449683108600846EC
:10280000006820F00400086000BFA068A8B1FEF7CF
:1028100029FD054609E0FEF725FD401B41F2883100
:10282000884202D9032077E626E0384868300068FD
:10283000C0F340000028EED013E0FEF713FD05467C
:1028400008E0FEF70FFD401B41F28831884201D9B4
:10285000032061E62D4868300068C0F3400000287E
:10286000EFD1012F07D129483830006820F080507F
:1028700026493831086000BFA069002845D02348A8
:10288000006800F00C0008285DD0A069022845D13E
:1028900000201F490866FEF7E5FC054606E0FEF746
:1028A000E1FC401B022801D9032035E6174808380F
:1028B0000068C0F340600028F1D1D4E90701084363
:1028C000616A40EA81110122A06AC2EB500041EA2C
:1028D00000412C20005D41EA00600C49091F08609E
:1028E00001200B490866FEF7BDFC054606E0FEF731
:1028F000B9FC401B022801D903200DE60348083823
:102900000068C0F340600028F1D03FE00838024082
:1029100000004742800E47420070004000201C49E2
:102920000866FEF79FFC054606E0FEF79BFC401B91
:10293000022801D90320EFE516480068C0F3406083
:102940000028F2D122E0A069012800D1E4E5114875
:10295000001D066806F48001E069814214D106F08A
:102960003F01206A81420FD147F6C0703040616A52
:10297000884209D106F44031A06A814204D106F0B0
:102980007061E06A814201D00120C5E50020C3E505
:10299000000047420038024010B504460CB901203F
:1029A00010BD606A00B900BF0021A16294F8510017
:1029B00028B9002084F85000204600F033F80220A7
:1029C00084F851002068006820F040002168086009
:1029D000D4E901010843E1680843216908436169BA
:1029E0000843218B01F400710843E1690843216A1F
:1029F0000843A16A0843216808600421A06901EA2C
:102A00001040616A0843216848602068C06920F46A
:102A100000602168C86100206065012084F85100D1
:102A20000020BDE710B586B00446142101A8FDF7CB
:102A300011FC3C492068884271D100BF0020009001
:102A40003948006840F480503749086008460068FB
:102A500000F48050009000BF00BF00BF0020009035
:102A600031481438006840F001002F4914390860DB
:102A70000846006800F00100009000BF00BFE020A1
:102A80000190022002900020039003200490052072
:102A9000059001A92548FEF7DFFA25482549086079
:102AA0004FF0C0604860002122488160C1604FF44F
:102AB00080610161002141618161C1614FF4003198
:102AC000016200214162FEF73DFA08B1FEF790F87D
:102AD00000BF1848E064846300BF154848301649B9
:102AE00008604FF0C06048604021134881600021B9
:102AF000C1604FF480610161002141618161C16168
:102B00004FF40031016200214162FEF71BFA08B167
:102B1000FEF76EF800BF0848A064846300BF06B0EB
:102B200010BD000000300140443802400000024067
:102B3000106402406C030020CC0300202DE9F84F04
:102B40000446884616461D464FF0000A00BF94F81A
:102B50005000012802D10220BDE8F88F012084F83E
:102B6000500000BFFEF77EFB0746B14694F85100C7
:102B7000012802D04FF0020AA7E0B8F1000F00D000
:102B800016B94FF0010AA0E0032084F8510000209C
:102B90006065C4F83080A686E686A063A087E087DB
:102BA00060642064A068B0F5004F05D1206800681B
:102BB00040F48040216808602068006800F0400010
:102BC000402805D02068006840F040002168086077
:102BD000E068B0F5006F2FD1606810B1B9F1010F56
:102BE00009D1206B00882168C860206B801C20639D
:102BF000E08E401EE0861BE02068806800F0020046
:102C000002280AD1206B00882168C860206B801CD4
:102C10002063E08E401EE0860AE0FEF723FBC01B27
:102C2000A84201D3681C00B915B94FF0030A4CE063
:102C3000E08E0028E0D12EE0606810B1B9F1010FFC
:102C400009D1206B007821680873206B401C206339
:102C5000E08E401EE0861BE02068806800F00200E5
:102C600002280AD1206B007821680873206B401C71
:102C70002063E08E401EE0860AE0FEF7F3FAC01BF8
:102C8000A84201D3681C00B915B94FF0030A1CE033
:102C9000E08E0028E0D13A462946204601F06CFA41
:102CA00008B120206065A06850B900BF00200090E6
:102CB0002068C068009020688068009000BF00BF56
:102CC000606D08B14FF0010A00BF012084F8510087
:102CD00000BF002084F8500000BF50463CE72DE9BB
:102CE000FF5F0446884691461D460E9E01200290D5
:102CF0000020019000BF94F85000012803D1022069
:102D000004B0BDE8F09F012084F8500000BFFEF73A
:102D1000A9FA074694F851B060680390AA46BBF13F
:102D2000010F0BD00398B0F5827F04D1A06810B9D1
:102D3000BBF1040F02D002200190DBE0B8F1000FDC
:102D400003D0B9F1000F00D015B901200190D1E0F6
:102D500094F85100042802D0052084F85100002086
:102D60006065C4F83890E587A587C4F83080E586AB
:102D7000A586206460642068006800F04000402858
:102D800005D02068006840F0400021680860E068D5
:102D9000B0F5006F4AD1606810B1BAF1010F09D1E6
:102DA000206B00882168C860206B801C2063E08E47
:102DB000401EE08633E02068806800F002000228B0
:102DC00010D1E08E70B1029801280BD1206B0088E1
:102DD0002168C860206B801C2063E08E401EE08666
:102DE000002002902068806800F0010068B1E08F48
:102DF00058B12068C068A16B0880A06B801CA063DC
:102E0000E08F401EE08701200290FEF72BFAC01BE6
:102E1000B04204D3701C10B1032001906AE0E08E30
:102E20000028C8D1E08F0028C5D14AE0606810B101
:102E3000BAF1010F09D1206B007821680873206B6B
:102E4000401C2063E08E401EE08634E020688068ED
:102E500000F00200022810D1E08E70B10298012823
:102E60000BD1206B007821680873206B401C206315
:102E7000E08E401EE086002002902068806800F00E
:102E8000010068B1E08F58B12068C068A16B08707C
:102E9000A06B401CA063E08F401EE08701200290E1
:102EA000FEF7E0F9C01BB04201D3701C00B916B99F
:102EB000032001901EE0E08E0028C7D1E08F00289B
:102EC000C4D13A463146204601F056F920B10120DE
:102ED0000190202060650DE0A06850B900BF00207F
:102EE00000902068C068009020688068009000BF53
:102EF00000BF00BF012084F8510000BF002084F80B
:102F0000500000BF0198FBE670B504462546681ED8
:102F1000B0F1807F01D301200FE0681E4FF0E02167
:102F200048610F214FF0FF3003F0C0FE00204FF04A
:102F3000E021886107200861002070BD704770475C
:102F400030B502460B4600BF92F83C00012801D183
:102F5000022030BD012082F83C0000BF022082F830
:102F60003D00106844681068816824F07004186897
:102F7000044310684460184D1068A8421BD01068C4
:102F8000B0F1804F17D0154D1068A84213D0144DE2
:102F90001068A8420FD0134D1068A8420BD0124DF4
:102FA0001068A84207D0114D1068A84203D0104DF8
:102FB0001068A84205D121F08001586801431068CB
:102FC0008160012082F83D0000BF002082F83C00B3
:102FD00000BF00BFBDE7000000000140000400404A
:102FE00000080040000C0040000401400040014087
:102FF0000018004010B504460CB9012010BD94F82B
:103000003D0028B9002084F83C00204600F00CF870
:10301000022084F83D00211D206801F0B5F901204F
:1030200084F83D000020E9E708B5144A01689142A0
:103030000FD100BF002100911149096841F0100132
:103040000F4A11601146096801F01001009100BF9C
:1030500013E00C4A016891420FD100BF002100919A
:103060000749096841F02001054A116011460968C5
:1030700001F02001009100BF00BF08BD001000401A
:1030800040380240001400400146022081F83D0013
:103090000868806800F00702062A05D00868006802
:1030A00040F001000B681860012081F83D0000200D
:1030B00070470146022081F83D0000BF0868006AA1
:1030C00041F21112104050B90868006A9210104085
:1030D00028B90868006820F001000A68106000BF85
:1030E000012081F83D0000207047000010B5044623
:1030F0000421164800F012FA154908800846008895
:1031000040F60201884205DD0120124908700020C6
:10311000114908700F48007890B10D4800880F4998
:103120000D4A127821F812000B480078401C0A4919
:103130000870084600780A2802DB0020054908705C
:10314000002002490968486210BD0000AC0400205C
:10315000900000209700002096000020041E002010
:103160002DE9F04104460D46164600BF94F83C0098
:10317000012802D10220BDE8F081012084F83C0042
:1031800000BF022084F83D0096B9EB68D5E9001233
:10319000206801F077F92068806920F00C00216830
:1031A000886120688069A9680843216888613DE0DA
:1031B000042E13D1EB68D5E90012206801F0AAF9BA
:1031C0002068806920F440602168886120688069F7
:1031D000A96840EA01202168886127E0082E12D101
:1031E000EB68D5E90012206801F0B1F92068C069E8
:1031F00020F00C002168C8612068C069A9680843F4
:103200002168C86112E0EB68D5E90012206801F07E
:10321000BAF92068C06920F440602168C86120685C
:10322000C069A96840EA01202168C861012084F8CA
:103230003D0000BF002084F83C0000BF00BF9AE7BB
:1032400010B504460CB9012010BD94F83D0028B912
:10325000002084F83C00204600F00CF8022084F89E
:103260003D00211D206801F08FF8012084F83D0009
:103270000020E9E710B586B00446142101A8FCF748
:10328000E9FF1E492068884236D100BF0020009027
:103290001B48006840F480301949086008460068FF
:1032A00000F48030009000BF00BF00BF00200090FD
:1032B00013481438006840F00100114914390860BF
:1032C0000846006800F00100009000BF00BF082021
:1032D00001900220029000200390049003200590AA
:1032E00001A90848FDF7B8FE002211461820FEF794
:1032F0006FF91820FEF75CF906B010BD00400140E0
:10330000443802400000024070B504460D4635B115
:10331000042D0BD0082D10D00C2D1CD114E02068EA
:10332000C06840F002002168C86015E02068C068ED
:1033300040F004002168C8600EE02068C06840F0DA
:1033400008002168C86007E02068C06840F01000ED
:103350002168C86000E000BF00BF01222946206844
:1033600001F07EF82068806800F00706062E05D080
:103370002068006840F0010021680860002070BDEE
:1033800010B5044620680069C0F34000D8B1206839
:10339000C068C0F34000B0B16FF00200216808615E
:1033A000012020772068806900F0030018B12046D2
:1033B000FFF79CFE05E0204600F0ADF8204600F047
:1033C000ABF80020207720680069C0F38000D8B1F6
:1033D0002068C068C0F38000B0B16FF004002168BD
:1033E0000861022020772068806900F4407018B1DD
:1033F0002046FFF77BFE05E0204600F08CF82046D3
:1034000000F08AF80020207720680069C0F3C0002F
:10341000D8B12068C068C0F3C000B0B16FF0080038
:1034200021680861042020772068C06900F003004B
:1034300018B12046FFF75AFE05E0204600F06BF871
:10344000204600F069F80020207720680069C0F36A
:103450000010D8B12068C068C0F30010B0B16FF0A0
:10346000100021680861082020772068C06900F4F6
:10347000407018B12046FFF739FE05E0204600F005
:103480004AF8204600F048F80020207720680069BC
:1034900000F0010058B12068C06800F0010030B1B0
:1034A0006FF0010021680861204600F036F82068BE
:1034B0000069C0F3C01058B12068C068C0F3C010E4
:1034C00030B16FF08000216808612046FFF736FDBB
:1034D00020680069C0F3801058B12068C068C0F34C
:1034E000801030B16FF0400021680861204600F084
:1034F0002EF820680069C0F3401058B12068C068F9
:10350000C0F3401030B16FF0200021680861204600
:10351000FFF715FD10BD7047704770470246002049
:1035200031B1042907D0082908D00C290CD108E0B2
:103530001368586B09E01368986B06E01368D86B42
:1035400003E01368186C00E000BF00BF70477047CD
:1035500010B504460CB9012010BDA06900B100E00F
:1035600000BF94F8390028B9002084F838002046BC
:1035700000F028F8242084F839002068C06820F47E
:1035800000502168C860204601F01CF820680069DE
:1035900020F49040216808612068406920F02A00EA
:1035A000216848612068C06840F400502168C86004
:1035B0000020E063202084F8390084F83A000020DD
:1035C000CAE7000010B586B00446142101A8FCF734
:1035D00041FE1B49206888422FD100BF0020009087
:1035E0001848006840F40020164908600846006842
:1035F00000F40020009000BF00BF00BF002000903A
:1036000010481038006840F001000E491039086079
:103610000846006800F00100009000BF00BF0320D2
:1036200001900220029001200390032004900820C2
:10363000059001A90448FDF70FFD06B010BD00007C
:10364000004C004040380240000002402DE9F843A1
:1036500004460D4616461F464FF0000994F83900FF
:1036600020285DD105B116B90120BDE8F88300BF5F
:1036700094F83800012801D10220F6E7012084F8EF
:10368000380000BF0020E063212084F83900FDF7F6
:10369000E9FD8146A684E68400BF002084F8380056
:1036A00000BF2BE0E08C401EE084A068B0F5805F96
:1036B00016D14B46002280212046009701F076F972
:1036C00008B10320D1E7A846B8F80000C0F308000D
:1036D00021684860206908B9AD1C0FE06D1C0DE041
:1036E0004B46002280212046009701F05FF908B187
:1036F0000320BAE715F8010B21684860E08C002828
:10370000D0D14B46002240212046009701F04EF9CF
:1037100008B10320A9E7202084F839000020A4E79D
:103720000220A2E700BFFEE730B50B46002100BF34
:1037300016E00A24B4EB107F05D9302404EB107492
:1037400003F8114005E0412404EB10740A3C03F82F
:103750001140000100254C00641C1D554C1CE1B2B9
:103760009142E6DB30BD000008B500BF00200090AC
:103770000E48006840F480000C4908600846006864
:1037800000F48000009000BF00BF002211463820E6
:10379000FDF71EFF3820FDF70BFF002211463B20EE
:1037A000FDF716FF3B20FDF703FF08BD3038024050
:1037B00000B587B0142102A8FCF74CFD00BF002023
:1037C00001902F48006840F080002D4908600846AD
:1037D000006800F08000019000BF00BF00BF002023
:1037E00001900846006840F0040008600846006840
:1037F00000F00400019000BF00BF00BF0020019056
:103800000846006840F0010008600846006800F0C3
:103810000100019000BF00BF00BF002001900846DA
:10382000006840F0020008600846006800F00200EE
:10383000019000BF00BF012204211248FDF70CFDDA
:10384000012251021048FDF707FD042002900120DB
:10385000039004900220059002A90A48FDF7FCFBA2
:103860004FF4007002900120039000200490022089
:10387000059002A90448FDF7EFFB07B000BD00006A
:1038800030380240000802400004024010B50B48E6
:103890000B4908600B484860002109488160C160FD
:1038A0004FF480410161002141618161C161016288
:1038B000FDF7DEFC08B1FDF79BF910BD0054004098
:1038C000C0020020A086010010B50F480F49086013
:1038D0004FF48270486000210C488160C160022171
:1038E000016101214161490281612821C1610021F9
:1038F0000162416281620A21C162FFF74DF808B19D
:10390000FDF776F910BD00000030014014030020DF
:103910001CB50020009001900E480F490860A720B8
:10392000486000210C4881604FF6FF71C160802122
:103930008161FFF75FFB08B1FDF75AF900200090A5
:10394000019069460448FFF7FBFA08B1FDF750F90A
:103950001CBD0000001000402C0400201CB50020FD
:10396000009001900D480E49086029204860002110
:103970000B4881600121C16000218161FFF73AFBA2
:1039800008B1FDF735F90020009001906946044820
:10399000FFF7D6FA08B1FDF72BF91CBD0014004063
:1039A0006C0400201FB5002000900190029003904D
:1039B000114812490860A720486000210F48816023
:1039C0004FF6FF71C1600021016180218161FFF725
:1039D00037FC08B1FDF70CF902200090012001909E
:1039E000002002900390042269460448FFF7B8FBC8
:1039F00008B1FDF7FDF81FBD00400140AC040020F8
:103A000010B50B480B4908604FF4E13048600021C5
:103A100008488160C16001610C2141610021816120
:103A2000C161FFF795FD08B1FDF7E2F810BD000098
:103A3000004C0040EC04002010B500220D490E4857
:103A400001F07BFC08B1FDF7D3F80C490A4801F0FE
:103A500015FF08B1FDF7CCF80949074801F01DF939
:103A600008B1FDF7C5F8044801F0E6FF08B1FDF71D
:103A7000BFF810BD180000202C0500208001002098
:103A80006800002000BFFEE77047000010B5024844
:103A9000FDF7ADFF10BD0000FC07002010B5044687
:103AA00022460521002000F02BF810BD10B59FED37
:103AB0000F0A002000F0C8F89FED0C0A012000F06A
:103AC000C3F89FED0A0A022000F0BEF89FED070A36
:103AD000032000F0B9F800F0F7F8322000F040F8C9
:103AE0000120FFF7DBFF002010BD00000000B44202
:103AF00010B5044622460721002000F001F810BD51
:103B0000F8B504460D4616462B46224640210020B5
:103B1000009603F061FE0020F8BD2DE9FC41064649
:103B20000C461546B000801DC7B2E0B28DF8040007
:103B300020128DF80500E8B28DF8060028128DF8E5
:103B4000070001A804233A4640210090002003F01A
:103B500011FE10B10120BDE8FC810020FBE7000050
:103B600070B52DED088B044640F2F650844201DB1F
:103B7000032546E0182C01DCFF2542E000EE104A48
:103B8000B8EE400A10EE100AFCF710FD41EC1B0BDA
:103B90009FED250B53EC102BFCF70EFC41EC1A0BA0
:103BA00053EC1A2B9FED220B51EC100BFCF776FC1B
:103BB00041EC190B9FED200B53EC102BFCF7F6FB9F
:103BC00041EC180BFCF71EFD06463046FCF7EEFCF8
:103BD00041EC1A0B9FED1A0B53EC102BFCF745FB35
:103BE00041EC190BB0EE490AF0EE690A03F0E0F976
:103BF000B0EE408AF0EE608A51EC180BFCF7BDFC89
:103C0000C5B2012000F058F82B46FE2240210020CA
:103C100003F00AFE002000F04FF80120FFF768FFD4
:103C20000020BDEC088B70BD000000000000B0401B
:103C30000000000084D77741000000000000F03F42
:103C4000000000000000E03F10B52DED028B04469F
:103C5000F0EE408ADFED150A9FED150A08EEA00A86
:103C6000B0EE408A9FED130AB4EEC08AF1EE10FA6E
:103C700003DD9FED100AB0EE408AB7EE000AB4EE05
:103C8000C08AF1EE10FA03D2B7EE000AB0EE408A15
:103C9000BCEEC80A10EE100A82B24FF487712046BB
:103CA000FFF73BFFBDEC028B10BD00007AC711404F
:103CB0000000BA4300F07F4510B5044622460421B7
:103CC0000020FFF71DFF10BD10B50624234600227B
:103CD0004021104603F0A8FD08B9002010BD0120C6
:103CE000FCE700002DE9F04704460D4626683746FC
:103CF000D6F8408007F5306000EB4510D0F808900A
:103D0000104880450BD909F40040B0F5004F06D1AA
:103D10004FF4004107F5306000EB4510816020460C
:103D2000FEF76DFA0748804508D92069012805D1BA
:103D300004F571720121206802F0BEFB0020BDE88D
:103D4000F08700000A30544F2DE9F04705460C4635
:103D5000D5F800804646D8F8409006F5306000EB74
:103D6000441087682869012873D107F008000828E3
:103D70000FD1524881450BD907F40040B0F5004FF0
:103D800006D14FF4004106F5306000EB441081602D
:103D900091E007F02000202806D1202106F53060B0
:103DA00000EB4410816086E007F0280000280ED167
:103DB000424881450CD907F40040B0F5004F07D1C7
:103DC0004FF4004106F5306000EB4410816072E072
:103DD000C4EBC40105F5FE7000EB8100816806F5B7
:103DE000306000EB44100069C0F31200091AC4EB04
:103DF000C40205F5FE7000EB82008161C4EBC401D2
:103E000005F5FE7000EB8100C4EBC402C16805F546
:103E1000FE7000EB820080680144C4EBC40205F52B
:103E2000FE7000EB8200C1606CB9C4EBC40105F503
:103E3000FE7000EB8100406928B905F5717201211F
:103E4000286802F039FBE1B22846FDF757FC32E062
:103E5000FFE71B4881451BD107F40040B0F5004F38
:103E600007D14FF4004106F5306000EB441081604B
:103E700021E007F02000202805D1202106F5306040
:103E800000EB44108160E1B22846FDF737FC12E0F8
:103E90006CB9C4EBC40105F5FE7000EB810040690C
:103EA00028B905F571720021286802F005FBE1B21E
:103EB0002846FDF723FC0020BDE8F0870A30544F68
:103EC0000A31544F2DE9F84F07460E46D7F80090B7
:103ED000C846C6EBC60107F13C0000EB8104D4E9FB
:103EE0000510884202D90120BDE8F88FD4E9050108
:103EF000451AA068A84200D2A568E81C4FEA900ABB
:103F000017E0D4E90501451AA068A84200D2A568C7
:103F1000E81C4FEA900A387CABB2F2B200904846F7
:103F2000E16802F083FEE0682844E060A06928446C
:103F3000A06108F5106000EB4610806980B2504522
:103F400006D3D4E90510884202D260690028D8D18E
:103F5000D4E9050188420ED806F00F01012000FACD
:103F600001FB40F6340050F8080020EA0B0040F650
:103F7000340141F808000020B6E7704710B5002072
:103F8000094908600949C1F89C0200F011F80120B4
:103F90000549086000F00CF800200449C1F89802B7
:103FA00000F006F810BD00009882404200804042B8
:103FB00010B5012003F066FB10BD000010B5002015
:103FC0000949086001200949C1F89C02FFF7F0FF88
:103FD000012005490860FFF7EBFF00200349C1F805
:103FE0009802FFF7E5FF10BD9882404200804042F2
:103FF00070B505460024002014490860FFF7D8FF7B
:1040000000F028F8002614E0002010490860FFF7AF
:10401000CFFF01200E49C1F898026006040E0B483C
:104020007C38006808B1601CC4B2FFF7C1FF701C87
:10403000C6B2082EE8DB15B9FFF7C0FF01E0FFF7B5
:104040009DFF00F015F8204670BD000098824042A8
:10405000008040421CB50020022103460246CDE903
:10406000001080210148FCF7C4FD1CBD0004024083
:104070001CB50020022103460122CDE90010802159
:104080000148FCF7B6FD1CBD0004024070B50446B3
:1040900000200E490860FFF78BFF002512E0E009C1
:1040A0000A49091D08606006040E01200849C1F88C
:1040B0009802FFF77DFF002004490860FFF778FFB2
:1040C000681CC5B2082DEADB70BD00009882404232
:1040D0000080404210B50120084908600849C1F835
:1040E0009802FFF765FF002004490860FFF760FFB2
:1040F00000200349C1F8980210BD00009C82404294
:104100000080404210B500200649086001200649A1
:10411000C1F89802FFF74CFF012002490860FFF741
:1041200047FF10BD9C8240420080404210B50024F1
:1041300001200F490860FFF78DFF01200D49C1F8EC
:10414000980209E0601CC4B2FA2C05DDFFF7DAFF23
:10415000FFF78EFF012010BD054880380068002859
:10416000F0D10349091F0860FFF782FF0020F2E742
:104170009C824042008040427CB504460D46164673
:10418000164800681821B0FBF1F01549B0FBF1F0BA
:104190004FF47A71484301906068B0F5827F0DD189
:1041A0002B46002280212046009600F01BF898B193
:1041B000606D40F02000606503207CBD00BF019869
:1041C00000B908E00198401E019020688068C0F3A3
:1041D000C0100028F3D100BF0020EEE788000020C7
:1041E00040420F002DE9F04104460E4617461D4699
:1041F000DDF818803EE0681CD8B3FDF733F8A0EB7B
:104200000800A84200D2A5BB2068406820F0E0006A
:10421000216848606068B0F5827F0DD1A068B0F574
:10422000004F03D0A068B0F5806F05D1206800680A
:1042300020F0400021680860A06AB0F5005F0DD151
:1042400000BF2068006820F40050216808602068E2
:10425000006840F400502168086000BF012084F825
:10426000510000BF002084F8500000BF0320BDE8CB
:10427000F081FFE7206880683040B04201D1012022
:1042800000E00020B842B6D10020F0E7704730B51A
:1042900001460A461378521C147843EA042030BDC4
:1042A00010B5FDF711F910BD00B593B0302107A886
:1042B000FBF7D0FF142102A8FBF7CCFF00BF0020C2
:1042C00001902448006840F0805022490860084668
:1042D000006800F08050019000BF00BF00BF0020C8
:1042E00001901D48006840F480401B490860084662
:1042F000006800F48040019000BF00BF01200790DB
:104300000004089002200D9041050E9104210F91A8
:10431000A8211091022111910721129107A8FEF7FF
:10432000F7F808B1FCF764FC0F200290022003901C
:10433000002004904FF4A05005904FF48050069058
:10434000052102A8FDF7A4FF08B1FCF751FC13B04A
:1043500000BD000040380240007000400548006881
:1043600040F47000034908604FF000600149803953
:104370000860704788ED00E010B50248FFF700F8CC
:1043800010BD0000AC04002010B50268294B984213
:104390000ED0B0F1804F0BD0274B984208D0274B5E
:1043A000984205D0264B984202D0264B984203D122
:1043B00022F070024B681A431E4B984220D0B0F195
:1043C000804F1DD01C4B98421AD01C4B984217D0DE
:1043D0001B4B984214D01B4B984211D01A4B984259
:1043E0000ED01A4B98420BD0194B984208D0194B5B
:1043F000984205D0184B984202D0184B984203D1EE
:1044000022F44072CB681A4322F080034C6943EADD
:10441000040202608B68C3620B688362054B98429A
:1044200002D0084B984201D10B6903630123436119
:1044300010BD0000000001400004004000080040E2
:10444000000C0040000401400040014000440140D5
:104450000048014000180040001C004000200040BF
:1044600030B501F01F05012404FA05F3046A9C43EA
:104470000462046A01F01F0502FA05F52C43046288
:1044800030BD000070B50C461546066A26F00106E0
:1044900006628169026A184EB04214D0B0F1804FB2
:1044A00011D0164EB0420ED0154EB0420BD0154E64
:1044B000B04208D0144EB04205D0144EB04202D0E3
:1044C000134EB04201D1012600E000261EB121F0BA
:1044D0000301294301E041F0010121F0F001F02640
:1044E00006EA0316314322F00A0204F00A063243B8
:1044F0008161026270BD00000000014000040040C4
:1045000000080040000C0040000401400040014051
:104510000018004070B50C461546066A26F01006D5
:1045200006628169026A21F4407141EA052121F4A1
:1045300070414FF4704606EA0336314322F0A00280
:10454000A02606EA041632438161026270BD70B58E
:104550000C461546066A26F480760662C169026A30
:1045600021F00301294321F0F001F02606EA0316A9
:10457000314322F420624FF4206606EA04263243D7
:10458000C161026270BD70B50C461546066A26F41C
:1045900080560662C169026A21F4407141EA052130
:1045A00021F470414FF4704606EA0336314322F499
:1045B00020424FF4204606EA04363243C1610262CB
:1045C00070BD00002DE9F84F04462068006920F412
:1045D0004050E1680843216808612169A0680843E8
:1045E00061690843E169084300902068C06849F2A6
:1045F0000C618843009908432168C86020684069BD
:1046000020F44070A169084321684861E069B0F571
:10461000004F75D1E3492068884203D0E249206801
:1046200088426FD1FDF70CFF814602206168A0FB34
:1046300001510B461920A9FB00712A463846FBF7A9
:10464000BFFD6421B0FBF1F04FEA001A022061685F
:10465000A0FB01510B461920A9FB00712A463846E0
:10466000FBF7AEFD074602206168A0FB01510B4637
:104670001920A9FB00B12A465846FBF7A1FD642189
:10468000B0FBF1F000EBC00101EB0010A7EB8000E4
:10469000322101EBC0006421B0FBF1F000F0F80022
:1046A0000AEB400A02206168A0FB01510B46192069
:1046B000A9FB00712A463846FBF782FD0746022017
:1046C0006168A0FB01510B461920A9FB00B12A46E5
:1046D0005846FBF775FD6421B0FBF1F000EBC0011B
:1046E00001EB0010A7EB8000322101EBC000642138
:1046F000B0FBF1F000F007005044216888604FE102
:104700006EE0FFE7FDF78CFE814602206168A0FBAA
:1047100001510B461920A9FB00712A463846FBF7C8
:104720004FFD6421B0FBF1F04FEA001A02206168EE
:10473000A0FB01510B461920A9FB00712A463846FF
:10474000FBF73EFD074602206168A0FB01510B46C6
:104750001920A9FB00B12A465846FBF731FD642118
:10476000B0FBF1F000EBC00101EB0010A7EB800003
:10477000322101EBC0006421B0FBF1F000F0F80041
:104780000AEB400A02206168A0FB01510B46192088
:10479000A9FB00712A463846FBF712FD07460220A6
:1047A0006168A0FB015003461920A9FB00B12A460D
:1047B0005846FBF705FD6421B0FBF1F000EBC001AA
:1047C00001EB0010A7EB8000322101EBC000642157
:1047D000B0FBF1F000F00700504421688860DFE092
:1047E00070492068884203D06F49206888426BD1A5
:1047F000FDF726FE814604206168A0FB01510B46AF
:104800001920A9FB00712A463846FBF7D9FC8246DD
:1048100004206168A0FB01510B461920A9FB00711F
:104820002A463846FBF7CCFC6421B0FBF1F000EBE4
:10483000C00101EB0010AAEB8000322101EB001057
:104840006421B0FBF1F000F0F00A04206168A0FBE5
:10485000015003461920A9FB00712A463846FBF790
:10486000AFFC6421B0FBF1F00AEB001A0420616890
:10487000A0FB01510B461920A9FB00712A463846BE
:10488000FBF79EFC074604206168A0FB015003462D
:104890001920A9FB00B12A465846FBF791FC642178
:1048A000B0FBF1F000EBC00101EB0010A7EB8000C2
:1048B000322101EB00106421B0FBF1F000F00F0099
:1048C0005044216888606BE0FDF7AAFD8146042012
:1048D0006168A0FB015003461920A9FB00712A461C
:1048E0003846FBF76DFC824604206168A0FB01504E
:1048F00003461920A9FB00712A463846FBF760FCE5
:104900006421B0FBF1F000EBC00101EB0010AAEB59
:104910008000322101EB00106421B0FBF1F000F0C7
:10492000F00A04206168A0FB015003461920A9FB8E
:1049300000712A463846FBF743FC6421B0FBF1F0D6
:104940000AEB001A04206168A0FB017003461920DD
:10495000A9FB005001463A462846FBF731FC0746C2
:1049600004206168A0FB015003461920A9FB00B197
:104970002A465846FBF724FC6421B0FBF1F000EB1B
:10498000C00101EB0010A7EB8000322101EB001009
:104990006421B0FBF1F000F00F0050442168886002
:1049A000BDE8F88F00100140001401402DE9F041EE
:1049B00004460D4617469846069E21E0701CF8B145
:1049C0002EB1FCF74FFCA0EB0800B04218D92068CC
:1049D000C06820F4D0702168C8602068406920F069
:1049E000010021684861202084F8390084F83A00E9
:1049F00000BF002084F8380000BF0320BDE8F0812C
:104A0000206800682840A84201D1012000E0002071
:104A1000B842D3D00020F1E72DE9F04104460D461D
:104A2000D4F8C472D4F8BC0210B90320BDE8F081F8
:104A3000D4F8BC6205EB850104F1140000EB8100A1
:104A4000406808B305EB850104F1140000EB810018
:104A5000C5EBC502416807F13C0000EB82008068AD
:104A6000B1FBF0F200FB121070B9002105EB8502DA
:104A700004F1140000EB8200416000231A4629462D
:104A8000204600F0C8FE0BE00020C6F81402D6F85D
:104A90000802D4F8C0122A460B6906F5047198473B
:104AA0000020C3E770B504460E46D4F8BC52D4F8D3
:104AB000BC0208B9032070BD3146204600F054FD09
:104AC000C5F80C02D5F80402D4F8C012CA6805F57E
:104AD000037190470020EEE770B504460E460025AE
:104AE0008121204600F05EFC002121870121204623
:104AF00000F058FC0021A4F878118221204600F033
:104B000051FC0021A4F84C10A4F84E10D4F8BC02BB
:104B100050B1D4F8C01248688047D4F8BC0202F003
:104B2000D9FD0020C4F8BC02284670BD70B505460A
:104B3000D5F8BC42D5F8C00278B194F80002FF283D
:104B40000BD094F8012294F80002D5F8C0128B68BB
:104B500021469847FF2084F80002002070BD000025
:104B600001460A20088001487047000074010020B7
:104B7000014643200880014870470000FC010020E6
:104B8000014643200880014870470000B80100201A
:104B90000146432008800148704700004002002081
:104BA00070B504460E464FF4077002F00FFF05463D
:104BB00025B90020C4F8BC02022070BDC4F8BC5264
:104BC000207CA0B94FF4007302228121204600F01E
:104BD0002BFD012121874B020222204600F024FDFB
:104BE0000121A4F878111021A4F84E1012E04023FE
:104BF00002228121204600F017FD01212187402358
:104C00000222204600F010FD0121A4F878111021A5
:104C1000A4F84E10082303228221204600F004FD50
:104C20000121A4F84C10D4F8C01208688047002075
:104C3000C5F81402C5F81802207C40B94FF400737F
:104C400001212046D5F8042200F006FD06E04023AD
:104C500001212046D5F8042200F0FEFC0020ACE73C
:104C600070B50446D4F8BC52D4F8BC0208B903208D
:104C700070BD207C40B94FF4007301212046D5F867
:104C8000042200F0E9FC06E0402301212046D5F88B
:104C9000042200F0E1FC0020EAE7024609B9032003
:104CA0007047C2F8C0120020FAE70246D2F8BC32C0
:104CB000C3F804120020704710B50346D3F8BC4275
:104CC000C4F80812C4F81022002010BD2DE9FC41E0
:104CD00005460C46D5F8BC620020019000900027E4
:104CE000207800F0600040B3202862D1E088E0B175
:104CF000207800F0800060B1E2886078D5F8C012BA
:104D00008B6831469847E2883146284600F0CDF856
:104D100012E0607886F80002A07986F80102E28845
:104D20003146284600F0A0F806E06078D5F8C012B9
:104D300000228B682146984741E0607830B1012815
:104D40002ED00A2812D00B282BD11FE095F89C02F8
:104D5000032805D102226946284600F0A6F804E09F
:104D60002146284600F074F8032720E095F89C02BD
:104D7000032805D1012201A9284600F096F804E095
:104D80002146284600F064F8032710E095F89C02BD
:104D9000032804D02146284600F05AF8032706E0ED
:104DA00005E02146284600F053F8032700BF00BF66
:104DB00005E02146284600F04BF8032700BF00BF5E
:104DC0003846BDE8FC8170B504460D46D4F8B802FB
:104DD00028B1D4F8B80229464268204690470020FE
:104DE00070BD70B504460D4694F89C02012804D0AD
:104DF000022803D003280CD101E000BF00BF68885F
:104E0000012805D10020C4F8A402204600F05EF875
:104E100004E02946204600F01BF800BF00BF70BD2B
:104E200070B506460C4615462B46224600213046F4
:104E300000F012FC002070BD70B506460C46154609
:104E40002B4622460021304600F0E5FC002070BDD4
:104E500070B504460D468021204600F0B0FC0021CC
:104E6000204600F0ACFC70BD70B504460E461546F9
:104E70000320C4F894024FF4AC700551001D055195
:104E80002B4632460021204600F0E6FB002070BD94
:104E900010B504460520C4F8940200231A461946AA
:104EA000204600F0D9FB002010BD70B504460E4628
:104EB00015460220C4F89402A561E5612B463246EE
:104EC0000021204600F0A7FC002070BD10B504466C
:104ED0000420C4F8940200231A461946204600F024
:104EE0009AFC002010BD000070B505460C462DB997
:104EF0002246064906A000F0E0F904E022460349F4
:104F000003A000F0DAF9014870BD0000040C002095
:104F100043444320436F6E666967000002461220D7
:104F200008800148704700003400002070B5054635
:104F30000C462DB92246064906A000F0BEF904E051
:104F40002246034903A000F0B8F9014870BD0000F3
:104F5000040C002043444320496E7465726661630B
:104F600065000000024604200880014870470000E8
:104F70004800002070B505460C462246024903A0B1
:104F800000F09BF9004870BD040C002053544D699B
:104F900063726F656C656374726F6E696373000032
:104FA00070B505460C462DB92246064906A000F00C
:104FB00084F904E02246034903A000F07EF9014889
:104FC00070BD0000040C002053544D33322056694C
:104FD000727475616C20436F6D506F7274000000C5
:104FE00070B505460C461A202080FBF771FE01487B
:104FF00070BD00004C00002070B504460D46E888E6
:10500000012804D029462046FFF722FF1EE094F82D
:105010009C02012804D0022803D0032810D109E003
:1050200000BF0020A060012204F108012046FFF724
:105030003CFF0AE00122211D2046FFF736FF04E075
:1050400029462046FFF704FF00BF00BF70BDF8B53A
:1050500004460E46002000900027002570880012AC
:10506000082875D2DFE800F0C7040C20C7C7A5B533
:10507000207CD4F8B4120A68694690470746C1E01C
:10508000207C40B9D4F8B802816A68468847074650
:105090000220787007E0D4F8B802C16A68468847F1
:1050A000074602207870ADE0B078062878D2DFE8B5
:1050B00000F00316293C5063D4F8B402406838B1BC
:1050C000207CD4F8B4124A6869469047074605E048
:1050D00031462046FFF7BCFE681CC5B267E0D4F835
:1050E000B402806838B1207CD4F8B4128A6869466A
:1050F0009047074605E031462046FFF7A9FE681CA9
:10510000C5B254E0D4F8B402C06838B1207CD4F8F9
:10511000B412CA6869469047074605E03146204602
:10512000FFF796FE681CC5B241E0D4F8B4020069EE
:1051300038B1207CD4F8B4120A6969469047074612
:1051400005E031462046FFF783FE681CC5B22EE01D
:1051500051E0D4F8B402406938B1207CD4F8B412DC
:105160004A6969469047074605E031462046FFF701
:105170006FFE681CC5B21AE0D4F8B402806940B171
:10518000207CD4F8B4128A6969469047074606E045
:1051900006E031462046FFF75BFE681CC5B206E01C
:1051A00031462046FFF754FE681CC5B200BF00BF61
:1051B00028E0207C30B9D4F8B802416B68468847B3
:1051C000074605E031462046FFF742FE681CC5B29F
:1051D00018E0207C40B9D4F8B802016B68468847D3
:1051E00007460720787005E031462046FFF730FE7D
:1051F000681CC5B206E031462046FFF729FE681C50
:10520000C5B200BF00BF05B1F8BDF088C0B1BDF8A0
:10521000000080B1F088BDF80010884202DDBDF8C2
:10522000000000E0F0880090BDF8002039462046DC
:10523000FFF73BFE07E031462046FFF709FE02E09C
:105240002046FFF743FE00BFDEE7014600200A4686
:1052500002E0431CD8B2521C1378002BF9D17047DE
:1052600070B504460D4694F89C02012804D002282B
:1052700003D003281AD101E000BF00BFE88802284C
:1052800004D029462046FFF7E3FD14E00120E0604A
:10529000D4F8A40218B1E06840F00200E0600222F5
:1052A00004F10C012046FFF700FE04E029462046E9
:1052B000FFF7CEFD00BF00BF70BD2DE9F0410746EE
:1052C0000D46904600240FB9BDE8F0813E463046B9
:1052D000FFF7BBFF022101EB4000A8F8000098F89F
:1052E00000002855601CC4B203202855601CC4B2BD
:1052F00008E030782855761C601CC4B20020285580
:10530000601CC4B230780028F3D100BFDCE701464E
:10531000002031B1012906D0022906D0032908D185
:1053200005E0002007E0032005E0012003E0032062
:1053300001E0032000BF00BF70472DE9F0410446A3
:105340000D46164614B90320BDE8F081D4F8B80222
:1053500010B10020C4F8B802D4F8CC0210B100207B
:10536000C4F8CC020DB1C4F8B452012084F89C02F8
:105370002670204600F002F907463846E4E72DE99A
:10538000F04104460D46002600272946D4F8C40201
:10539000FCF700FA06463046FFF7B9FF07463846E5
:1053A000BDE8F0812DE9F04104460D4600260027B6
:1053B0002946D4F8C402FCF7B8F906463046FFF790
:1053C000A6FF07463846BDE8F0812DE9F0410446C6
:1053D0000F469046002F54D104F11405D4F89402DE
:1053E000022843D1D5E9020188420FD9D5E902014B
:1053F000401AA86041462046AA68FFF71DFD002319
:105400001A461946204600F027F92FE0D5E9021088
:10541000884217D1E9686868884213D36868D4F86D
:10542000981288420ED2002211462046FFF704FD52
:105430000020C4F8980200231A461946204600F0BE
:105440000BF913E0D4F8B802C06840B194F89C029C
:10545000032804D1D4F8B802C168204688478021C7
:10546000204600F0ACF92046FFF712FD94F8A002A8
:1054700001281BD1204600F014FA002084F8A00275
:1054800014E0D4F8B802406970B194F89C02032883
:105490000AD1D4F8B80239464269204690470646F8
:1054A00026B13046BDE8F0810320FBE70020F9E794
:1054B0002DE9F04105460F4690465FBB05F5AA74FD
:1054C000D5F8940203283AD1D4E90201884210D9D0
:1054D000D4E90201401AA060D4E90201884201D255
:1054E000A06800E0E068024641462846FFF798FCC5
:1054F00025E0D5F8B802006940B195F89C02032870
:1055000004D1D5F8B8020169284688472846FFF734
:10551000DDFC14E0D5F8B802806970B195F89C0202
:1055200003280AD1D5F8B80239468269284690473F
:10553000064626B13046BDE8F0810320FBE7002097
:10554000F9E701460020704710B50446012084F8B1
:105550009C02D4F8B80228B12179D4F8B802426884
:1055600020469047002010BD70B504460D462946E0
:10557000D4F8C402FCF74CF970BD000010B5044625
:10558000207800282AD11648C0F80444C4F8C40280
:105590004FF0A040124908600420486002211048E2
:1055A000C16000210161022181610021C1610162AC
:1055B0004162C1620163FCF7DAFC08B1FBF718FB3A
:1055C00080210748FCF757F8402200210448FCF7E7
:1055D00057F8802201210248FCF752F8002010BD44
:1055E000FC07002010B50246D2F8C43201F080005A
:1055F000802809D101F07F00C0EBC00403F13C001A
:1056000000EB8400807810BD01F07F00C0EBC00487
:1056100003F5FE7000EB84008078F4E7024600207A
:1056200070470246002070472DE9F04704460F46B8
:1056300015461E464FF00008C1462B4632463946F5
:10564000D4F8C402FCF7EFF880464046FFF75FFE4F
:1056500081464846BDE8F0872DE9F04704460D46EF
:1056600016461F464FF00008C1463B4632462946C3
:10567000D4F8C402FCF71DF980464046FFF747FE08
:1056800081464846BDE8F08710B50446012084F8FD
:105690009C020020C4F894026060C4F8A402D4F80C
:1056A000BC0228B12179D4F8B8024268204690475C
:1056B0004023002211462046FFF7B6FF01214FF498
:1056C000B27001534021001F01514023002280216C
:1056D0002046FFF7A9FF0121A1844021216200207B
:1056E00010BD014691F89C02042803D191F89D0257
:1056F00081F89C020020704710B5044694F89C0283
:10570000032808D1D4F8B802C06920B1D4F8B8028F
:10571000C16920468847002010BD02461174002050
:1057200070472DE9F04104460D4600260027294622
:10573000D4F8C402FCF748FD06463046FFF7E7FD03
:1057400007463846BDE8F08170B504460D46294647
:1057500004F2AA2000F077F80120C4F894024FF474
:105760002C70005BC4F8980294F8AA0200F01F00A5
:1057700020B1012809D0022815D10DE004F2AA2198
:10578000204600F05FF9064616E004F2AA21204602
:1057900000F0C0FA06460FE004F2AA21204600F00D
:1057A000A4F9064608E094F8AA0200F08001204619
:1057B00000F005F8064600BF00BF304670BD2DE979
:1057C000F04104460D46002600272946D4F8C402BD
:1057D000FCF79BF806463046FFF799FD074638462A
:1057E000BDE8F08170B5044600250026D4F8C40257
:1057F000FCF70EFD05462846FFF789FD06463046B4
:1058000070BD014691F89C0281F89D02042081F848
:105810009C02002070472DE9F04704460D461646CD
:105820001F464FF00008C1463B4632462946D4F891
:10583000C402FCF7AFF880464046FFF768FD81469A
:105840004846BDE8F08770B505460E4634462078D8
:105850002870641C20786870641C2046FEF717FDD1
:105860006880641C641C2046FEF711FDA880641C3F
:10587000641C2046FEF70BFDE88070BD38B5044679
:105880000D46002000900DB9032038BDC4F8B85271
:10589000D4F8B802816A68468847C4F8CC02002070
:1058A000F3E701460020704770B504460D46A8880E
:1058B00010BBE88800BB688880281DD2A87800F05B
:1058C0007F0694F89C02032804D129462046FFF75E
:1058D000BFFA15E084F89E6231462046FFF721FFAB
:1058E0002046FFF7F3FA1EB1022084F89C0207E07D
:1058F000012084F89C0203E029462046FFF7A8FA1D
:1059000070BD70B504460D460326D4F8B80230B118
:10591000D4F8B80229460268204690470646304629
:1059200070BD000070B504460E460025B0783B49B6
:10593000087008460078012805D931462046FFF74F
:1059400087FA032070BD94F89C02022802D0032835
:1059500056D11CE031480078A8B13048007860602A
:105960002E4801782046FFF7CCFF054625B1314689
:105970002046FFF76DFA09E02046FFF7A7FA03205B
:1059800084F89C0202E02046FFF7A0FA43E0234897
:10599000007870B9022084F89C022048007860608A
:1059A0001E4801782046FFF70EFA2046FFF78EFAD0
:1059B00025E01A490978606888421DD0217920467F
:1059C000FFF701FA15480078606014480178204616
:1059D000FFF797FF05465DB131462046FFF738FADD
:1059E00021792046FFF7EFF9022084F89C0206E0B7
:1059F0002046FFF76BFA02E02046FFF767FA0AE05D
:105A000031462046FFF724FA044801782046FFF784
:105A1000DAF9032500BF00BF284693E77001002094
:105A200070B505460C466088012804D1C5F8A4026B
:105A30002846FFF74BFA70BD10B504462046FFF725
:105A4000D1FE10BD70B505460C460026207800F04A
:105A5000600068B1202802D040283ED100E000BF9D
:105A6000D5F8B8022146826828469047064639E0B4
:105A700060780A282AD2DFE800F01A24291F290AB0
:105A80000529150F21462846FFF7E1FA23E02146B4
:105A90002846FFF709FF1EE021462846FFF742FF90
:105AA000064618E021462846FFF7A6FA13E02146ED
:105AB0002846FFF7D5FB0EE021462846FFF7B0FF4A
:105AC00009E021462846FFF78CF904E021462846E4
:105AD000FFF7BEF900BF00BF04E021462846FFF7EC
