:020000040800F2
:10000000100800209D010008B5320008E129000811
:10001000B1320008F90900088D3F00080000000017
:10002000000000000000000000000000113800087F
:10003000FB0A000800000000FF3400081338000825
:10004000B7010008B7010008B7010008B7010008B0
:10005000B7010008B7010008B7010008B7010008A0
:10006000B7010008B7010008B7010008B701000890
:10007000B7010008B7010008B7010008B701000880
:10008000B7010008B7010008B7010008B701000870
:10009000B7010008B7010008B7010008B701000860
:1000A000ED380008B7010008B7010008B7010008E3
:1000B000B7010008B7010008B7010008B701000840
:1000C000B7010008B7010008B7010008B701000830
:1000D000B7010008B7010008B7010008B701000820
:1000E000B7010008B7010008B7010008B701000810
:1000F000B7010008B7010008B7010008B701000800
:10010000B7010008B7010008B7010008B7010008EF
:10011000B7010008B7010008B7010008B7010008DF
:10012000FD090008B7010008B70100080D0A000822
:10013000B70100080000000000000000B70100083F
:10014000B7010008B7010008B7010008B7010008AF
:10015000B7010008B7010008B7010008B70100089F
:10016000B7010008B7010008B7010008B70100088F
:10017000B7010008B70100080000000000000000FF
:10018000B7010008B7010008DFF80CD000F05AFBF7
:1001900000480047B947000810080020064880477B
:1001A00006480047FEE7FEE7FEE7FEE7FEE7FEE75C
:1001B000FEE7FEE7FEE7FEE7D13800088901000808
:1001C0002DE9F05F0546002092469B46884606468C
:1001D000814640241BE0284641464746224600F01F
:1001E00011FA53465A46C01A914110D31146184687
:1001F000224600F0F8F92D1A67EB01084F46224617
:100200000120002100F0EFF917EB00094E41201EFC
:10021000A4F10104DFDC484631462A464346BDE8E6
:10022000F09FD2B201E000F8012B491EFBD27047CB
:100230000022F6E710B513460A4604461946FFF7B2
:10024000F0FF204610BD2DE9FE4F804681EA0300F5
:10025000C00F0C46009021F0004123F00045B8EBA0
:100260000200A94105D24046214690461C460B4655
:10027000024623F00040104347D0270DC7F30A0081
:10028000C3F30A510290401A019040286BDAC3F37D
:10029000130040F4801B0098924620B10023D2EB5B
:1002A000030A63EB0B0B01985946C0F1400250461C
:1002B00000F099F906460D4650465946019A00F05D
:1002C000B1F910EB08006141002487EA115284EA79
:1002D000E7731A4340D0009A62B3019A012A4FEAA9
:1002E000075215DC001B61EB02014FF0004202EAED
:1002F0000752CDE90042001C41F5801132462B46E1
:1003000000F0E8F903B0BDE8F08F40462146F9E778
:10031000001B61EB0201001C41F5801300185B41DA
:100320002018A2F5001747EB030140EAD570B61973
:100330006D4111E06D084FEA360645EAC0754FEA97
:100340000752001B61EB0201001C41F580114908B6
:100350004FEA30000019514132462B4603B0BDE848
:10036000F04F00F0A8B90098012240000023D0EB24
:10037000020263EBE073009821464FEAE074B8EBA9
:10038000000061EB0401E9E783F000435BE781F0E3
:10039000004158E72DE9FE4F81EA030404F00044D0
:1003A00021F0004100944FF0000B23F0004350EA8D
:1003B00001045ED052EA03045BD0C3F30A54C1F3D4
:1003C0000A552C44A4F2F3340194A0FB0254C1F367
:1003D000130141F48011C3F3130343F4801301FBB1
:1003E000024400FB034E840A970A44EA815447EA18
:1003F0008357A4FB076802958D0A05FB07854FEA22
:10040000932C04FB0C542705029D4FEA065847EA3B
:100410001637B5EB08056EEB070C870E920E47EA10
:10042000811742EA8312A7FB0201B6EB0B0164EBD2
:1004300000042B0D43EA0C335E1844EB1C50DA46E3
:100440005146E7FB0201C5F313044FEA0B3343EABD
:1004500014534FEA0432019C43EA0603A4F10C044E
:100460000294009CCDE900B400F034F903B0BDE87B
:10047000F08F00200146F9E72DE9F04D81EA0304F1
:1004800004F0004B21F0004514464FF0000A23F021
:10049000004150EA050220D054EA01021DD0C5F304
:1004A0000A570246C5F31303C1F31300C1F30A56FA
:1004B00040F4801543F48013A7EB0608101BD646C2
:1004C00008F2FD3873EB050002D308F1010801E0E2
:1004D00092185B41B8F1000F03DA00200146BDE835
:1004E000F08D00204FF48011064684460EE0171B65
:1004F00073EB050705D3121B63EB050306434CEAB8
:10050000010C49084FEA300092185B4150EA01079C
:10051000EDD152EA030012D082EA040083EA050119
:10052000084305D0101BAB4106D20122002306E090
:1005300000224FF0004302E06FF0010253101AEB6B
:1005400006004CEB085110EB0A0041EB0B01BDE833
:10055000F04D00F0B0B8C1F30A5210B5C1F3130169
:1005600040F2FF3341F480119A4201DA002010BDBD
:1005700040F233439A42A2F2334203DC524200F08B
:1005800041F810BD904010BD00F0004230F0004036
:100590000AD0C10D01F56071C0F3160042EA0151A5
:1005A000C20840071143704700200146704701F020
:1005B000004330B421F0004150EA010206D00A0D98
:1005C000A2F56072C1F31301002A02DC30BC0020E6
:1005D0007047440F44EAC104C100E01830BC00EB8E
:1005E000C25000F031B8202A04DB203A00FA02F1B0
:1005F000002070479140C2F1200320FA03F3194311
:1006000090407047202A04DB203A21FA02F00021B2
:10061000704721FA02F3D040C2F120029140084312
:1006200019467047202A06DBCB17203A41FA02F020
:1006300043EAE07306E041FA02F3D040C2F120023F
:1006400091400843194670470029A8BF7047401CD5
:10065000490008BF20F00100704710B4B0FA80FCD8
:1006600000FA0CF050EA010404BF10BC704749B115
:10067000CCF1200421FA04F411FA0CF118BF012185
:1006800021430843A3EB0C01CB1D4FEA00614FEA65
:10069000102042BF002010BC704700EBC350104434
:1006A0000029A4BF10BC7047401C490008BF20F0BF
:1006B000010010BC704710B5141E73F1000408DA75
:1006C000401C41F1000192185B411A4301D120F016
:1006D000010010BD2DE9F04D92469B4611B1B1FAD3
:1006E00081F202E0B0FA80F220329046FFF77BFF01
:1006F00004460F4640EA0A0041EA0B0153465A46B7
:10070000084313D0114653EA010019D0C8F1400242
:100710005046FFF777FF05460E465046594642467B
:10072000FFF761FF084305D0012004E02046394669
:10073000BDE8F08D0020054346EAE0762C433743C0
:100740000A986305E40AA0EB08000022FD0A44EAC7
:1007500047540A3002D500200146E9E70105101987
:100760006941DDE9084500196941BDE8F04DA2E79E
:100770002DE9F04D00231A461B1A8A4103DB0020A5
:100780000146BDE8F08DC1F30A52C1F3130141F4F3
:1007900080154FF0000BD10702D100186D41521E99
:1007A0000027044640F2FF11384601EB620A3E463C
:1007B0008046024600204FF48011FFF723FFC21944
:1007C0007141BB1846EB0100B4EB030C75EB000C58
:1007D00004D3E41A65EB000517460E46241908F108
:1007E00001006D4180463428E3DDF91946EB06002F
:1007F000091BA84103D24FF0FF32134601E000224B
:1008000013461BEB070046EB0A51BDE8F04DFFF71E
:1008100052BF000030B5041E71F1000404DB4FF03C
:100820000044404264EB0101141E73F1000405DB37
:100830001C464FF00043524263EB0403994208BF49
:10084000904230BD064C074D06E0E06840F00103E1
:1008500094E8070098471034AC42F6D3FFF798FCB1
:10086000004C0008204C0008F0EE400AF5EEC00AEB
:10087000F1EE10FA02D2B1EE600A7047B0EE600AF3
:10088000FBE7000070B505460C466423224602498A
:10089000024802F039F870BDD90300204C03002053
:1008A0002DE9F0412DED048B82B0B0EE408AF0EEE0
:1008B000608AB0EE419A05460E4617460024009520
:1008C000AA222146641C4A4842542146641C4254D0
:1008D00001222146641C425400222146641C4254D9
:1008E0009FED440A28EE000ABDEEC00A10EE100A81
:1008F00000B201909DF805202146641C3C484254FA
:100900009DF804202146641C42549FED3A0A28EECB
:10091000800ABDEEC00A10EE100A00B201909DF8E8
:1009200005202146641C324842549DF8042020468C
:10093000611CCCB22E490A549FED2E0A29EE000A02
:10094000BDEEC00A10EE100A00B201909DF805201D
:100950002046611CCCB226490A549DF8042020464A
:10096000611CCCB222490A549DF803202046611C28
:10097000CCB21F490A549DF802202046611CCCB21B
:100980001B490A549DF801202046611CCCB218492D
:100990000A549DF800202146601CC4B214484254F9
:1009A0002046611CCCB212490E542046611CCCB2C8
:1009B0000F490F54201FC8704FF00008002006E0B8
:1009C0000B49095C414401F0FF08411CC8B2A04238
:1009D000F6DB2046611CCCB2054901F800802146B7
:1009E0000348FFF74FFF02B0BDEC048BBDE8F08178
:1009F000D90300200000C84200BFFEE710B502483E
:100A000000F0ECF810BD0000CC01002010B5024849
:100A100000F0E4F810BD00002C0200200146087828
:100A200010381823B0FBF3F20848805CC865032A2D
:100A300005D908686FF30900001D886503E00868A0
:100A40006FF309008865886D70470000484B000807
:100A5000014600208A6A8B69CBB932B1012A0DD0D8
:100A6000022A03D0032A10D10EE000BFCB6A03F0A4
:100A70008073B3F1807F00D1012007E0CB6AB3F12E
:100A8000C07F00D1012001E000E000BF34E08B69AD
:100A9000B3F5005F1AD132B1012A07D0022A03D080
:100AA000032A11D10AE000BF01200EE0CB6A03F057
:100AB0008073B3F1807F00D1012006E0CB6AB3F1EF
:100AC000C07F00D1012000E000BF15E032B1012A53
:100AD00005D0022A04D0032A0CD103E000BF00BFD6
:100AE000012008E0CB6A03F08073B3F1807F00D16E
:100AF000012000E000BF00BF7047704770472DE93C
:100B0000F0470C46DDE90867002100258C4600BF50
:100B100060E04FF0010808FA01F504EA050CAC4565
:100B200057D1D0F800804FEA410A4FF0030909FA83
:100B30000AF928EA0908C0F80080D0F800804FEAD6
:100B4000410902FA09F948EA0908C0F80080012AB7
:100B500001D0022A27D1D0F808804FEA410A4FF08D
:100B6000030909FA0AF928EA0908C0F80880D0F848
:100B700008804FEA410906FA09F948EA0908C0F86D
:100B80000880D0F804904FF0010808FA01F829EA2B
:100B90000809C0F80490D0F8048003FA01F948EA83
:100BA0000908C0F80480D0F80C804FEA410A4FF0E1
:100BB000030909FA0AF928EA0908C0F80C80D0F8F4
:100BC0000C804FEA410907FA09F948EA0908C0F818
:100BD0000C80491C10299CD3BDE8F087F8B5044669
:100BE000002000908C4800684FF41651B0FBF1F7DC
:100BF000A56D2E6894F85C1008208840304098B1AC
:100C00002068006800F0040070B12068006820F0DF
:100C100004002168086094F85C1008208840A860EF
:100C2000606D40F00100606594F85C100120884020
:100C3000304068B12068406900F0800040B194F80D
:100C40005C1001208840A860606D40F00200606583
:100C500094F85C1004208840304068B12068006837
:100C600000F0020040B194F85C1004208840A860B5
:100C7000606D40F00400606594F85C1010208840BE
:100C8000304078B32068006800F0080050B394F852
:100C90005C1010208840A8602068006800F4802064
:100CA00080B12068006800F4002028B9206CC8B129
:100CB0002046216C884715E0A06C98B12046A16CB5
:100CC00088470FE02068006800F4807028B9206829
:100CD000006820F0080021680860206C10B12046F0
:100CE000216C884794F85C10202088403040002810
:100CF00065D02068006800F0100000285FD094F8EC
:100D00005C1020208840A86094F83500052828D180
:100D10002068006820F0160021680860206840699B
:100D200020F0800021684861206C08B9A06C28B1CF
:100D30002068006820F008002168086094F85C10C2
:100D40003F208840A86000BF002084F8340000BF26
:100D5000012084F83500206D10B12046216D8847B0
:100D6000F8BD2068006800F4802080B12068006829
:100D700000F4002028B9606C10B12046616C8847EF
:100D80001DE0E06BD8B12046E16B884717E0206892
:100D9000006800F4807068B92068006820F01000D6
:100DA0002168086000BF002084F8340000BF0120E3
:100DB00084F83500E06B10B12046E16B8847606D28
:100DC00038B3606D00F00100F0B1052084F8350003
:100DD0002068006820F001002168086000BF0098CA
:100DE000401C0090B84200D905E02068006800F07F
:100DF00001000028F3D100BF00BF002084F83400B8
:100E000000BF012084F83500E06C10B12046E16C91
:100E1000884700BFA4E70000240000202DE9F0412E
:100E20000446002500F08AF9074614B90120BDE800
:100E3000F081606A00B100BF00BF002084F8340078
:100E400000BF022084F835002068006820F001000F
:100E5000216808600AE000F071F9C01B052805D977
:100E600020206065032084F83500E0E720680068F2
:100E700000F001000028EED12068056821480540F7
:100E8000D4E901010843E168084321690843616925
:100E90000843A1690843E1690843216A08430543FF
:100EA000606A042803D1D4E90B0108430543206894
:100EB00005602068456925F00705606A0543606A9A
:100EC00004280DD1A06A0543E06A48B12046FFF727
:100ED000BFFD28B140206065012084F83500A6E7F9
:100EE000206845612046FFF799FD064694F85C109E
:100EF0003F208840B06000206065012084F8350004
:100F0000002094E73F8010F070B5044600F016F919
:100F100006462546681C10B104480078054400BF09
:100F200000F00CF9801BA842FAD370BD200000200D
:100F3000F8B502460B460025002400200021DCE025
:100F4000012606FA01F51E6806EA0504AC4273D1D3
:100F50005E68012E08D05E68022E05D05E68112EF4
:100F600002D05E68122E13D190684F000326BE4057
:100F7000B0434F00DE68BE403043906050680126A9
:100F80008E40B0431E79C6F300168E403043506049
:100F9000D0684F000326BE40B0434F009E68BE405D
:100FA0003043D0605E68022E02D05E68122E13D1EC
:100FB000CF0802F1200656F827004E07F70E0F263D
:100FC000BE40B0434F07FF0E1E69BE403043CF08FE
:100FD00002F1200646F8270010684F000326BE40A5
:100FE000B0431E7906F003064F00BE403043106048
:100FF0005E6806F08056B6F1805F7DD100BF0026A6
:101000000096404E366846F480463E4F3E603E466F
:10101000366806F48046009600BF00BF3A4E8F083F
:1010200056F827008E07370F0F26BE40B043374EC5
:10103000B24202D1002624E05EE0354EB24201D138
:1010400001261EE0334EB24201D1022619E0324E93
:10105000B24201D1032614E0304EB24201D104263F
:101060000FE02F4EB24201D105260AE02D4EB242CA
:1010700001D1062605E02C4EB24201D1072600E040
:1010800008268F073F0FBE4030431F4E8F0846F89B
:101090002700264E3068A0435E6806F48036B6F519
:1010A000803F00D12043214E3060361D3068A04380
:1010B0005E6806F40036B6F5003F00D120431B4EB3
:1010C000361D3060361D3068A0435E6806F4801619
:1010D000B6F5801F00D12043144E08363060361D0F
:1010E0003068A0435E6806F40016B6F5001F00D114
:1010F00020430E4E0C363060491C1029FFF420AFFF
:10110000F8BD0000443802400838014000000240A9
:101110000004024000080240000C0240001002409F
:101120000014024000180240001C0240003C014034
:101130000AB1816101E00B048361704701480068D6
:10114000704700001800002070B504460CB901205B
:1011500070BD94F83D0028B9002084F83C0020467A
:1011600000F0DAF8242084F83D002068006820F0C0
:101170000100216808602068006840F40040216890
:1011800008602068006820F400402168086000F0D2
:10119000A5FA05465C496068884206D85B488542E6
:1011A00001D2012007E0002005E05948854201D224
:1011B000012000E00020012800D1C9E75548B5FB17
:1011C000F0F62068406820F03F0030432168486016
:1011D0004D496068884201D8701C07E04FF4967052
:1011E00070434FF47A71B0FBF1F0401C2168096A3A
:1011F00021F03F0108432168086243496068884242
:1012000014D8681E61684900B0FBF1F0401CC0F3BF
:101210000B00042801D204203DE0681E61684900EB
:10122000B0FBF1F0401CC0F30B0034E0A06838B90B
:10123000681E616801EB4101B0FBF1F0401C0AE05F
:10124000681E616801EBC10202EB0111B0FBF1F015
:10125000401C40F48040C0F30B0008B901201AE0A4
:10126000A06848B9681E616801EB4101B0FBF1F06C
:10127000401CC0F30B000CE0681E616801EBC1026A
:1012800002EB0111B0FBF1F0401CC0F30B0040F485
:10129000804040F400402168C9694CF6FF729143D8
:1012A00008432168C861D4E9070108432168096837
:1012B00021F0C001084321680860D4E90310084305
:1012C0002168896848F2FF329143084321688860A9
:1012D000D4E9050108432168C96821F0FF010843EA
:1012E0002168C8602068006840F00100216808603B
:1012F00000202064202084F83D000020206384F832
:101300003E0000BF24E70000A086010080841E008C
:1013100000093D0040420F0010B586B0044614217C
:1013200001A8FEF785FF1B49206888422FD100BF26
:10133000002000901848006840F00200164908603C
:101340000846006800F00200009000BF00BFC02007
:1013500001901220029001200390032004900420A9
:10136000059001A90D48FFF7E3FD00BF00200090A4
:1013700009481030006840F4001007491031086037
:101380000846006800F40010009000BF00BF06B0DF
:1013900010BD0000005400403038024000040240FC
:1013A0000348006803490978084401490860704708
:1013B000180000202000002010B50D48006840F4FF
:1013C00000700B4908600846006840F480600860BF
:1013D0000846006840F480700860032000F0A2F81E
:1013E000002000F007F800F02BF8002010BD0000EE
:1013F000003C024070B504460E4800784FF47A7104
:10140000B1FBF0F00C490968B1FBF0F5284600F09B
:10141000D9FE08B1012070BD102C07D20022214650
:10142000501E00F041F80548046001E00120F2E799
:101430000020F0E720000020240000201C000020F5
:1014400008B500BF002000900E48006840F48040BE
:101450000C4908600846006800F48040009000BF16
:1014600000BF00BF00200090081F006840F08050BF
:10147000091F08600846006800F08050009000BF17
:1014800000BF08BD4438024001460846002809DB79
:1014900000F01F0301229A4043099B0003F1E0235F
:1014A000C3F8002100BF70472DE9F05F80460D466C
:1014B0001646002702F084FD074639462A46334681
:1014C00001F00700C0F1070ABAF1040F02D94FF08A
:1014D000040A01E0C0F1070AD14600F1040ABAF19A
:1014E000070F02D24FF0000A01E0A0F1030AD44630
:1014F0004FF0010A0AFA09FAAAF1010A0AEA020AF5
:101500000AFA0CFA4FF0010B0BFA0CFBABF1010BD2
:101510000BEA030B4AEA0B042146404602F058FD51
:10152000BDE8F09F00BF00F00702064B19684FF6B8
:10153000FF031940044B0B4343EA0221014B19609E
:1015400000BF70470CED00E00000FA0570B50446DE
:101550000D460CB9012070BD5848006800F00F001E
:10156000A84209D255490D700846006800F00F00E6
:10157000A84201D00120EEE7207800F00200022806
:101580001DD1207800F00400042805D14C480068E3
:1015900040F4E0504A490860207800F0080008282C
:1015A00005D14748006840F4604045490860444818
:1015B000006820F0F000A1680843414908602078E5
:1015C00000F00100A8B36068012807D13C48083842
:1015D0000068C0F34040B8B90120BCE76068022849
:1015E00002D06068032807D1354808380068C0F386
:1015F000406048B90120AEE7314808380068C0F3C0
:10160000400008B90120A6E72D48006820F003003B
:10161000616808432A490860FFF790FD064609E023
:10162000FFF78CFD801B41F28831884202D90320EC
:1016300091E707E02248006800F00C006168B0EB19
:10164000810FEDD11D48006800F00F00A84209D9B4
:101650001A490D700846006800F00F00A84201D03A
:10166000012078E7207800F00400042807D114480E
:10167000006820F4E050E1680843114908602078D0
:1016800000F00800082808D10D48006820F46040E8
:10169000216940EAC1000A49086000F03FF80849A2
:1016A0000968C1F30311074A515CC8400649086044
:1016B00006480068FFF79EFE00204CE7003C024011
:1016C00008380240504B0008240000201C00002075
:1016D00001480068704700002400002000B5FFF7B3
:1016E000F7FF04490968C1F38221034A515CC840ED
:1016F00000BD000008380240604B000800B5FFF74D
:10170000E7FF04490968C1F34231034A515CC8400C
:1017100000BD000008380240604B00082DE9F0478A
:10172000002400250026A1462548006800F00C0092
:1017300020B1042805D008283AD105E0DFF88490CC
:1017400039E0DFF8849036E01D48001F006800F0A3
:101750003F041B48001F006800F4800078B11A485D
:101760001749091F0968C1F38811A0FB01700146E0
:10177000224600233846FEF723FD05460EE01148B9
:101780000F49091F0968C1F38811A0FB01700146C8
:10179000224600233846FEF713FD05460848001F81
:1017A0000068C0F30140401C4600B5FBF6F902E0BA
:1017B000DFF8109000BF00BF4846BDE8F08700008A
:1017C000083802400024F40000127A00F8B50446FC
:1017D0000CB90120F8BD207800F00100002874D079
:1017E000F948006800F00C0004280DD0F6480068A5
:1017F00000F00C00082813D1F348001F006800F423
:101800008000B0F5800F0BD1EF4808380068C0F3B6
:101810004040002859D06068002856D10120D9E7FF
:1018200000BF6068B0F5803F08D1E748083800681D
:1018300040F48030E449083908601EE06068B0F583
:10184000A02F0DD1E0480838006840F48020DE4920
:10185000083908600846006840F4803008600CE0F1
:10186000D9480838006820F48030D7490839086022
:101870000846006820F48020086000BF606890B1CE
:10188000FFF75CFC054606E0FFF758FC401B6428A8
:1018900001D903209EE7CC4808380068C0F34040D7
:1018A0000028F1D011E0FFF749FC054606E0FFF7FC
:1018B00045FC401B642801D903208BE7C248083847
:1018C0000068C0F340400028F1D1207800F0020009
:1018D00002285FD1BC48006800F00C0058B1BA483B
:1018E000006800F00C0008281CD1B748001F0068F1
:1018F00000F48000B0B9B44808380068C0F3400074
:1019000020B1E068012801D0012063E7AE48083823
:10191000006820F0F800216940EAC100AA490839AE
:10192000086037E0E06800B30120A8490860FFF7CD
:1019300005FC054606E0FFF701FC401B022801D923
:10194000032047E7A04808380068C0F3400000289B
:10195000F1D09D480838006820F0F800216940EA7D
:10196000C10099490839086014E0002097490860CF
:10197000FFF7E4FB054606E0FFF7E0FB401B02280B
:1019800001D9032026E7904808380068C0F34000DA
:101990000028F1D1207800F0080008282CD16069D7
:1019A000A8B101208A490860FFF7C8FB054606E098
:1019B000FFF7C4FB401B022801D903200AE7824835
:1019C0006C300068C0F340000028F1D014E0002023
:1019D0007F490860FFF7B2FB054606E0FFF7AEFB64
:1019E000401B022801D90320F4E677486C300068D8
:1019F000C0F340000028F1D1207800F00400042852
:101A000070D1002770483830006800F0805090B9DD
:101A100000BF002000906C483830006840F08050D3
:101A20006949383108600846006800F0805000902D
:101A300000BF00BF01276748006800F48070B0B99C
:101A40006448006840F4807062490860FFF776FBE4
:101A5000054606E0FFF772FB401B022801D9032070
:101A6000B8E65C48006800F480700028F2D000BF3F
:101A7000A068012808D154486830006840F001008F
:101A80005149683108601DE0A06805280DD14E4815
:101A90006830006840F004004B496831086008462F
:101AA000006840F0010008600CE0474868300068BA
:101AB00020F001004449683108600846006820F0C1
:101AC0000400086000BFA068A8B1FFF737FB054617
:101AD00009E0FFF733FB401B41F28831884202D90D
:101AE000032077E626E0384868300068C0F34000FD
:101AF0000028EED013E0FFF721FB054608E0FFF7D2
:101B00001DFB401B41F28831884201D9032061E668
:101B10002D4868300068C0F340000028EFD1012F45
:101B200007D129483830006820F0805026493831E4
:101B3000086000BFA069002845D02348006800F075
:101B40000C0008285DD0A069022845D100201F495B
:101B50000866FFF7F3FA054606E0FFF7EFFA401BC9
:101B6000022801D9032035E6174808380068C0F379
:101B700040600028F1D1D4E907010843616A40EAD6
:101B800081110122A06AC2EB500041EA00412C20E1
:101B9000005D41EA00600C49091F086001200B4903
:101BA0000866FFF7CBFA054606E0FFF7C7FA401BC9
:101BB000022801D903200DE6034808380068C0F365
:101BC00040600028F1D03FE0083802400000474262
:101BD000800E47420070004000201C490866FFF755
:101BE000ADFA054606E0FFF7A9FA401B022801D925
:101BF0000320EFE516480068C0F340600028F2D1EA
:101C000022E0A069012800D1E4E51148001D066822
:101C100006F48001E069814214D106F03F01206A98
:101C200081420FD147F6C0703040616A884209D1C5
:101C300006F44031A06A814204D106F07061E06A86
:101C4000814201D00120C5E50020C3E500004742E4
:101C50000038024010B504460CB9012010BD606A7E
:101C600000B900BF0021A16294F8510028B90020FA
:101C700084F85000204600F033F8022084F8510028
:101C80002068006820F0400021680860D4E9010164
:101C90000843E16808432169084361690843218BCF
:101CA00001F400710843E1690843216A0843A16A0D
:101CB0000843216808600421A06901EA1040616AB4
:101CC0000843216848602068C06920F400602168EA
:101CD000C86100206065012084F851000020BDE744
:101CE00010B586B00446142101A8FEF7A1FA3C49BC
:101CF0002068884271D100BF0020009039480068F8
:101D000040F48050374908600846006800F480506D
:101D1000009000BF00BF00BF002000903148143881
:101D2000006840F001002F49143908600846006837
:101D300000F00100009000BF00BFE02001900220F1
:101D4000029000200390032004900520059001A933
:101D50002548FFF7EDF82548254908604FF0C06099
:101D60004860002122488160C1604FF480610161B8
:101D7000002141618161C1614FF4003101620021A4
:101D80004162FFF74BF808B1FEF7B8FE00BF1848F4
:101D9000E064846300BF15484830164908604FF07E
:101DA000C06048604021134881600021C1604FF449
:101DB00080610161002141618161C1614FF40031A5
:101DC000016200214162FFF729F808B1FEF796FE93
:101DD00000BF0848A064846300BF06B010BD0000C7
:101DE00000300140443802400000024010640240CC
:101DF000CC0100202C0200202DE9F84F0446884633
:101E000016461D464FF0000A00BF94F85000012806
:101E100002D10220BDE8F88F012084F8500000BFF5
:101E2000FFF78CF90746B14694F85100012802D01B
:101E30004FF0020AA7E0B8F1000F00D016B94FF03A
:101E4000010AA0E0032084F8510000206065C4F876
:101E50003080A686E686A063A087E0876064206461
:101E6000A068B0F5004F05D12068006840F48040BC
:101E7000216808602068006800F04000402805D014
:101E80002068006840F0400021680860E068B0F514
:101E9000006F2FD1606810B1B9F1010F09D1206B2B
:101EA00000882168C860206B801C2063E08E401E83
:101EB000E0861BE02068806800F0020002280AD15A
:101EC000206B00882168C860206B801C2063E08E36
:101ED000401EE0860AE0FFF731F9C01BA84201D39B
:101EE000681C00B915B94FF0030A4CE0E08E0028D9
:101EF000E0D12EE0606810B1B9F1010F09D1206B7B
:101F0000007821680873206B401C2063E08E401E1F
:101F1000E0861BE02068806800F0020002280AD1F9
:101F2000206B007821680873206B401C2063E08ED2
:101F3000401EE0860AE0FFF701F9C01BA84201D36A
:101F4000681C00B915B94FF0030A1CE0E08E0028A8
:101F5000E0D13A462946204601F0D0FB08B12020C6
:101F60006065A06850B900BF002000902068C0687C
:101F7000009020688068009000BF00BF606D08B1CD
:101F80004FF0010A00BF012084F8510000BF00207B
:101F900084F8500000BF50463CE72DE9FF5F04463F
:101FA000884691461D460E9E012002900020019019
:101FB00000BF94F85000012803D1022004B0BDE80E
:101FC000F09F012084F8500000BFFFF7B7F80746E4
:101FD00094F851B060680390AA46BBF1010F0BD092
:101FE0000398B0F5827F04D1A06810B9BBF1040F4B
:101FF00002D002200190DBE0B8F1000F03D0B9F16C
:10200000000F00D015B901200190D1E094F85100E3
:10201000042802D0052084F8510000206065C4F82F
:102020003890E587A587C4F83080E586A5862064CA
:1020300060642068006800F04000402805D02068F7
:10204000006840F0400021680860E068B0F5006F6B
:102050004AD1606810B1BAF1010F09D1206B008834
:102060002168C860206B801C2063E08E401EE086E3
:1020700033E02068806800F00200022810D1E08E72
:1020800070B1029801280BD1206B00882168C860CC
:10209000206B801C2063E08E401EE08600200290B2
:1020A0002068806800F0010068B1E08F58B12068B6
:1020B000C068A16B0880A06B801CA063E08F401EED
:1020C000E08701200290FFF739F8C01BB04204D32B
:1020D000701C10B1032001906AE0E08E0028C8D186
:1020E000E08F0028C5D14AE0606810B1BAF1010F55
:1020F00009D1206B007821680873206B401C206395
:10210000E08E401EE08634E02068806800F0020027
:10211000022810D1E08E70B1029801280BD1206BFB
:10212000007821680873206B401C2063E08E401EFD
:10213000E086002002902068806800F0010068B10D
:10214000E08F58B12068C068A16B0870A06B401C7C
:10215000A063E08F401EE08701200290FEF7EEFFB3
:10216000C01BB04201D3701C00B916B90320019006
:102170001EE0E08E0028C7D1E08F0028C4D13A4687
:102180003146204601F0BAFA20B10120019020200A
:1021900060650DE0A06850B900BF00200090206885
:1021A000C068009020688068009000BF00BF00BF3A
:1021B000012084F8510000BF002084F8500000BFC7
:1021C0000198FBE670B504462546681EB0F1807F95
:1021D00001D301200FE0681E4FF0E02148610F217C
:1021E0004FF0FF3001F0F4FE00204FF0E021886155
:1021F00007200861002070BD7047704730B5024667
:102200000B4600BF92F83C00012801D1022030BDEE
:10221000012082F83C0000BF022082F83D001068D7
:1022200044681068816824F07004186804431068DA
:102230004460184D1068A8421BD01068B0F1804F60
:1022400017D0154D1068A84213D0144D1068A8423D
:102250000FD0134D1068A8420BD0124D1068A84241
:1022600007D0114D1068A84203D0104D1068A84245
:1022700005D121F080015868014310688160012078
:1022800082F83D0000BF002082F83C0000BF00BF84
:10229000BDE70000000001400004004000080040CD
:1022A000000C0040000401400040014000180040C4
:1022B00010B504460CB9012010BD94F83D0028B9B2
:1022C000002084F83C00204600F00CF8022084F83E
:1022D0003D00211D206801F011FB012084F83D0024
:1022E0000020E9E708B5144A016891420FD100BF08
:1022F000002100911149096841F010010F4A116055
:102300001146096801F01001009100BF13E00C4A6A
:10231000016891420FD100BF00210091074909686F
:1023200041F02001054A11601146096801F02001C1
:10233000009100BF00BF08BD0010004040380240BF
:10234000001400400146022081F83D0008688068C2
:1023500000F00702062A05D00868006840F0010076
:102360000B681860012081F83D000020704701468D
:10237000022081F83D0000BF0868006A41F2111296
:10238000104050B90868006A9210104028B90868D7
:10239000006820F001000A68106000BF012081F889
:1023A0003D0000207047000010B504460421164887
:1023B00000F012FA154908800846008840F602012C
:1023C000884205DD0120124908700020114908707B
:1023D0000F48007890B10D4800880F490D4A1278D7
:1023E00021F812000B480078401C0A490870084682
:1023F00000780A2802DB0020054908700020024905
:102400000968486210BD00000C0300202C00002069
:1024100033000020320000208C0300202DE9F04121
:1024200004460D46164600BF94F83C00012802D130
:102430000220BDE8F081012084F83C0000BF0220AA
:1024400084F83D0096B9EB68D5E90012206801F0E8
:10245000D3FA2068806920F00C0021688861206828
:102460008069A9680843216888613DE0042E13D182
:10247000EB68D5E90012206801F006FB206880694E
:1024800020F440602168886120688069A96840EA7A
:1024900001202168886127E0082E12D1EB68D5E978
:1024A0000012206801F00DFB2068C06920F00C00CC
:1024B0002168C8612068C069A96808432168C861AB
:1024C00012E0EB68D5E90012206801F016FB2068E5
:1024D000C06920F440602168C8612068C069A968AB
:1024E00040EA01202168C861012084F83D0000BF56
:1024F000002084F83C0000BF00BF9AE710B50446F6
:102500000CB9012010BD94F83D0028B9002084F8D2
:102510003C00204600F00CF8022084F83D00211D0C
:10252000206801F0EBF9012084F83D000020E9E784
:1025300010B586B00446142101A8FDF779FE1E49A6
:102540002068884236D100BF002000901B480068F8
:1025500040F48030194908600846006800F4803073
:10256000009000BF00BF00BF002000901348143847
:10257000006840F0010011491439086008460068FD
:1025800000F00100009000BF00BF08200190022071
:1025900002900020039004900320059001A90848B0
:1025A000FEF7C6FC002211461820FEF77DFF18201A
:1025B000FEF76AFF06B010BD0040014044380240FB
:1025C0000000024070B504460D4635B1042D0BD015
:1025D000082D10D00C2D1CD114E02068C06840F0EC
:1025E00002002168C86015E02068C06840F004005F
:1025F0002168C8600EE02068C06840F008002168CB
:10260000C86007E02068C06840F010002168C8601A
:1026100000E000BF00BF01222946206801F0DAF97E
:102620002068806800F00706062E05D02068006844
:1026300040F0010021680860002070BD10B504461C
:1026400020680069C0F34000D8B12068C068C0F3BA
:102650004000B0B16FF002002168086101202077CE
:102660002068806900F0030018B12046FFF79CFE47
:1026700005E0204600F0ADF8204600F0ABF8002061
:10268000207720680069C0F38000D8B12068C06856
:10269000C0F38000B0B16FF004002168086102202F
:1026A00020772068806900F4407018B12046FFF759
:1026B0007BFE05E0204600F08CF8204600F08AF80A
:1026C0000020207720680069C0F3C000D8B12068DE
:1026D000C068C0F3C000B0B16FF0080021680861A5
:1026E000042020772068C06900F0030018B120465C
:1026F000FFF75AFE05E0204600F06BF8204600F098
:1027000069F80020207720680069C0F30010D8B174
:102710002068C068C0F30010B0B16FF010002168ED
:102720000861082020772068C06900F4407018B163
:102730002046FFF739FE05E0204600F04AF8204623
:1027400000F048F8002020772068006900F00100C0
:1027500058B12068C06800F0010030B16FF001008E
:1027600021680861204600F036F820680069C0F34F
:10277000C01058B12068C068C0F3C01030B16FF00D
:102780008000216808612046FFF736FD2068006957
:10279000C0F3801058B12068C068C0F3801030B119
:1027A0006FF0400021680861204600F02EF8206894
:1027B0000069C0F3401058B12068C068C0F34010F1
:1027C00030B16FF02000216808612046FFF715FD49
:1027D00010BD7047704770470246002031B1042990
:1027E00007D0082908D00C290CD108E01368586BD1
:1027F00009E01368986B06E01368D86B03E0136870
:10280000186C00E000BF00BF7047704710B5044669
:102810000CB9012010BDA06900B100E000BF94F820
:10282000390028B9002084F83800204600F028F844
:10283000242084F839002068C06820F40050216802
:10284000C860204601F078F92068006920F49040C3
:10285000216808612068406920F02A0021684861E9
:102860002068C06840F400502168C8600020E06320
:10287000202084F8390084F83A000020CAE70000DC
:1028800010B586B00446142101A8FDF7D1FC1B4900
:10289000206888422FD100BF0020009018480068AF
:1028A00040F40020164908600846006800F4002043
:1028B000009000BF00BF00BF0020009010481038FB
:1028C000006840F001000E491039086008460068B1
:1028D00000F00100009000BF00BF03200190022023
:1028E000029001200390032004900820059001A984
:1028F0000448FEF71DFB06B010BD0000004C004070
:1029000040380240000002402DE9F84304460D46DD
:1029100016461F464FF0000994F8390020285DD173
:1029200005B116B90120BDE8F88300BF94F838005E
:10293000012801D10220F6E7012084F8380000BF09
:102940000020E063212084F83900FEF7F7FB814680
:10295000A684E68400BF002084F8380000BF2BE086
:10296000E08C401EE084A068B0F5805F16D14B4635
:10297000002280212046009701F0D2FA08B10320FE
:10298000D1E7A846B8F80000C0F308002168486005
:10299000206908B9AD1C0FE06D1C0DE04B4600220C
:1029A00080212046009701F0BBFA08B10320BAE766
:1029B00015F8010B21684860E08C0028D0D14B4607
:1029C000002240212046009701F0AAFA08B1032016
:1029D000A9E7202084F839000020A4E70220A2E71C
:1029E00000BFFEE72DE9F0412DED0A8B05460C46B0
:1029F00016461F4694ED000A20EE000AD4ED020AA6
:102A000094ED021A00EE810A10EE101A0846FDF746
:102A1000BBFD41EC1B0BB0EE4B0AF0EE6B0A01F074
:102A2000E3FCB0EE409AF0EE609A94ED010A10EEED
:102A3000101A0846FDF7A8FD41EC1A0B53EC192BB0
:102A4000FDF71AFD41EC180BFDF7B1FDFE490860DA
:102A500094ED010A20EE000AD4ED020A94ED021A68
:102A600000EE810A10EE101A0846FDF78DFD41ECCC
:102A70001B0BB0EE4B0AF0EE6B0A01F0B5FCB0EEAA
:102A8000408AF0EE608A94ED000A10EE101A0846B3
:102A9000FDF77AFD41EC1A0B53EC182BFDF7ECFC1B
:102AA00041EC190BFDF783FDE8490860E648006832
:102AB000FDF76AFD41EC1B0BB0EE4B0AF0EE6B0A22
:102AC00001F09AFAB0EE40AAF0EE60AA9FEDE00B9A
:102AD00053EC102B51EC1A0BFDF75CFC41EC190B7D
:102AE0009FEDDD0B53EC102BFDF7C6FC41EC180BF2
:102AF000FDF75DFDDA490860D4480068FDF744FD44
:102B000041EC1C0BB0EE4C0AF0EE6C0A01F074FACA
:102B1000B0EE40BAF0EE60BA51EC1B0B81F0004110
:102B200041EC1A0B9FEDCA0B53EC102BFDF732FC56
:102B300041EC190B9FEDC80B53EC102BFDF79CFCDF
:102B400041EC180BFDF733FDC649086095ED020A0C
:102B5000C548D0ED000A70EE600AC44890ED001A36
:102B6000C34890ED000A00EE810A80ED000A00687B
:102B7000FDF70AFD41EC1B0B9FEDBE0B53EC102B38
:102B8000FDF708FC41EC190BBC480068FDF7FCFCA4
:102B900041EC1B0B9FEDBA0B53EC102BFDF7FAFB2E
:102BA00041EC1A0B53EC192BFDF74DFB41EC180BC4
:102BB000FDF7FDFCB4490860084690ED000AAF48F7
:102BC000D0ED000A30EE600AB04880ED000A0846F9
:102BD00090ED000AA94880ED000AAD4890ED000A8A
:102BE000F7EE000A20EE200AD5ED000AA94890ED84
:102BF000001A00EE810AA84880ED000AA74890ED6F
:102C0000000AF7EE000A20EE200AD5ED010AA148DD
:102C100090ED001A00EE810AA14880ED000AA1485B
:102C200090ED000AF7EE000A20EE200A9748D0ED5A
:102C3000000A8E4890ED001A00EE810A9A4880ED55
:102C4000000A9A4890ED000A9948D0ED000A30EE4B
:102C5000200A984880ED000A974890ED000A9748AE
:102C6000D0ED000A30EE200A954880ED000A954824
:102C700090ED000A9448D0ED000A30EE200A934807
:102C800080ED000A8B4890ED000A9148D0ED000AD3
:102C900030EE200A8748D0ED000A80EE801A8D4879
:102CA00080ED001A864890ED000A8B48D0ED000AAE
:102CB00030EE200A8248D0ED000A80EE801A874864
:102CC00080ED001A814890ED000A8548D0ED000A99
:102CD00030EE200A7D48D0ED000A80EE801A81484F
:102CE00080ED001A7B4890ED000A01F057FDF7EEE9
:102CF000000A70EEC00A5A4890ED000A664890ED4E
:102D0000001A30EE411A90ED000A00EE810A604888
:102D100080ED000A534890ED000A6148D0ED000AAA
:102D200070EE600A90ED000A6C4890ED001A01EE1A
:102D3000200A5A4880ED000A4D4890ED000A5A4892
:102D4000D0ED000A70EE600A90ED000A654890ED43
:102D5000001A01EE200A534880ED000A5D4890ED0C
:102D6000000AF7EE000A30EEC00A5248D0ED000A21
:102D700020EE200A4D4880ED000A584890ED000AE8
:102D8000F7EE000A30EEC00A4D48D0ED000A20EE02
:102D9000200A494880ED000A524890ED000AF7EEFB
:102DA000000A30EEC00A4948D0ED000A20EE200AA1
:102DB000444880ED000A364890ED000AB1EE400A22
:102DC0004948D0ED000A30EE600A484880ED000A1C
:102DD000324890ED000AB1EE400A4548D0ED000AB5
:102DE00030EE600A434880ED000A2E4890ED000A5C
:102DF000B1EE400A4048D0ED000A30EE600A3F488C
:102E000080ED000A224890ED000A86ED000A314864
:102E100090ED000A87ED000A1D48D0ED000A104829
:102E200090ED001A70EEC10AB0EE600AFDF71CFDCD
:102E3000334880ED000A1648D0ED000A164890EDA0
:102E4000001A70EEC10A5DE0940000209800002096
:102E500000000000008066406F1283C0CA21094054
:102E6000A00000209C0000207800002068000020C6
:102E7000A40000209A9999999999B93F6C00002073
:102E8000CDCCCCCCCCCCEC3F70000020740000202A
:102E9000B800002064000020AC000020B400002036
:102EA000A8000020BC000020B0000020D0000020BE
:102EB00050000020C4000020CC0000204C00002066
:102EC000C0000020D400002054000020C8000020D2
:102ED0005C000020D800002058000020DC0000200A
:102EE00060000020E0000020880000207C0000201E
:102EF0008C00002080000020900000208400002032
:102F0000E8000020B0EE600AFDF7AEFC2C4880ED32
:102F1000000A2C4890ED000A2B48D0ED000A30EE54
:102F2000200A284880ED000A284890ED000A24482D
:102F3000D0ED000A30EE200A244880ED000A244833
:102F40000068042833DB1F4890ED000AF2EE040A03
:102F500080EE201A80ED001A1C4890ED000AF1EE78
:102F6000040A80EE201A80ED001A1648D0ED000AFF
:102F700060EEA00AB0EE600A01F0F4FB154880EDA7
:102F8000000A1248D0ED000A60EEA00AB0EE600A16
:102F900001F0E8FB104880ED000A9FED100A094897
:102FA00080ED000A9FED0D0A084880ED000A0848F0
:102FB0000068401C06490860BDEC0A8BBDE8F08142
:102FC000F000002000010020E8000020F8000020B0
:102FD00048000020500000205C000020000000009D
:102FE00008B500BF002000900E48006840F4800043
:102FF0000C4908600846006800F48000009000BF9B
:1030000000BF002211463820FEF74EFA3820FEF7A6
:103010003BFA002211463B20FEF746FA3B20FEF722
:1030200033FA08BD3038024000B587B0142102A839
:10303000FDF7FEF800BF002001902F48006840F027
:1030400080002D4908600846006800F0800001906B
:1030500000BF00BF00BF002001900846006840F09C
:10306000040008600846006800F00400019000BFFA
:1030700000BF00BF002001900846006840F001003A
:1030800008600846006800F00100019000BF00BF22
:1030900000BF002001900846006840F00200086070
:1030A0000846006800F00200019000BF00BF012246
:1030B00004211248FEF73CF8012251021048FEF7A5
:1030C00037F804200290012003900490022005901C
:1030D00002A90A48FDF72CFF4FF40070029001206E
:1030E0000390002004900220059002A90448FDF7F7
:1030F0001FFF07B000BD000030380240000802404A
:103100000004024010B50B480B4908600B484860AA
:10311000002109488160C1604FF4804101610021B4
:1031200041618161C1610162FEF70EF808B1FDF7EE
:10313000E5FC10BD0054004020010020A0860100E5
:1031400010B50F480F4908604FF4827048600021A5
:103150000C488160C1600221016101214161490285
:1031600081612821C16100210162416281620A21DD
:10317000C162FEF76FFD08B1FDF7C0FC10BD000095
:1031800000300140740100201CB500200090019027
:103190000E480F490860A720486000210C48816054
:1031A0004FF6FF71C16080218161FFF781F808B19E
:1031B000FDF7A4FC00200090019069460448FFF749
:1031C0001DF808B1FDF79AFC1CBD0000001000407E
:1031D0008C0200201CB50020009001900D480E4983
:1031E00008602920486000210B4881600121C160EE
:1031F00000218161FFF75CF808B1FDF77FFC00203A
:103200000090019069460448FEF7F8FF08B1FDF709
:1032100075FC1CBD00140040CC0200201FB500202E
:103220000090019002900390114812490860A72075
:10323000486000210F4881604FF6FF71C160002196
:10324000016180218161FFF759F908B1FDF756FC52
:10325000022000900120019000200290039004229F
:1032600069460448FFF7DAF808B1FDF747FC1FBDCF
:10327000004001400C03002010B50B480B490860CA
:103280004FF4E1304860002108488160C16001616D
:103290000C21416100218161C161FFF7B7FA08B1DA
:1032A000FDF72CFC10BD0000004C00404C0300203A
:1032B00000BFFEE7704710B50446224605210020F6
:1032C00000F02CF810BD000010B59FED0F0A002093
:1032D00000F0C8F89FED0C0A012000F0C3F89FED44
:1032E0000A0A022000F0BEF89FED070A032000F052
:1032F000B9F800F0F7F8322000F040F80120FFF7AD
:10330000DAFF002010BD00000000B44210B50446F2
:1033100022460721002000F001F810BDF8B5044650
:103320000D4616462B46224640210020009601F00D
:10333000C7F90020F8BD2DE9FC4106460C461546AC
:10334000B000801DC7B2E0B28DF8040020128DF8E5
:103350000500E8B28DF8060028128DF8070001A8D4
:1033600004233A4640210090002001F077F910B183
:103370000120BDE8FC810020FBE7000070B52DEDC9
:10338000088B044640F2F650844201DB032546E0F8
:10339000182C01DCFF2542E000EE104AB8EE400A8E
:1033A00010EE100AFDF7F0F841EC1B0B9FED250B1A
:1033B00053EC102BFCF7EEFF41EC1A0B53EC1A2BDD
:1033C0009FED220B51EC100BFDF756F841EC190B59
:1033D0009FED200B53EC102BFCF7D6FF41EC180BA4
:1033E000FDF7E5F806463046FDF7CEF841EC1A0B3E
:1033F0009FED1A0B53EC102BFCF725FF41EC190B3A
:10340000B0EE490AF0EE690A00F062FFB0EE408AC1
:10341000F0EE608A51EC180BFDF79DF8C5B2012063
:1034200000F058F82B46FE224021002001F070F9F0
:10343000002000F04FF80120FFF768FF0020BDECEE
:10344000088B70BD000000000000B04000000000CC
:1034500084D77741000000000000F03F000000002A
:103460000000E03F10B52DED028B0446F0EE408ADF
:10347000DFED150A9FED150A08EEA00AB0EE408AAE
:103480009FED130AB4EEC08AF1EE10FA03DD9FED52
:10349000100AB0EE408AB7EE000AB4EEC08AF1EE30
:1034A00010FA03D2B7EE000AB0EE408ABCEEC80AAA
:1034B00010EE100A82B24FF487712046FFF73BFFEF
:1034C000BDEC028B10BD00007AC711400000BA436A
:1034D00000F07F4510B50446224604210020FFF786
:1034E0001DFF10BD10B506242346002240211046C2
:1034F00001F00EF908B9002010BD0120FCE770476B
:1035000010B50020094908600949C1F89C0200F083
:1035100011F801200549086000F00CF8002004496A
:10352000C1F8980200F006F810BD000098824042F1
:103530000080404210B5012001F040F810BD0000AD
:1035400010B500200949086001200949C1F89C0212
:10355000FFF7F0FF012005490860FFF7EBFF0020AF
:103560000349C1F89802FFF7E5FF10BD9882404279
:103570000080404270B505460024002014490860D0
:10358000FFF7D8FF00F028F8002614E000201049CB
:103590000860FFF7CFFF01200E49C1F898026006CE
:1035A000040E0B487C38006808B1601CC4B2FFF7F9
:1035B000C1FF701CC6B2082EE8DB15B9FFF7C0FFCB
:1035C00001E0FFF79DFF00F015F8204670BD0000F8
:1035D00098824042008040421CB5002002210346F0
:1035E0000246CDE9001080210148FDF788FA1CBD94
:1035F000000402401CB50020022103460122CDE94F
:10360000001080210148FDF77AFA1CBD0004024039
:1036100070B5044600200E490860FFF78BFF0025B7
:1036200012E0E0090A49091D08606006040E012045
:103630000849C1F89802FFF77DFF0020044908609F
:10364000FFF778FF681CC5B2082DEADB70BD0000EB
:10365000988240420080404210B50120084908602D
:103660000849C1F89802FFF765FF00200449086087
:10367000FFF760FF00200349C1F8980210BD000069
:103680009C8240420080404210B5002006490860FC
:1036900001200649C1F89802FFF74CFF01200249BA
:1036A0000860FFF747FF10BD9C8240420080404207
:1036B00010B5002401200F490860FFF78DFF01209D
:1036C0000D49C1F8980209E0601CC4B2FA2C05DD6E
:1036D000FFF7DAFFFFF78EFF012010BD05488038A5
:1036E00000680028F0D10349091F0860FFF782FF36
:1036F0000020F2E79C824042008040427CB50446B4
:103700000D461646164800681821B0FBF1F0154921
:10371000B0FBF1F04FF47A71484301906068B0F566
:10372000827F0DD12B46002280212046009600F09A
:103730001BF898B1606D40F02000606503207CBDEF
:1037400000BF019800B908E00198401E0190206870
:103750008068C0F3C0100028F3D100BF0020EEE75E
:103760002400002040420F002DE9F04104460E469F
:1037700017461D46DDF818803EE0681CD8B3FDF7FB
:10378000DDFCA0EB0800A84200D2A5BB2068406881
:1037900020F0E000216848606068B0F5827F0DD1BC
:1037A000A068B0F5004F03D0A068B0F5806F05D1D8
:1037B0002068006820F0400021680860A06AB0F529
:1037C000005F0DD100BF2068006820F40050216820
:1037D00008602068006840F400502168086000BF5D
:1037E000012084F8510000BF002084F8500000BF81
:1037F0000320BDE8F081FFE7206880683040B042D8
:1038000001D1012000E00020B842B6D10020F0E74D
:10381000704710B5FDF7C4FD10BD000000B593B0B2
:10382000302107A8FCF704FD142102A8FCF700FDD5
:1038300000BF002001902448006840F080502249D9
:1038400008600846006800F08050019000BF00BF8B
:1038500000BF002001901D48006840F480401B49D3
:1038600008600846006800F48040019000BF00BF77
:10387000012007900004089002200D9041050E9150
:1038800004210F91A821109102211191032112917D
:1038900007A8FDF79BFF08B1FDF730F90F20029054
:1038A00002200390002004904FF4A05005904FF4A4
:1038B00080500690052102A8FDF748FE08B1FDF7EB
:1038C0001DF913B000BD00004038024000700040F8
:1038D0000548006840F47000034908604FF000603C
:1038E000014980390860704788ED00E010B5024852
:1038F000FEF7A4FE10BD00000C03002010B5026806
:10390000294B98420ED0B0F1804F0BD0274B9842F4
:1039100008D0274B984205D0264B984202D0264B20
:10392000984203D122F070024B681A431E4B984212
:1039300020D0B0F1804F1DD01C4B98421AD01C4BA8
:10394000984217D01B4B984214D01B4B984211D071
:103950001A4B98420ED01A4B98420BD0194B9842F2
:1039600008D0194B984205D0184B984202D0184BFA
:10397000984203D122F44072CB681A4322F08003AC
:103980004C6943EA040202608B68C3620B6883627D
:10399000054B984202D0084B984201D10B69036352
:1039A0000123436110BD00000000014000040040FD
:1039B00000080040000C00400004014000400140AD
:1039C000004401400048014000180040001C004035
:1039D0000020004030B501F01F05012404FA05F372
:1039E000046A9C430462046A01F01F0502FA05F5AB
:1039F0002C43046230BD000070B50C461546066AC3
:103A000026F0010606628169026A184EB04214D09F
:103A1000B0F1804F11D0164EB0420ED0154EB042CC
:103A20000BD0154EB04208D0144EB04205D0144E03
:103A3000B04202D0134EB04201D1012600E0002670
:103A40001EB121F00301294301E041F0010121F001
:103A5000F001F02606EA0316314322F00A0204F0D0
:103A60000A0632438161026270BD0000000001401D
:103A70000004004000080040000C00400004014029
:103A8000004001400018004070B50C461546066A1B
:103A900026F0100606628169026A21F4407141EA4B
:103AA000052121F470414FF4704606EA0336314394
:103AB00022F0A002A02606EA0416324381610262C7
:103AC00070BD70B50C461546066A26F4807606620F
:103AD000C169026A21F00301294321F0F001F026B7
:103AE00006EA0316314322F420624FF4206606EA08
:103AF00004263243C161026270BD70B50C461546A2
:103B0000066A26F480560662C169026A21F4407191
:103B100041EA052121F470414FF4704606EA03366C
:103B2000314322F420424FF4204606EA0436324361
:103B3000C161026270BD00002DE9F84F04462068A3
:103B4000006920F44050E168084321680861216958
:103B5000A068084361690843E16908430090206850
:103B6000C06849F20C618843009908432168C86025
:103B70002068406920F44070A169084321684861C9
:103B8000E069B0F5004F75D1E3492068884203D061
:103B9000E249206888426FD1FDF7B0FD81460220DE
:103BA0006168A0FB01510B461920A9FB00712A4650
:103BB0003846FCF705FB6421B0FBF1F04FEA001A30
:103BC00002206168A0FB01510B461920A9FB00717E
:103BD0002A463846FCF7F4FA074602206168A0FB43
:103BE00001510B461920A9FB00B12A465846FCF7A3
:103BF000E7FA6421B0FBF1F000EBC00101EB00102B
:103C0000A7EB8000322101EBC0006421B0FBF1F092
:103C100000F0F8000AEB400A02206168A0FB0151A5
:103C20000B461920A9FB00712A463846FCF7C8FA52
:103C3000074602206168A0FB01510B461920A9FB31
:103C400000B12A465846FCF7BBFA6421B0FBF1F0FC
:103C500000EBC00101EB0010A7EB8000322101EB6B
:103C6000C0006421B0FBF1F000F00700504421686F
:103C700088604FE16EE0FFE7FDF730FD81460220EE
:103C80006168A0FB01510B461920A9FB00712A466F
:103C90003846FCF795FA6421B0FBF1F04FEA001AC0
:103CA00002206168A0FB01510B461920A9FB00719D
:103CB0002A463846FCF784FA074602206168A0FBD2
:103CC00001510B461920A9FB00B12A465846FCF7C2
:103CD00077FA6421B0FBF1F000EBC00101EB0010BA
:103CE000A7EB8000322101EBC0006421B0FBF1F0B2
:103CF00000F0F8000AEB400A02206168A0FB0151C5
:103D00000B461920A9FB00712A463846FCF758FAE1
:103D1000074602206168A0FB015003461920A9FB59
:103D200000B12A465846FCF74BFA6421B0FBF1F08B
:103D300000EBC00101EB0010A7EB8000322101EB8A
:103D4000C0006421B0FBF1F000F00700504421688E
:103D50008860DFE070492068884203D06F4920689E
:103D600088426BD1FDF7CAFC814604206168A0FB44
:103D700001510B461920A9FB00712A463846FCF771
:103D80001FFA824604206168A0FB01510B461920EE
:103D9000A9FB00712A463846FCF712FA6421B0FBF1
:103DA000F1F000EBC00101EB0010AAEB8000322122
:103DB00001EB00106421B0FBF1F000F0F00A0420E8
:103DC0006168A0FB015003461920A9FB00712A4637
:103DD0003846FCF7F5F96421B0FBF1F00AEB001A64
:103DE00004206168A0FB01510B461920A9FB00715A
:103DF0002A463846FCF7E4F9074604206168A0FB30
:103E0000015003461920A9FB00B12A465846FCF789
:103E1000D7F96421B0FBF1F000EBC00101EB001019
:103E2000A7EB8000322101EB00106421B0FBF1F020
:103E300000F00F005044216888606BE0FDF74EFCF5
:103E4000814604206168A0FB015003461920A9FBAC
:103E500000712A463846FCF7B3F9824604206168AF
:103E6000A0FB015003461920A9FB00712A463846E1
:103E7000FCF7A6F96421B0FBF1F000EBC00101EB07
:103E80000010AAEB8000322101EB00106421B0FB8E
:103E9000F1F000F0F00A04206168A0FB0150034635
:103EA0001920A9FB00712A463846FCF789F96421DC
:103EB000B0FBF1F00AEB001A04206168A0FB01706E
:103EC00003461920A9FB005001463A462846FCF754
:103ED00077F9074604206168A0FB015003461920CA
:103EE000A9FB00B12A465846FCF76AF96421B0FBE9
:103EF000F1F000EBC00101EB0010A7EB80003221D4
:103F000001EB00106421B0FBF1F000F00F00504411
:103F100021688860BDE8F88F00100140001401405E
:103F20002DE9F04104460D4617469846069E21E0CD
:103F3000701CF8B12EB1FDF701F9A0EB0800B042FA
:103F400018D92068C06820F4D0702168C860206843
:103F5000406920F0010021684861202084F8390080
:103F600084F83A0000BF002084F8380000BF032026
:103F7000BDE8F081206800682840A84201D10120F6
:103F800000E00020B842D3D00020F1E700BFFEE7F8
:103F900003B401984100009850EAC12018BF0420E2
:103FA0004A0D18BF40F0010040F2FF72B2EB515FC2
:103FB00008BF40F00200012808BF052002B070478A
:103FC00002480068C0F30220704700000CED00E0DA
:103FD00010B5002804DB0A07130E054A135406E047
:103FE0000A07140E034A00F00F031B1FD45410BD20
:103FF00000E400E018ED00E070B59B482DED020BE9
:104000002DED068B079D25F00044A04218DC974853
:10401000844202DC0AD1069840B19DED060BBDEC4E
:10402000068B02B0BDE8704000F097BA002DCCBFFF
:104030009FED8F0B9FED900BBDEC068B02B070BD1A
:104040008F48A04215DD8F48A042D8BF4FF0FF3403
:1040500058DD9DED060B51EC100BFFF799FF04287E
:1040600008BF00F085FA9DED060BBDEC068B02B093
:1040700070BD9DED060B51EC100B00F0BBFACDE9C5
:10408000060181489FED828BA0423CDD8248A04220
:104090001FDD00249FED82AB9DED060B53EC1A2B28
:1040A00051EC100BFCF7CFF89DED060B41EC190B12
:1040B00053EC1A2B51EC100BFCF76CF953EC182B4A
:1040C000FCF762F953EC192BFCF7D6F9CDE90601A0
:1040D00049E09DED060B012453EC182B51EC100B1D
:1040E000FCF7B1F89DED060B41EC190B53EC182BC6
:1040F00051EC100BFCF748F953EC192BFCF7BCF909
:10410000CDE906012FE06848A0421FDD02249FEDA3
:10411000689B9DED060B53EC192B51EC100BFCF733
:1041200039F953EC182BFCF78EF89DED060B41EC9A
:10413000180B53EC192B51EC100BFCF725F953EC31
:10414000182BFCF799F9CDE906010CE09DED060B63
:10415000032453EC102B9FED580B51EC100BFCF784
:104160008BF9CDE906019DED060B53EC102B51ECBC
:10417000100BFCF70FF941EC180B53EC182BFCF764
:1041800009F941EC190B4E480621B0EE490AF0EE50
:10419000690A784400F065F953EC182B51EC100BC8
:1041A000FCF7F8F841EC180B4648B0EE490AF0EE7F
:1041B000690A0521784400F054F953EC192B51ECAD
:1041C000100BFCF7E7F841EC100B51EC180B53EC1B
:1041D000102B002C0EDAFCF736F89DED061B53EC85
:1041E000112BFCF7D7F89DED061B53EC112BFCF7B8
:1041F000CEF835E0FCF727F89DED061B53EC112BAC
:10420000FCF7C8F841EC100B2F48784400EBC400D1
:1042100090ED001B51EC100B53EC112BFCF7B4F894
:104220009DED061B53EC112BFCF7AEF841EC100B87
:104230002648784400EBC40090ED001B51EC100BB5
:1042400053EC112BFCF7A3F841EC100B002DA2BF8F
:10425000BDEC068B02B070BD51EC100B81F000413B
:1042600041EC100B01E70000000010440000F07F5B
:10427000182D4454FB21F93F182D4454FB21F9BF5C
:104280000000DC3F0000203E0000F33F0000000083
:10429000000000000000F03F0000E63F00000000CA
:1042A000000000000000004000800340000000000B
:1042B000000000000000F83F000000000000F0BF18
:1042C0003A0A0000F00900007A09000032090000F3
:1042D0002DE9F0412DED020B9FED3D0B2DED028BF5
:1042E0009FED3D8BDDE90254C4F30A50A0F2FF3686
:1042F000142E37DA002E18DA53EC102B9DED020B3A
:1043000051EC100BFBF79FFF53EC182BFCF782FAD4
:1043100057D2002CA4BF0024254652DA24F00040D6
:10432000284318BF2E4C4CD01AE02E4820FA06F72E
:1043300004EA070028431FD053EC102B9DED020B1D
:1043400051EC100BFBF77FFF53EC182BFCF762FAD4
:1043500037D2002C03DA4FF48010F0400444BC4301
:1043600000252EE0332E07DCA6F114004FF0FF31BC
:1043700021FA00F73D4206D19DED020BBDEC028B08
:1043800002B0BDE8F08153EC102B9DED020B51EC17
:10439000100BFBF7FCFF53EC182BFCF73BFA10D289
:1043A000002C0DDA142E08BF641C09D0C6F13400AD
:1043B000012101FA00F02844A84238BF641C0546D8
:1043C000BD43CDE902549DED020BD7E7000000008C
:1043D0009C7500883CE4377E00000000000000006F
:1043E0000000F0BFFFFF0F0000B52DED048BB0EE15
:1043F000409AF0EE609A83B051EC190BFCF7B8F9D3
:1044000041EC180B18EE100A18EE901A8DED008B87
:10441000002818BF0120084320F00040C0F17F6051
:1044200000F1E040C00F14D019EE101A19EE900AF6
:104430008DED009B002918BF0121084320F00040AA
:10444000C0F17F6000F1E040C00F04BF012000F028
:10445000AFF8B0EE480A03B0F0EE680ABDEC048B8A
:1044600000BD70B504462DED028B4D1E00EBC5005E
:10447000B0EE408AF0EE608A90ED000B35F0060059
:1044800017D053EC182B51EC100BFBF783FF41ECCA
:10449000100B6D1E04EBC50090ED001B51EC100BD2
:1044A00053EC112BFBF7CFFE41EC100B35F006005F
:1044B000E7D1022D36D0042D1CD0062D1CBFBDEC3B
:1044C000028B70BD53EC182B51EC100BFBF762FF05
:1044D00094ED0A1B53EC112BFBF7B5FE53EC182B94
:1044E000FBF758FF94ED081B53EC112BFBF7ABFEC9
:1044F00041EC100B53EC182B51EC100BFBF74AFF5F
:1045000094ED061B53EC112BFBF79DFE53EC182B7F
:10451000FBF740FF94ED040B53EC102BFBF793FEDD
:1045200041EC100B53EC182B51EC100BFBF732FF46
:1045300094ED021B53EC112BFBF785FE53EC182B6B
:10454000FBF728FF94ED001B53EC112BFBF77BFED0
:10455000BDEC028B41EC100B70BD10B553EC102B71
:1045600051EC100BFBF76FFE41EC100B10BD00007F
:104570009FED050B10B553EC102B51EC100BFBF716
:1045800009FF41EC100B10BD0000000000000010FE
:1045900002E008C8121F08C1002AFAD1704770470C
:1045A000002001E001C1121F002AFBD1704700006A
:1045B00001490860704700000401002070B50446FE
:1045C0004FF6FF70001B401F85B20948FDF7BAFE89
:1045D00007480068456203E005480068406A85B204
:1045E0004FF6FA708542F7DB0148FDF7C0FE70BD5B
:1045F000CC02002082B0CDE9000121F00040019002
:104600009DED000B02B051EC100B70472DE9F0410D
:1046100007460C4615461E46FFF71EF8002141EAE4
:104620004401C8B2FEF7F4FFFFF742F82846FEF750
:10463000EFFFFFF73DF8FFF70FF8012101EB440111
:10464000C8B2FEF7E5FFFFF733F80020FEF792FF50
:104650003070FFF719F80120BDE8F0812DE9F0472F
:1046600081460D4616461F46DDF82080FEF7F4FF12
:10467000002141EA4501C8B2FEF7CAFFFFF718F86A
:1046800020B1FFF701F80120BDE8F0873046FEF7C2
:10469000BFFFFFF70DF800240CE018F80400FEF748
:1046A000B7FFFFF705F818B1FEF7EEFF0120EBE7C3
:1046B000601CC4B2BC42F0DBFEF7E6FF0020E3E77B
:1046C0002DE9F84305460E4617461C46DDF82080C6
:1046D0006B463A4631462846FFF798FFB8F1000F7F
:1046E00005D00120A0409DF80010084305E00120FE
:1046F000A0409DF8001021EA0000C0B200909DF893
:1047000000303A463146284600F002F8BDE8F8830A
:104710002DE9F04107460C4615461E46FEF79CFF64
:10472000002141EA4401C8B2FEF772FFFEF7C0FF64
:1047300020B1FEF7A9FF0120BDE8F0812846FEF771
:1047400067FFFEF7B5FF3046FEF762FFFEF7B0FFEA
:1047500018B1FEF799FF0120EEE7FEF795FF002064
:10476000EAE70000DFED0B0AB4EEE00AF1EE10FA22
:1047700003DBDFED080AB0EE600ADFED070AB4EEF6
:10478000E00AF1EE10FA03D8DFED030AB0EE600A9A
:10479000704700009A99993E6F12833ADFED050A3F
:1047A000B4EEE00AF1EE10FA03D8DFED020AB0EE43
:1047B000600A7047CDCCCC3DFCF7FEFDFFF72EF82C
:1047C000FEF732FCFEF70CFCFEF7BAFCFEF702FD2A
:1047D000FEF752FDFEF722FDFEF794FCFEF7D4FC37
:1047E00000F0F6F8FEF770FD1448FDF7ABFD002071
:1047F00012490968486204211148FDF7E3FE1BE0F5
:104800000120FCF781FB0F4800F024F80E4800F06F
:104810007FF80E4B0E4A0B490B48FEF7E3F80022D7
:1048200011461046B2EE041A084BD3ED000A084BAD
:1048300093ED000AFCF734F8E2E700008C02002058
:104840000C03002008010020140100200C000020AF
:10485000080000201FB504462B48007810B900203E
:1048600004B010BD02AA06213B2000F01FF99DF8FC
:1048700009009DF8081040EA012000B2ADF80000E0
:104880009DF80B009DF80A1040EA012000B2ADF837
:1048900002009DF80D009DF80C1040EA012000B2C6
:1048A000ADF80400BDF9000000EE100AB8EEC00A31
:1048B0009FED161AC0EE010AB0EE000A20EE800A43
:1048C00084ED000ABDF9020000EE100AB8EEC00A3D
:1048D0009FED0E1AC0EE010AB0EE000A20EE800A2B
:1048E00084ED010ABDF9040000EE100AB8EEC00A1A
:1048F000DFED060A80EE201AB0EE000A21EE000A73
:1049000084ED020A0120ABE72800002000FEFF46EC
:104910001FB504462B48007810B9002004B010BD24
:1049200002AA0621432000F0C1F89DF809009DF875
:10493000081040EA012000B2ADF800009DF80B001D
:104940009DF80A1040EA012000B2ADF802009DF87F
:104950000D009DF80C1040EA012000B2ADF80400F3
:10496000BDF9000000EE100AB8EEC00A9FED161A5D
:10497000C0EE010A9FED150A20EE800A84ED000AC0
:10498000BDF9020000EE100AB8EEC00A9FED0E1A43
:10499000C0EE010A9FED0D0A20EE800A84ED010AA7
:1049A000BDF9040000EE100AB8EEC00ADFED060AF9
:1049B00080EE201A9FED050A21EE000A84ED020A1E
:1049C0000120ABE72800002000FEFF4600007A43EC
:1049D00008B53548007808B1012008BD80216B205A
:1049E00000F08EF80520FCF78FFA0321682000F014
:1049F00087F80520FCF788FA80216B2000F080F80A
:104A00000520FCF781FA0321682000F079F80520E1
:104A1000FCF77AFA002000906A460121752000F028
:104A200045F89DF8000068283AD101216B2000F07C
:104A300067F80320FCF768FA10216A2000F060F89C
:104A40000320FCF761FA00216C2000F059F80320E4
:104A5000FCF75AFA0021192000F052F80320FCF765
:104A600053FA00211B2000F04BF80320FCF74CFA0E
:104A700000211C2000F044F80320FCF745FA102127
:104A8000372000F03DF80320FCF73EFA02211A20FF
:104A900000F036F80120FCF737FA012002490870CF
:104AA0000148007899E700002800002037B582B05F
:104AB0000C461546002204210F48FCF739FB9DF8EF
:104AC000080040F080000290FF2001900A2301229C
:104AD00002A90A48FDF790F90A2023462A4601A9AF
:104AE00000900648FDF759FA012204210248FCF71C
:104AF0001FFB012005B030BD0008024074010020FA
:104B000013B5002204210E48FCF712FB0120FCF72C
:104B1000FBF90A23012269460A48FDF76DF90A23C9
:104B2000012201A90748FDF767F901220421044881
:104B3000FCF7FEFA0120FCF7E7F901201CBD00009C
:104B4000000802407401002000061016000610162E
:104B5000000000000000000001020304060708092D
:104B600000000000010203044FBB610567ACDD3F9C
:104B7000182D4454FB21E93F9BF681D20B73EF3F84
:104B8000182D4454FB21F93FE2652F227F2B7A3CFC
:104B9000075C143326A6813CBDCBF07A8807703CB5
:104BA000075C143326A6913CC4EB98999999C9BF28
:104BB000711623FEC671BCBF6D9A74AFF2B0B3BF5D
:104BC0009AFDDE522DDEADBF2F6C6A2C44B4A2BF1D
:104BD0000D5555555555D53FFF8300922449C23F89
:104BE0006E204CC5CD45B73F513DD0A0660DB13FBD
:104BF000EB0D76244B7BA93F11DA22E33AAD903FCF
:104C0000204C00080000002008010000904500082A
:104C1000284D00080801002008070000A0450008F2
:104C20000000000000000000000000000000000084
:104C30000000000000000000000000001000000064
:104C4000010000000024F40000000000000000004B
:104C5000000001000000B44200000000000000005D
:104C60000000000000000000000000006F12833A06
:104C70000AD7233C0AD7233CCDCCCC3DCDCCCC3D70
:104C8000CDCCCC3D52499D3A0AD7233C00000000D0
:104C90000000000000000000000000000000000014
:104CA0000000000000000000000000000000000004
:104CB00000000000000000000000000000000000F4
:104CC00000000000000000000000000000000000E4
:104CD00000000000000000000000000000000000D4
:104CE00000000000000000000000000000000000C4
:104CF00000000000000000000000000000000000B4
:104D000000000000000000000000000000000000A3
:104D10000000000000000000000000000000000093
:084D200000000000000000008B
:040000050800018965
:00000001FF
