:020000040800F2
:10000000900500209D010008C51D0008A51B0008E3
:10001000C11D0008C5070008812900080000000074
:100020000000000000000000000000007122000835
:10003000C9070008000000007120000873220008B2
:10004000B7010008B7010008B7010008B7010008B0
:10005000B7010008B7010008B7010008B7010008A0
:10006000B7010008B7010008B7010008B701000890
:10007000B7010008B7010008B7010008B701000880
:10008000B7010008B7010008B7010008B701000870
:10009000B7010008B7010008B7010008B701000860
:1000A0004D230008B7010008B7010008B701000898
:1000B000B7010008B7010008B7010008B701000840
:1000C000B7010008B7010008B7010008B701000830
:1000D000B7010008B7010008B7010008B701000820
:1000E000B7010008B7010008B7010008B701000810
:1000F000B7010008B7010008B7010008B701000800
:10010000B7010008B7010008B7010008B7010008EF
:10011000B7010008B7010008B7010008B7010008DF
:10012000B7010008B7010008B7010008B7010008CF
:10013000B70100080000000000000000B70100083F
:10014000B7010008B7010008B7010008B7010008AF
:10015000B7010008B7010008B7010008B70100089F
:10016000B7010008B7010008B7010008B70100088F
:10017000B7010008B70100080000000000000000FF
:10018000B7010008B7010008DFF80CD000F008FB49
:1001900000480047892C0008900500200648804749
:1001A00006480047FEE7FEE7FEE7FEE7FEE7FEE75C
:1001B000FEE7FEE7FEE7FEE73123000889010008BD
:1001C0002DE9F05F0546002092469B46884606468C
:1001D000814640241BE0284641464746224600F01F
:1001E00011FA53465A46C01A914110D31146184687
:1001F000224600F0F8F92D1A67EB01084F46224617
:100200000120002100F0EFF917EB00094E41201EFC
:10021000A4F10104DFDC484631462A464346BDE8E6
:10022000F09FD2B201E000F8012B491EFBD27047CB
:100230000022F6E710B513460A4604461946FFF7B2
:10024000F0FF204610BD2DE9FE4F804681EA0300F5
:10025000C00F0C46009021F0004123F00045B8EBA0
:100260000200A94105D24046214690461C460B4655
:10027000024623F00040104347D0270DC7F30A0081
:10028000C3F30A510290401A019040286BDAC3F37D
:10029000130040F4801B0098924620B10023D2EB5B
:1002A000030A63EB0B0B01985946C0F1400250461C
:1002B00000F099F906460D4650465946019A00F05D
:1002C000B1F910EB08006141002487EA115284EA79
:1002D000E7731A4340D0009A62B3019A012A4FEAA9
:1002E000075215DC001B61EB02014FF0004202EAED
:1002F0000752CDE90042001C41F5801132462B46E1
:1003000000F0E8F903B0BDE8F08F40462146F9E778
:10031000001B61EB0201001C41F5801300185B41DA
:100320002018A2F5001747EB030140EAD570B61973
:100330006D4111E06D084FEA360645EAC0754FEA97
:100340000752001B61EB0201001C41F580114908B6
:100350004FEA30000019514132462B4603B0BDE848
:10036000F04F00F0A8B90098012240000023D0EB24
:10037000020263EBE073009821464FEAE074B8EBA9
:10038000000061EB0401E9E783F000435BE781F0E3
:10039000004158E72DE9FE4F81EA030404F00044D0
:1003A00021F0004100944FF0000B23F0004350EA8D
:1003B00001045ED052EA03045BD0C3F30A54C1F3D4
:1003C0000A552C44A4F2F3340194A0FB0254C1F367
:1003D000130141F48011C3F3130343F4801301FBB1
:1003E000024400FB034E840A970A44EA815447EA18
:1003F0008357A4FB076802958D0A05FB07854FEA22
:10040000932C04FB0C542705029D4FEA065847EA3B
:100410001637B5EB08056EEB070C870E920E47EA10
:10042000811742EA8312A7FB0201B6EB0B0164EBD2
:1004300000042B0D43EA0C335E1844EB1C50DA46E3
:100440005146E7FB0201C5F313044FEA0B3343EABD
:1004500014534FEA0432019C43EA0603A4F10C044E
:100460000294009CCDE900B400F034F903B0BDE87B
:10047000F08F00200146F9E72DE9F04D81EA0304F1
:1004800004F0004B21F0004514464FF0000A23F021
:10049000004150EA050220D054EA01021DD0C5F304
:1004A0000A570246C5F31303C1F31300C1F30A56FA
:1004B00040F4801543F48013A7EB0608101BD646C2
:1004C00008F2FD3873EB050002D308F1010801E0E2
:1004D00092185B41B8F1000F03DA00200146BDE835
:1004E000F08D00204FF48011064684460EE0171B65
:1004F00073EB050705D3121B63EB050306434CEAB8
:10050000010C49084FEA300092185B4150EA01079C
:10051000EDD152EA030012D082EA040083EA050119
:10052000084305D0101BAB4106D20122002306E090
:1005300000224FF0004302E06FF0010253101AEB6B
:1005400006004CEB085110EB0A0041EB0B01BDE833
:10055000F04D00F0B0B8C1F30A5210B5C1F3130169
:1005600040F2FF3341F480119A4201DA002010BDBD
:1005700040F233439A42A2F2334203DC524200F08B
:1005800041F810BD904010BD00F0004230F0004036
:100590000AD0C10D01F56071C0F3160042EA0151A5
:1005A000C20840071143704700200146704701F020
:1005B000004330B421F0004150EA010206D00A0D98
:1005C000A2F56072C1F31301002A02DC30BC0020E6
:1005D0007047440F44EAC104C100E01830BC00EB8E
:1005E000C25000F031B8202A04DB203A00FA02F1B0
:1005F000002070479140C2F1200320FA03F3194311
:1006000090407047202A04DB203A21FA02F00021B2
:10061000704721FA02F3D040C2F120029140084312
:1006200019467047202A06DBCB17203A41FA02F020
:1006300043EAE07306E041FA02F3D040C2F120023F
:1006400091400843194670470029A8BF7047401CD5
:10065000490008BF20F00100704710B4B0FA80FCD8
:1006600000FA0CF050EA010404BF10BC704749B115
:10067000CCF1200421FA04F411FA0CF118BF012185
:1006800021430843A3EB0C01CB1D4FEA00614FEA65
:10069000102042BF002010BC704700EBC350104434
:1006A0000029A4BF10BC7047401C490008BF20F0BF
:1006B000010010BC704710B5141E73F1000408DA75
:1006C000401C41F1000192185B411A4301D120F016
:1006D000010010BD2DE9F04D92469B4611B1B1FAD3
:1006E00081F202E0B0FA80F220329046FFF77BFF01
:1006F00004460F4640EA0A0041EA0B0153465A46B7
:10070000084313D0114653EA010019D0C8F1400242
:100710005046FFF777FF05460E465046594642467B
:10072000FFF761FF084305D0012004E02046394669
:10073000BDE8F08D0020054346EAE0762C433743C0
:100740000A986305E40AA0EB08000022FD0A44EAC7
:1007500047540A3002D500200146E9E70105101987
:100760006941DDE9084500196941BDE8F04DA2E79E
:1007700030B5041E71F1000404DB4FF00044404228
:1007800064EB0101141E73F1000405DB1C464FF0FD
:100790000043524263EB0403994208BF904230BDCC
:1007A000064C074D06E0E06840F0010394E80700BE
:1007B00098471034AC42F6D3FFF7EAFC9C2E0008B1
:1007C000BC2E000800BFFEE7704770472DE9F047D8
:1007D0000C46DDE90867002100258C4600BF60E07B
:1007E0004FF0010808FA01F504EA050CAC4557D1B1
:1007F000D0F800804FEA410A4FF0030909FA0AF9DC
:1008000028EA0908C0F80080D0F800804FEA4109C2
:1008100002FA09F948EA0908C0F80080012A01D063
:10082000022A27D1D0F808804FEA410A4FF0030985
:1008300009FA0AF928EA0908C0F80880D0F80880FF
:100840004FEA410906FA09F948EA0908C0F80880A0
:10085000D0F804904FF0010808FA01F829EA0809D5
:10086000C0F80490D0F8048003FA01F948EA0908B6
:10087000C0F80480D0F80C804FEA410A4FF0030919
:1008800009FA0AF928EA0908C0F80C80D0F80C80A7
:100890004FEA410907FA09F948EA0908C0F80C804B
:1008A000491C10299CD3BDE8F0870000F8B502462A
:1008B0000B460025002400200021DCE0012606FA7A
:1008C00001F51E6806EA0504AC4273D15E68012E8C
:1008D00008D05E68022E05D05E68112E02D05E68D8
:1008E000122E13D190684F000326BE40B0434F0034
:1008F000DE68BE4030439060506801268E40B043B1
:100900001E79C6F300168E4030435060D0684F0009
:100910000326BE40B0434F009E68BE403043D060C7
:100920005E68022E02D05E68122E13D1CF0802F14B
:10093000200656F827004E07F70E0F26BE40B0439C
:100940004F07FF0E1E69BE403043CF0802F120065C
:1009500046F8270010684F000326BE40B0431E79BA
:1009600006F003064F00BE40304310605E6806F09C
:100970008056B6F1805F7DD100BF00260096404EC4
:10098000366846F480463E4F3E603E46366806F482
:100990008046009600BF00BF3A4E8F0856F82700E9
:1009A0008E07370F0F26BE40B043374EB24202D1FA
:1009B000002624E05EE0354EB24201D101261EE061
:1009C000334EB24201D1022619E0324EB24201D179
:1009D000032614E0304EB24201D104260FE02F4E20
:1009E000B24201D105260AE02D4EB24201D10626BF
:1009F00005E02C4EB24201D1072600E008268F0701
:100A00003F0FBE4030431F4E8F0846F82700264E4A
:100A10003068A0435E6806F48036B6F5803F00D1AA
:100A20002043214E3060361D3068A0435E6806F4D6
:100A30000036B6F5003F00D120431B4E361D306016
:100A4000361D3068A0435E6806F48016B6F5801F38
:100A500000D12043144E08363060361D3068A04364
:100A60005E6806F40016B6F5001F00D120430E4E56
:100A70000C363060491C1029FFF420AFF8BD00008F
:100A8000443802400838014000000240000402409F
:100A900000080240000C0240001002400014024016
:100AA00000180240001C0240003C01400AB1816174
:100AB00001E00B0483617047014800687047000043
:100AC00020000020034800680349097808440149D0
:100AD00008607047200000202800002010B50D4855
:100AE000006840F400700B4908600846006840F454
:100AF000806008600846006840F480700860032049
:100B000000F0A2F8002000F007F800F02BF8002019
:100B100010BD0000003C024070B504460E4800784D
:100B20004FF47A71B1FBF0F00C490968B1FBF0F5B4
:100B3000284600F0ABFC08B1012070BD102C07D294
:100B400000222146501E00F041F80548046001E0F3
:100B50000120F2E70020F0E7280000202C00002010
:100B60002400002008B500BF002000900E48006857
:100B700040F480400C4908600846006800F480405A
:100B8000009000BF00BF00BF00200090081F006859
:100B900040F08050091F08600846006800F080504F
:100BA000009000BF00BF08BD44380240014608461F
:100BB000002809DB00F01F0301229A4043099B0033
:100BC00003F1E023C3F8002100BF70472DE9F05F77
:100BD00080460D461646002701F0D4FE07463946EA
:100BE0002A46334601F00700C0F1070ABAF1040FA4
:100BF00002D94FF0040A01E0C0F1070AD14600F122
:100C0000040ABAF1070F02D24FF0000A01E0A0F186
:100C1000030AD4464FF0010A0AFA09FAAAF1010AB6
:100C20000AEA020A0AFA0CFA4FF0010B0BFA0CFB63
:100C3000ABF1010B0BEA030B4AEA0B0421464046D9
:100C400001F0A8FEBDE8F09F00BF00F00702064BD0
:100C500019684FF6FF031940044B0B4343EA022186
:100C6000014B196000BF70470CED00E00000FA0571
:100C700070B504460D460CB9012070BD5848006897
:100C800000F00F00A84209D255490D7008460068CF
:100C900000F00F00A84201D00120EEE7207800F01C
:100CA000020002281DD1207800F00400042805D19C
:100CB0004C48006840F4E0504A490860207800F051
:100CC0000800082805D14748006840F460404549BD
:100CD00008604448006820F0F000A16808434149DA
:100CE0000860207800F00100A8B36068012807D1EF
:100CF0003C4808380068C0F34040B8B90120BCE760
:100D00006068022802D06068032807D13548083897
:100D10000068C0F3406048B90120AEE731480838A8
:100D20000068C0F3400008B90120A6E72D4800681C
:100D300020F00300616808432A490860FFF7BCFE01
:100D4000064609E0FFF7B8FE801B41F28831884271
:100D500002D9032091E707E02248006800F00C0068
:100D60006168B0EB810FEDD11D48006800F00F0005
:100D7000A84209D91A490D700846006800F00F0012
:100D8000A84201D0012078E7207800F00400042870
:100D900007D11448006820F4E050E1680843114985
:100DA0000860207800F00800082808D10D48006885
:100DB00020F46040216940EAC1000A49086000F05F
:100DC0003FF808490968C1F30311074A515CC8405C
:100DD0000649086006480068FFF79EFE00204CE7C1
:100DE000003C024008380240842E00082C000020FD
:100DF0002400002001480068704700002C000020FB
:100E000000B5FFF7F7FF04490968C1F38221034ADF
:100E1000515CC84000BD000008380240942E000814
:100E200000B5FFF7E7FF04490968C1F34231034AFF
:100E3000515CC84000BD000008380240942E0008F4
:100E40002DE9F047002400250026A146254800682A
:100E500000F00C0020B1042805D008283AD105E0A4
:100E6000DFF8849039E0DFF8849036E01D48001FF9
:100E7000006800F03F041B48001F006800F4800079
:100E800078B11A481749091F0968C1F38811A0FBF6
:100E900001700146224600233846FFF791F90546C6
:100EA0000EE011480F49091F0968C1F38811A0FB22
:100EB00001700146224600233846FFF781F90546B6
:100EC0000848001F0068C0F30140401C4600B5FB05
:100ED000F6F902E0DFF8109000BF00BF4846BDE819
:100EE000F0870000083802400024F40000127A0065
:100EF000F8B504460CB90120F8BD207800F00100D7
:100F0000002874D0F948006800F00C0004280DD0C7
:100F1000F648006800F00C00082813D1F348001FC1
:100F2000006800F48000B0F5800F0BD1EF4808385E
:100F30000068C0F34040002859D06068002856D1AE
:100F40000120D9E700BF6068B0F5803F08D1E748CD
:100F50000838006840F48030E449083908601EE031
:100F60006068B0F5A02F0DD1E0480838006840F463
:100F70008020DE49083908600846006840F4803067
:100F800008600CE0D9480838006820F48030D74960
:100F9000083908600846006820F48020086000BF17
:100FA000606890B1FFF788FD054606E0FFF784FD15
:100FB000401B642801D903209EE7CC48083800680C
:100FC000C0F340400028F1D011E0FFF775FD054661
:100FD00006E0FFF771FD401B642801D903208BE771
:100FE000C24808380068C0F340400028F1D120789A
:100FF00000F0020002285FD1BC48006800F00C003D
:1010000058B1BA48006800F00C0008281CD1B74855
:10101000001F006800F48000B0B9B44808380068C8
:10102000C0F3400020B1E068012801D0012063E74F
:10103000AE480838006820F0F800216940EAC10095
:10104000AA490839086037E0E06800B30120A849E0
:101050000860FFF731FD054606E0FFF72DFD401B58
:10106000022801D9032047E7A04808380068C0F3E8
:1010700040000028F1D09D480838006820F0F800B2
:10108000216940EAC10099490839086014E000204C
:1010900097490860FFF710FD054606E0FFF70CFDD5
:1010A000401B022801D9032026E790480838006831
:1010B000C0F340000028F1D1207800F00800082893
:1010C0002CD16069A8B101208A490860FFF7F4FCBF
:1010D000054606E0FFF7F0FC401B022801D903207B
:1010E0000AE782486C300068C0F340000028F1D065
:1010F00014E000207F490860FFF7DEFC054606E0AB
:10110000FFF7DAFC401B022801D90320F4E67748F8
:101110006C300068C0F340000028F1D1207800F066
:101120000400042870D1002770483830006800F0AF
:10113000805090B900BF002000906C4838300068A3
:1011400040F080506949383108600846006800F076
:101150008050009000BF00BF01276748006800F47E
:101160008070B0B96448006840F4807062490860DB
:10117000FFF7A2FC054606E0FFF79EFC401B022895
:1011800001D90320B8E65C48006800F480700028AC
:10119000F2D000BFA068012808D154486830006828
:1011A00040F001005149683108601DE0A068052841
:1011B0000DD14E486830006840F004004B4968315A
:1011C00008600846006840F0010008600CE04748ED
:1011D0006830006820F00100444968310860084622
:1011E000006820F00400086000BFA068A8B1FFF705
:1011F00063FC054609E0FFF75FFC401B41F28831C4
:10120000884202D9032077E626E038486830006833
:10121000C0F340000028EED013E0FFF74DFC054678
:1012200008E0FFF749FC401B41F28831884201D9B0
:10123000032061E62D4868300068C0F340000028B4
:10124000EFD1012F07D129483830006820F08050B5
:1012500026493831086000BFA069002845D02348DE
:10126000006800F00C0008285DD0A069022845D174
:1012700000201F490866FFF71FFC054606E0FFF740
:101280001BFC401B022801D9032035E6174808380B
:101290000068C0F340600028F1D1D4E90701084399
:1012A000616A40EA81110122A06AC2EB500041EA62
:1012B00000412C20005D41EA00600C49091F0860D4
:1012C00001200B490866FFF7F7FB054606E0FFF72C
:1012D000F3FB401B022801D903200DE60348083820
:1012E0000068C0F340600028F1D03FE008380240B9
:1012F00000004742800E47420070004000201C4919
:101300000866FFF7D9FB054606E0FFF7D5FB401B53
:10131000022801D90320EFE516480068C0F34060B9
:101320000028F2D122E0A069012800D1E4E51148AB
:10133000001D066806F48001E069814214D106F0C0
:101340003F01206A81420FD147F6C0703040616A88
:10135000884209D106F44031A06A814204D106F0E6
:101360007061E06A814201D00120C5E50020C3E53B
:10137000000047420038024010B504460CB9012075
:1013800010BD606A00B900BF0021A16294F851004D
:1013900028B9002084F85000204600F033F80220DD
:1013A00084F851002068006820F04000216808603F
:1013B000D4E901010843E1680843216908436169F0
:1013C0000843218B01F400710843E1690843216A55
:1013D0000843A16A0843216808600421A06901EA62
:1013E0001040616A0843216848602068C06920F4A1
:1013F00000602168C86100206065012084F8510008
:101400000020BDE710B586B00446142101A8FEF700
:101410000FFF1B49206888422FD100BF0020009099
:101420001848006840F48050164908600846006873
:1014300000F48050009000BF00BF00BF002000906B
:1014400010481438006840F001000E491439086053
:101450000846006800F00100009000BF00BFE020D7
:1014600001900220029000200390032004900520A8
:10147000059001A90448FFF719FA06B010BD000055
:1014800000300140443802400000024070B504467C
:101490002546681EB0F1807F01D301200FE0681E51
:1014A0004FF0E02148610F214FF0FF3001F072FA58
:1014B00000204FF0E021886107200861002070BD06
:1014C0007047704730B502460B4600BF92F83C00AB
:1014D000012801D1022030BD012082F83C0000BF6C
:1014E000022082F83D00106844681068816824F08A
:1014F00070041868044310684460184D1068A842CE
:101500001BD01068B0F1804F17D0154D1068A8425D
:1015100013D0144D1068A8420FD0134D1068A84284
:101520000BD0124D1068A84207D0114D1068A84288
:1015300003D0104D1068A84205D121F080015868F1
:10154000014310688160012082F83D0000BF002047
:1015500082F83C0000BF00BFBDE700000000014072
:101560000004004000080040000C0040000401405E
:10157000004001400018004010B504460CB901209D
:1015800010BD94F83D0028B9002084F83C002046A6
:1015900000F00CF8022084F83D00211D206800F0C6
:1015A000DDFE012084F83D000020E9E708B50A4A85
:1015B000016891420FD100BF0021009107490968DD
:1015C00041F02001054A11601146096801F020012F
:1015D000009100BF00BF08BD001400404038024029
:1015E0000146022081F83D000868806800F007028B
:1015F000062A05D00868006840F001000B681860F2
:10160000012081F83D00002070470146022081F84A
:101610003D0000BF0868006A41F21112104050B945
:101620000868006A9210104028B90868006820F025
:1016300001000A68106000BF012081F83D00002011
:101640007047000010B504460421164800F012FA55
:10165000154908800846008840F60201884205DDE9
:101660000120124908700020114908700F480078C5
:1016700090B10D4800880F490D4A127821F81200E8
:101680000B480078401C0A490870084600780A2870
:1016900002DB002005490870002002490968486201
:1016A00010BD0000F80000203000002037000020AE
:1016B00036000020780100202DE9F04104460D4657
:1016C000164600BF94F83C00012802D10220BDE874
:1016D000F081012084F83C0000BF022084F83D0026
:1016E00096B9EB68D5E90012206800F0B5FE2068D5
:1016F000806920F00C002168886120688069A968F1
:101700000843216888613DE0042E13D1EB68D5E9D8
:101710000012206800F0E8FE2068806920F4406034
:101720002168886120688069A96840EA01202168F1
:10173000886127E0082E12D1EB68D5E900122068F5
:1017400000F0EFFE2068C06920F00C002168C8613D
:101750002068C069A96808432168C86112E0EB6885
:10176000D5E90012206800F0F8FE2068C06920F476
:1017700040602168C8612068C069A96840EA01200A
:101780002168C861012084F83D0000BF002084F872
:101790003C0000BF00BF9AE710B504460CB9012019
:1017A00010BD94F83D0028B9002084F83C00204684
:1017B00000F00CF8022084F83D00211D206800F0A4
:1017C000CDFD012084F83D000020E9E710B586B08A
:1017D0000446142101A8FEF72BFD1E49206888420B
:1017E00036D100BF002000901B48006840F48030D4
:1017F000194908600846006800F48030009000BF76
:1018000000BF00BF0020009013481438006840F06B
:1018100001001149143908600846006800F0010011
:10182000009000BF00BF082001900220029000201D
:10183000039004900320059001A90848FFF736F8AB
:10184000002211461820FFF7C1F91820FFF7AEF962
:1018500006B010BD00400140443802400000024084
:1018600070B504460D4635B1042D0BD0082D10D0AF
:101870000C2D1CD114E02068C06840F002002168E3
:10188000C86015E02068C06840F004002168C860A6
:101890000EE02068C06840F008002168C86007E0DA
:1018A0002068C06840F010002168C86000E000BFF8
:1018B00000BF01222946206800F0BCFD2068806836
:1018C00000F00706062E05D02068006840F00100F1
:1018D00021680860002070BD10B5044620680069CA
:1018E000C0F34000D8B12068C068C0F34000B0B178
:1018F0006FF002002168086101202077206880696C
:1019000000F0030018B12046FFF79CFE05E02046DA
:1019100000F0ADF8204600F0ABF8002020772068FA
:101920000069C0F38000D8B12068C068C0F38000AF
:10193000B0B16FF0040021680861022020772068B0
:10194000806900F4407018B12046FFF77BFE05E087
:10195000204600F08CF8204600F08AF8002020771E
:1019600020680069C0F3C000D8B12068C068C0F327
:10197000C000B0B16FF00800216808610420207732
:101980002068C06900F0030018B12046FFF75AFE36
:1019900005E0204600F06BF8204600F069F80020D2
:1019A000207720680069C0F30010D8B12068C068B3
:1019B000C0F30010B0B16FF010002168086108207A
:1019C00020772068C06900F4407018B12046FFF706
:1019D00039FE05E0204600F04AF8204600F048F8BD
:1019E000002020772068006900F0010058B12068CD
:1019F000C06800F0010030B16FF00100216808619B
:101A0000204600F036F820680069C0F3C01058B1D5
:101A10002068C068C0F3C01030B16FF0800021684A
:101A200008612046FFF74CFD20680069C0F3801074
:101A300058B12068C068C0F3801030B16FF040002A
:101A400021680861204600F02EF820680069C0F384
:101A5000401058B12068C068C0F3401030B16FF03A
:101A60002000216808612046FFF72BFD10BD70475C
:101A7000704770470246002031B1042907D0082979
:101A800008D00C290CD108E01368586B09E01368E2
:101A9000986B06E01368D86B03E01368186C00E0DD
:101AA00000BF00BF7047704710B504460CB9012055
:101AB00010BDA06900B100E000BF94F8390028B95A
:101AC000002084F83800204600F028F8242084F80C
:101AD00039002068C06820F400502168C8602046A2
:101AE00000F05AFD2068006920F4904021680861E8
:101AF0002068406920F02A00216848612068C06899
:101B000040F400502168C8600020E063202084F881
:101B1000390084F83A000020CAE7000010B586B00A
:101B20000446142101A8FEF783FB1B492068884264
:101B30002FD100BF002000901848006840F400201A
:101B4000164908600846006800F40020009000BFB5
:101B500000BF00BF0020009010481038006840F01F
:101B600001000E49103908600846006800F00100C5
:101B7000009000BF00BF03200190022002900120CE
:101B80000390032004900820059001A90448FEF763
:101B90008DFE06B010BD0000004C004040380240F1
:101BA0000000024000BFFEE700B587B0142102A884
:101BB000FEF73EFB00BF002001903548006840F072
:101BC0008000334908600846006800F080000190FA
:101BD00000BF00BF00BF002001900846006840F031
:101BE000040008600846006800F00400019000BF8F
:101BF00000BF00BF002001900846006840F00100CF
:101C000008600846006800F00100019000BF00BFB6
:101C100000BF002001900846006840F00200086004
:101C20000846006800F00200019000BF00BF0122DA
:101C300004211848FEF73AFF01224FF4307116488C
:101C4000FEF734FF0420029001200390049002204C
:101C5000059002A90F48FEF729FEC020029001203E
:101C6000039004900220059002A90B48FEF71EFE87
:101C70004FF4007002900120039000200490022095
:101C8000059002A90448FEF711FE07B000BD000050
:101C900030380240000802400004024010B50F48EE
:101CA0000F4908604FF48270486000210C48816041
:101CB000C16002210161012141614902816130213C
:101CC000C16100210162416281620A21C162FFF7A4
:101CD00053FB08B1FEF779FD10BD00000030014054
:101CE000600000201CB50020009001900D480E49B6
:101CF00008602920486000210B4881600121C160F3
:101D000000218161FFF738FC08B1FEF75EFD00207D
:101D10000090019069460448FFF7D4FB08B1FEF734
:101D200054FD1CBD00140040B80000201FB5002069
:101D30000090019002900390114812490860A7207A
:101D4000486000210F4881604FF6FF71C16000219B
:101D5000016180218161FFF71FFD08B1FEF735FDAC
:101D600002200090012001900020029003900422A4
:101D700069460448FFF7A0FC08B1FEF726FD1FBD29
:101D800000400140F800002010B50B480B490860E6
:101D90004FF496404860002108488160C1600161AD
:101DA0000C21416100218161C161FFF77DFE08B115
:101DB000FEF70BFD10BD0000004C00403801002074
:101DC00000BFFEE7704710B50446224605210020FB
:101DD00000F02CF810BD000010B59FED0F0A002098
:101DE00000F0C8F89FED0C0A012000F0C3F89FED49
:101DF0000A0A022000F0BEF89FED070A032000F057
:101E0000B9F800F0F7F8322000F040F80120FFF7B1
:101E1000DAFF002010BD00000000B44210B50446F7
:101E200022460721002000F001F810BDF8B5044655
:101E30000D4616462B46224640210020009600F013
:101E4000D1FE0020F8BD2DE9FC4106460C461546A2
:101E5000B000801DC7B2E0B28DF8040020128DF8EA
:101E60000500E8B28DF8060028128DF8070001A8D9
:101E700004233A4640210090002000F081FE10B17A
:101E80000120BDE8FC810020FBE7000070B52DEDCE
:101E9000088B044640F2F650844201DB032546E0FD
:101EA000182C01DCFF2542E000EE104AB8EE400A93
:101EB00010EE100AFEF768FB41EC1B0B9FED250BA3
:101EC00053EC102BFEF766FA41EC1A0B53EC1A2B6D
:101ED0009FED220B51EC100BFEF7CEFA41EC190BE3
:101EE0009FED200B53EC102BFEF74EFA41EC180B34
:101EF000FEF75DFB06463046FEF746FB41EC1A0B4B
:101F00009FED1A0B53EC102BFEF79DF941EC190BCA
:101F1000B0EE490AF0EE690A00F052FDB0EE408AD8
:101F2000F0EE608A51EC180BFEF715FBC5B20120EC
:101F300000F058F82B46FE224021002000F07AFEE7
:101F4000002000F04FF80120FFF768FF0020BDECF3
:101F5000088B70BD000000000000B04000000000D1
:101F600084D77741000000000000F03F000000002F
:101F70000000E03F10B52DED028B0446F0EE408AE4
:101F8000DFED150A9FED150A08EEA00AB0EE408AB3
:101F90009FED130AB4EEC08AF1EE10FA03DD9FED57
:101FA000100AB0EE408AB7EE000AB4EEC08AF1EE35
:101FB00010FA03D2B7EE000AB0EE408ABCEEC80AAF
:101FC00010EE100A82B24FF487712046FFF73BFFF4
:101FD000BDEC028B10BD00007AC711400000BA436F
:101FE00000F07F4510B50446224604210020FFF78B
:101FF0001DFF10BD10B506242346002240211046C7
:1020000000F018FE08B9002010BD0120FCE7000018
:1020100070B52DED028B0446B0EE408ADFED110A5B
:102020009FED110A08EE200AF0EE408A9FED0F0A9C
:10203000F4EEC08AF1EE10FA03DD9FED0C0AF0EE2B
:10204000408AA0000830C5B2BCEEE80A10EE100AC3
:10205000C6B233462A464021002000F0EBFDBDEC1D
:10206000028B70BD7AC711400000BA4300F07F4573
:102070007047000010B50020094908600949C1F8FF
:102080009C0200F011F801200549086000F00CF8EE
:1020900000200449C1F8980200F006F810BD0000C5
:1020A000988240420080404210B5012000F024FD9B
:1020B00010BD000010B50020094908600120094941
:1020C000C1F89C02FFF7F0FF012005490860FFF707
:1020D000EBFF00200349C1F89802FFF7E5FF10BDB0
:1020E000988240420080404270B50546002400209E
:1020F00014490860FFF7D8FF00F028F8002614E024
:10210000002010490860FFF7CFFF01200E49C1F8F9
:1021100098026006040E0B487C38006808B1601C09
:10212000C4B2FFF7C1FF701CC6B2082EE8DB15B9B8
:10213000FFF7C0FF01E0FFF79DFF00F015F8204614
:1021400070BD000098824042008040421CB50020D3
:10215000022103460246CDE9001080210148FEF726
:1021600035FB1CBD000402401CB5002002210346C3
:102170000122CDE9001080210148FEF727FB1CBD9C
:102180000004024070B5044600200E490860FFF7C5
:102190008BFF002512E0E0090A49091D086060066E
:1021A000040E01200849C1F89802FFF77DFF0020C6
:1021B00004490860FFF778FF681CC5B2082DEADB08
:1021C00070BD0000988240420080404210B501205E
:1021D000084908600849C1F89802FFF765FF002028
:1021E00004490860FFF760FF00200349C1F8980226
:1021F00010BD00009C8240420080404210B500208B
:102200000649086001200649C1F89802FFF74CFF13
:10221000012002490860FFF747FF10BD9C82404241
:102220000080404210B5002401200F490860FFF7EC
:102230008DFF01200D49C1F8980209E0601CC4B26D
:10224000FA2C05DDFFF7DAFFFFF78EFF012010BD46
:102250000548803800680028F0D10349091F08604C
:10226000FFF782FF0020F2E79C824042008040425C
:10227000704710B5FEF726FC10BD000000B593B006
:10228000302107A8FDF7D4FF142102A8FDF7D0FFE5
:1022900000BF002001902448006840F0805022498F
:1022A00008600846006800F08050019000BF00BF41
:1022B00000BF002001901D48006840F480401B4989
:1022C00008600846006800F48040019000BF00BF2D
:1022D000012007900004089002200D9041050E9106
:1022E00004210F91A8211091022111910321129133
:1022F00007A8FEF7FDFD08B1FEF767FA0F20029070
:1023000002200390002004904FF4A05005904FF459
:1023100080500690052102A8FEF7AAFC08B1FEF73E
:1023200054FA13B000BD0000403802400070004075
:102330000548006840F47000034908604FF00060F1
:10234000014980390860704788ED00E010B5024807
:10235000FFF7C2FA10BD0000F800002010B50268B7
:10236000294B98420ED0B0F1804F0BD0274B9842AA
:1023700008D0274B984205D0264B984202D0264BD6
:10238000984203D122F070024B681A431E4B9842C8
:1023900020D0B0F1804F1DD01C4B98421AD01C4B5E
:1023A000984217D01B4B984214D01B4B984211D027
:1023B0001A4B98420ED01A4B98420BD0194B9842A8
:1023C00008D0194B984205D0184B984202D0184BB0
:1023D000984203D122F44072CB681A4322F0800362
:1023E0004C6943EA040202608B68C3620B68836233
:1023F000054B984202D0084B984201D10B69036308
:102400000123436110BD00000000014000040040B2
:1024100000080040000C0040000401400040014062
:10242000004401400048014000180040001C0040EA
:102430000020004030B501F01F05012404FA05F327
:10244000046A9C430462046A01F01F0502FA05F560
:102450002C43046230BD000070B50C461546066A78
:1024600026F0010606628169026A184EB04214D055
:10247000B0F1804F11D0164EB0420ED0154EB04282
:102480000BD0154EB04208D0144EB04205D0144EB9
:10249000B04202D0134EB04201D1012600E0002626
:1024A0001EB121F00301294301E041F0010121F0B7
:1024B000F001F02606EA0316314322F00A0204F086
:1024C0000A0632438161026270BD000000000140D3
:1024D0000004004000080040000C004000040140DF
:1024E000004001400018004070B50C461546066AD1
:1024F00026F0100606628169026A21F4407141EA01
:10250000052121F470414FF4704606EA0336314349
:1025100022F0A002A02606EA04163243816102627C
:1025200070BD70B50C461546066A26F480760662C4
:10253000C169026A21F00301294321F0F001F0266C
:1025400006EA0316314322F420624FF4206606EABD
:1025500004263243C161026270BD70B50C46154657
:10256000066A26F480560662C169026A21F4407147
:1025700041EA052121F470414FF4704606EA033622
:10258000314322F420424FF4204606EA0436324317
:10259000C161026270BD00002DE9F84F0446206859
:1025A000006920F44050E16808432168086121690E
:1025B000A068084361690843E16908430090206806
:1025C000C06849F20C618843009908432168C860DB
:1025D0002068406920F44070A1690843216848617F
:1025E000E069B0F5004F75D1E3492068884203D017
:1025F000E249206888426FD1FEF712FC8146022032
:102600006168A0FB01510B461920A9FB00712A4605
:102610003846FDF7D5FD6421B0FBF1F04FEA001A12
:1026200002206168A0FB01510B461920A9FB007133
:102630002A463846FDF7C4FD074602206168A0FB24
:1026400001510B461920A9FB00B12A465846FDF757
:10265000B7FD6421B0FBF1F000EBC00101EB00100D
:10266000A7EB8000322101EBC0006421B0FBF1F048
:1026700000F0F8000AEB400A02206168A0FB01515B
:102680000B461920A9FB00712A463846FDF798FD34
:10269000074602206168A0FB01510B461920A9FBE7
:1026A00000B12A465846FDF78BFD6421B0FBF1F0DE
:1026B00000EBC00101EB0010A7EB8000322101EB21
:1026C000C0006421B0FBF1F000F007005044216825
:1026D00088604FE16EE0FFE7FEF792FB8146022043
:1026E0006168A0FB01510B461920A9FB00712A4625
:1026F0003846FDF765FD6421B0FBF1F04FEA001AA2
:1027000002206168A0FB01510B461920A9FB007152
:102710002A463846FDF754FD074602206168A0FBB3
:1027200001510B461920A9FB00B12A465846FDF776
:1027300047FD6421B0FBF1F000EBC00101EB00109C
:10274000A7EB8000322101EBC0006421B0FBF1F067
:1027500000F0F8000AEB400A02206168A0FB01517A
:102760000B461920A9FB00712A463846FDF728FDC3
:10277000074602206168A0FB015003461920A9FB0F
:1027800000B12A465846FDF71BFD6421B0FBF1F06D
:1027900000EBC00101EB0010A7EB8000322101EB40
:1027A000C0006421B0FBF1F000F007005044216844
:1027B0008860DFE070492068884203D06F49206854
:1027C00088426BD1FEF72CFB814604206168A0FB98
:1027D00001510B461920A9FB00712A463846FDF726
:1027E000EFFC824604206168A0FB01510B461920D2
:1027F000A9FB00712A463846FDF7E2FC6421B0FBD4
:10280000F1F000EBC00101EB0010AAEB80003221D7
:1028100001EB00106421B0FBF1F000F0F00A04209D
:102820006168A0FB015003461920A9FB00712A46EC
:102830003846FDF7C5FC6421B0FBF1F00AEB001A45
:1028400004206168A0FB01510B461920A9FB00710F
:102850002A463846FDF7B4FC074604206168A0FB11
:10286000015003461920A9FB00B12A465846FDF73E
:10287000A7FC6421B0FBF1F000EBC00101EB0010FC
:10288000A7EB8000322101EB00106421B0FBF1F0D6
:1028900000F00F005044216888606BE0FEF7B0FA4A
:1028A000814604206168A0FB015003461920A9FB62
:1028B00000712A463846FDF783FC82460420616891
:1028C000A0FB015003461920A9FB00712A46384697
:1028D000FDF776FC6421B0FBF1F000EBC00101EBE9
:1028E0000010AAEB8000322101EB00106421B0FB44
:1028F000F1F000F0F00A04206168A0FB01500346EB
:102900001920A9FB00712A463846FDF759FC6421BD
:10291000B0FBF1F00AEB001A04206168A0FB017023
:1029200003461920A9FB005001463A462846FDF708
:1029300047FC074604206168A0FB015003461920AC
:10294000A9FB00B12A465846FDF73AFC6421B0FBCA
:10295000F1F000EBC00101EB0010A7EB8000322189
:1029600001EB00106421B0FBF1F000F00F005044C7
:1029700021688860BDE8F88F001001400014014014
:1029800000BFFEE702480068C0F302207047000065
:102990000CED00E010B5002804DB0A07130E054A11
:1029A000135406E00A07140E034A00F00F031B1F1E
:1029B000D45410BD00E400E018ED00E00000000079
:1029C0002DE9F0412DED020B9FED3D0B2DED028B1E
:1029D0009FED3D8BDDE90254C4F30A50A0F2FF36AF
:1029E000142E37DA002E18DA53EC102B9DED020B63
:1029F00051EC100BFDF727FC53EC182BFDF7B8FE3C
:102A000057D2002CA4BF0024254652DA24F00040FF
:102A1000284318BF2E4C4CD01AE02E4820FA06F757
:102A200004EA070028431FD053EC102B9DED020B46
:102A300051EC100BFDF707FC53EC182BFDF798FE3B
:102A400037D2002C03DA4FF48010F0400444BC432A
:102A500000252EE0332E07DCA6F114004FF0FF31E5
:102A600021FA00F73D4206D19DED020BBDEC028B31
:102A700002B0BDE8F08153EC102B9DED020B51EC40
:102A8000100BFDF784FC53EC182BFDF771FE10D2F0
:102A9000002C0DDA142E08BF641C09D0C6F13400D6
:102AA000012101FA00F02844A84238BF641C054601
:102AB000BD43CDE902549DED020BD7E700000000B5
:102AC0009C7500883CE4377E000000000000000098
:102AD0000000F0BFFFFF0F0002E008C8121F08C18E
:102AE000002AFAD170477047002001E001C1121F8F
:102AF000002AFBD17047000070B504464FF6FF7006
:102B0000001B401F85B20948FEF76AFD07480068B0
:102B1000456203E005480068406A85B24FF6FA70E6
:102B20008542F7DB0148FEF770FD70BDB80000205C
:102B30002DE9F04107460C4615461E46FFF746FBB9
:102B4000002141EA4401C8B2FFF71CFBFFF76AFB12
:102B50002846FFF717FBFFF765FBFFF737FB01215F
:102B600001EB4401C8B2FFF70DFBFFF75BFB002050
:102B7000FFF7BAFA3070FFF741FB0120BDE8F081A2
:102B80002DE9F04781460D4616461F46DDF82080A8
:102B9000FFF71CFB002141EA4501C8B2FFF7F2FA3A
:102BA000FFF740FB20B1FFF729FB0120BDE8F087CC
:102BB0003046FFF7E7FAFFF735FB00240CE018F882
:102BC0000400FFF7DFFAFFF72DFB18B1FFF716FB44
:102BD0000120EBE7601CC4B2BC42F0DBFFF70EFB48
:102BE0000020E3E72DE9F84305460E4617461C464C
:102BF000DDF820806B463A4631462846FFF798FFBD
:102C0000B8F1000F05D00120A0409DF80010084346
:102C100005E00120A0409DF8001021EA0000C0B2AC
:102C200000909DF800303A463146284600F002F800
:102C3000BDE8F8832DE9F04107460C4615461E46CF
:102C4000FFF7C4FA002141EA4401C8B2FFF79AFA3B
:102C5000FFF7E8FA20B1FFF7D1FA0120BDE8F081D3
:102C60002846FFF78FFAFFF7DDFA3046FFF78AFABA
:102C7000FFF7D8FA18B1FFF7C1FA0120EEE7FFF726
:102C8000BDFA0020EAE70000FDF728FFFFF7F6FA9B
:102C9000FEF78AFFFFF702F8FFF724F8FFF774F852
:102CA000FFF744F8FFF798F89FED6D0A0020FFF753
:102CB000AFF99FED6B0A0120FFF7AAF99FED680AB3
:102CC0000220FFF7A5F99FED660A0320FFF7A0F9A0
:102CD00004216448FEF7C4FDC1E0002015E0624A0B
:102CE000411C32F8111000EE101AB8EE400ADFED68
:102CF0005F0A30EE600ADFED5D0A80EE201A5C4963
:102D000001EB800181ED001A401C0528E7DB002063
:102D100069E05749D1ED030A9FED561A9FED560A17
:102D200000EE810A554901EB800181ED000AA0B94E
:102D3000524901EB800191ED000A4D49D1ED010AA4
:102D40009FED4C1A00EE810AF3EE090A30EE600A9C
:102D50004A4901EB800181ED000A022814D147495C
:102D600001EB800191ED000A4149D1ED010A9FED8F
:102D7000411A00EEC10AF3EE090A30EE200A3F497B
:102D800001EB800181ED000A012814D13B4901EBE0
:102D9000800191ED000A3649D1ED000A9FED351A08
:102DA00000EE810AF3EE090A30EE600A334901EBC6
:102DB000800181ED000A032814D1304901EB800124
:102DC00091ED000A2A49D1ED000A9FED2A1A00EE82
:102DD000C10AF3EE090A30EE200A284901EB80010E
:102DE00081ED000A401C052893DB002026E02349E2
:102DF00001EB800191ED000ADFED1F0AB4EEE00A5D
:102E0000F1EE10FA06D89FED1C0A1C4901EB800177
:102E100081ED000A194901EB800191ED000ADFED17
:102E2000180AB4EEE00AF1EE10FA06DB9FED140A80
:102E3000124901EB800181ED000A401C0528D6DB18
:102E400000240AE00D4901EB8401D1ED000AB0EE47
:102E5000600AE0B2FFF7DCF8641C052CF2DB3CE70B
:102E60000000B442F80000207801002000007A44FD
:102E70003800002000004842000082420C00002080
:102E80000000E64200000000000000000102030410
:102E9000060708090000000001020304BC2E000818
:102EA0000000002038000000D82A0008F42E000896
:102EB0003800002058050000E82A00080000000043
:102EC00000000000000000000000B442000000000C
:102ED00000000000000000000000000000000000F2
:102EE00010000000010000000024F40000000000B9
:042EF00000000100DD
:040000050800018965
:00000001FF
