:020000040800F2
:10000000800500209D0100081F1900084517000801
:100010001D190008E1070008852000080000000005
:100020000000000000000000000000000D1D00089E
:10003000E307000800000000E11A00080F1D000897
:10004000B7010008B7010008B7010008B7010008B0
:10005000B7010008B7010008B7010008B7010008A0
:10006000B7010008B7010008B7010008B701000890
:10007000B7010008B7010008B7010008B701000880
:10008000B7010008B7010008B7010008B701000870
:10009000B7010008B7010008B7010008B701000860
:1000A000B51D0008B7010008B7010008B701000836
:1000B000B7010008B7010008B7010008B701000840
:1000C000B7010008B7010008B7010008B701000830
:1000D000B7010008B7010008B7010008B701000820
:1000E000B7010008B7010008B7010008B701000810
:1000F000B7010008B7010008B7010008B701000800
:10010000B7010008B7010008B7010008B7010008EF
:10011000B7010008B7010008B7010008B7010008DF
:10012000B7010008B7010008B7010008B7010008CF
:10013000B70100080000000000000000B70100083F
:10014000B7010008B7010008B7010008B7010008AF
:10015000B7010008B7010008B7010008B70100089F
:10016000B7010008B7010008B7010008B70100088F
:10017000B7010008B70100080000000000000000FF
:10018000B7010008B7010008DFF80CD000F016FB3B
:100190000048004775230008800500200648804776
:1001A00006480047FEE7FEE7FEE7FEE7FEE7FEE75C
:1001B000FEE7FEE7FEE7FEE7991D0008890100085B
:1001C0002DE9F05F0546002092469B46884606468C
:1001D000814640241BE0284641464746224600F01F
:1001E0001EFA53465A46C01A914110D3114618467A
:1001F000224600F005FA2D1A67EB01084F46224609
:100200000120002100F0FCF917EB00094E41201EEF
:10021000A4F10104DFDC484631462A464346BDE8E6
:10022000F09FD2B201E000F8012B491EFBD27047CB
:100230000022F6E710B513460A4604461946FFF7B2
:10024000F0FF204610BD2DE9FE4F804681EA0300F5
:10025000C00F0C46009021F0004123F00045B8EBA0
:100260000200A94105D24046214690461C460B4655
:10027000024623F00040104347D0270DC7F30A0081
:10028000C3F30A510290401A019040286BDAC3F37D
:10029000130040F4801B0098924620B10023D2EB5B
:1002A000030A63EB0B0B01985946C0F1400250461C
:1002B00000F0A6F906460D4650465946019A00F050
:1002C000BEF910EB08006141002487EA115284EA6C
:1002D000E7731A4340D0009A62B3019A012A4FEAA9
:1002E000075215DC001B61EB02014FF0004202EAED
:1002F0000752CDE90042001C41F5801132462B46E1
:1003000000F0F5F903B0BDE8F08F40462146F9E76B
:10031000001B61EB0201001C41F5801300185B41DA
:100320002018A2F5001747EB030140EAD570B61973
:100330006D4111E06D084FEA360645EAC0754FEA97
:100340000752001B61EB0201001C41F580114908B6
:100350004FEA30000019514132462B4603B0BDE848
:10036000F04F00F0B5B90098012240000023D0EB17
:10037000020263EBE073009821464FEAE074B8EBA9
:10038000000061EB0401E9E783F000435BE781F0E3
:10039000004158E72DE9FE4F81EA030404F00044D0
:1003A00021F0004100944FF0000B23F0004350EA8D
:1003B00001045ED052EA03045BD0C3F30A54C1F3D4
:1003C0000A552C44A4F2F3340194A0FB0254C1F367
:1003D000130141F48011C3F3130343F4801301FBB1
:1003E000024400FB034E840A970A44EA815447EA18
:1003F0008357A4FB076802958D0A05FB07854FEA22
:10040000932C04FB0C542705029D4FEA065847EA3B
:100410001637B5EB08056EEB070C870E920E47EA10
:10042000811742EA8312A7FB0201B6EB0B0164EBD2
:1004300000042B0D43EA0C335E1844EB1C50DA46E3
:100440005146E7FB0201C5F313044FEA0B3343EABD
:1004500014534FEA0432019C43EA0603A4F10C044E
:100460000294009CCDE900B400F041F903B0BDE86E
:10047000F08F00200146F9E72DE9F04D81EA0304F1
:1004800004F0004B21F0004514464FF0000A23F021
:10049000004150EA050220D054EA01021DD0C5F304
:1004A0000A570246C5F31303C1F31300C1F30A56FA
:1004B00040F4801543F48013A7EB0608101BD646C2
:1004C00008F2FD3873EB050002D308F1010801E0E2
:1004D00092185B41B8F1000F03DA00200146BDE835
:1004E000F08D00204FF48011064684460EE0171B65
:1004F00073EB050705D3121B63EB050306434CEAB8
:10050000010C49084FEA300092185B4150EA01079C
:10051000EDD152EA030012D082EA040083EA050119
:10052000084305D0101BAB4106D20122002306E090
:1005300000224FF0004302E06FF0010253101AEB6B
:1005400006004CEB085110EB0A0041EB0B01BDE833
:10055000F04D00F0BDB80EB540F2334102910021DC
:10056000CDE900110A460B4600F0C1F803B000BD0A
:10057000C1F30A5210B5C1F3130140F2FF3341F445
:1005800080119A4201DA002010BD40F233439A42B2
:10059000A2F2334203DC524200F041F810BD904019
:1005A00010BD00F0004230F000400AD0C10D01F54E
:1005B0006071C0F3160042EA0151C20840071143BE
:1005C000704700200146704701F0004330B421F02D
:1005D000004150EA010206D00A0DA2F56072C1F393
:1005E0001301002A02DC30BC00207047440F44EAAB
:1005F000C104C100E01830BC00EBC25000F031B8BB
:10060000202A04DB203A00FA02F1002070479140D2
:10061000C2F1200320FA03F3194390407047202AC7
:1006200004DB203A21FA02F00021704721FA02F39C
:10063000D040C2F120029140084319467047202A59
:1006400006DBCB17203A41FA02F043EAE07306E0FA
:1006500041FA02F3D040C2F120029140084319460A
:1006600070470029A8BF7047401C490008BF20F010
:100670000100704710B4B0FA80FC00FA0CF050EAA8
:10068000010404BF10BC704749B1CCF1200421FA29
:1006900004F411FA0CF118BF012121430843A3EB24
:1006A0000C01CB1D4FEA00614FEA102042BF002031
:1006B00010BC704700EBC35010440029A4BF10BC0D
:1006C0007047401C490008BF20F0010010BC704773
:1006D00010B5141E73F1000408DA401C41F100014A
:1006E00092185B411A4301D120F0010010BD2DE9A1
:1006F000F04D92469B4611B1B1FA81F202E0B0FA98
:1007000080F220329046FFF77BFF04460F4640EA16
:100710000A0041EA0B0153465A46084313D01146DA
:1007200053EA010019D0C8F140025046FFF777FFA5
:1007300005460E46504659464246FFF761FF0843BC
:1007400005D0012004E020463946BDE8F08D0020A8
:10075000054346EAE0762C4337430A986305E40AEA
:10076000A0EB08000022FD0A44EA47540A3002D5F3
:1007700000200146E9E7010510196941DDE9084556
:1007800000196941BDE8F04DA2E7000030B5041E34
:1007900071F1000404DB4FF00044404264EB0101BE
:1007A000141E73F1000405DB1C464FF00043524257
:1007B00063EB0403994208BF904230BD064C074DDD
:1007C00006E0E06840F0010394E807009847103421
:1007D000AC42F6D3FFF7DCFC2025000840250008DA
:1007E000FEE77047704700002DE9F84F00224FF0F8
:1007F000010803254FF00F0E0B6808FA02F423409E
:10080000A3426ED14E68012E05D0022E03D0112EC8
:1008100001D0122E12D186684FEA420C05FA0CF76D
:10082000BE43CF6807FA0CF7374387604668A64394
:100830000C79C4F30014944034434460C6685700F4
:1008400005FA07FC8C6826EA0C06BC403443C460F9
:100850004C68022C01D0122C13D1D40800EB840474
:10086000A346D4F8209054074FEAD46A0EFA0AF649
:1008700029EA06090E6906FA0AF646EA0906CBF8DD
:10088000206006680C7926EA0C0604F00304BC40DC
:10089000344304604C68E40065D5364C266846F461
:1008A00080462660246822F0030604F48044009405
:1008B000314C3444A446D4F808489607370F0EFA52
:1008C00007F6B4432D4EB04201D1002624E02C4E51
:1008D000B04201D101261FE02A4EB04202D10226C9
:1008E0001AE040E0284EB04201D1032614E0274E22
:1008F000B04201D104260FE0254EB04201D10526B9
:100900000AE0244EB04201D1062605E0224EB04254
:1009100001D1072600E00826BE402643CCF808682F
:100920001E4E34684F689C43FF0300D51C4334605F
:100930001A4C241D26684F689E43BF0300D51E43F2
:100940002660164E083634684F689C43FF0200D577
:100950001C433460114E0C3634684F689C43BF0210
:1009600000D51C433460521C102AFFF445AFBDE88B
:10097000F88F00004438024000300140000002407F
:100980000004024000080240000C02400010024037
:100990000014024000180240001C0240003C0140CC
:1009A0000AB1816170470904FBE7000001488068D3
:1009B000704700001400002002488168027811444A
:1009C00081607047140000200B4810B5016841F4A5
:1009D00000710160016841F480610160016841F4C7
:1009E00080710160032000F06FF8002000F006F82D
:1009F00000F024F8002010BD003C024070B50D4D01
:100A000004464FF47A712878B1FBF0F00A4909687E
:100A1000B1FBF0F000F076FB48B9102C07D20022B1
:100A20002146501E00F030F800206C6070BD01209F
:100A300070BD000014000020200000200A4808B506
:100A4000016841F480410160006800F4804000903A
:100A50000548001F016841F080510160006800F006
:100A60008050009008BD000044380240002809DB97
:100A700000F01F02012191404009800000F1E020B8
:100A8000C0F8001170470000F0B40E4B1B680C4614
:100A9000C3F30223C3F10705042D00D90425191D52
:100AA000072901D2002300E0DB1E012606FA05F12A
:100AB000491E214099409E40761E16403143F0BCAD
:100AC00001F0E1BA0CED00E0064900F00702086809
:100AD0004FF6FF03184040EA0220034A1043086023
:100AE000704700000CED00E00000FA052DE9F0472A
:100AF0000E46050065D0DFF81481D8F80000F7B283
:100B000000F00F00B04207D288F80070D8F800005B
:100B100000F00F00B04254D128683D4C810712D537
:100B2000400703D5206840F4E05020602878000793
:100B300003D5206840F4604020602068A96820F058
:100B4000F000084320602878C0072DD0304968683D
:100B50000839012812D0022813D0032811D00968BF
:100B6000890700292DDA216821F003010143216062
:100B7000FFF71CFF814641F2883A0EE009688903BD
:100B8000EFE709688901ECE7FFF710FFA0EB090127
:100B9000514502D90320BDE8F0872068696800F05C
:100BA0000C00B0EB810FEFD1D8F80010404601F0F7
:100BB0000F01B14207D90770006800F00F00B04282
:100BC00001D00120E7E72878400705D52068E968CB
:100BD00020F4E050084320602878000706D52068FC
:100BE000296920F4604040EAC100206000F038F834
:100BF0002168084AC1F30311515CC84006490860E6
:100C000006480068FFF7FAFE0020C4E7003C0240F7
:100C100008380240082500082000002018000020A5
:100C20000448054900680968044AC1F38221515CFF
:100C3000C8407047200000200838024018250008EE
:100C40000448054900680968044AC1F34231515C0F
:100C5000C8407047200000200838024018250008CE
:100C6000154810B5006810F00C02144813D041105C
:100C7000042A0FD0082A0ED10F4C241F22682368A3
:100C800002F03F025B0207D52068C0F38810A0FB8A
:100C9000010106E0084610BD2168C1F38811A1FBDF
:100CA00000010023FFF78CFA2168C1F30141491CC0
:100CB0004900B0FBF1F010BD083802400024F400F8
:100CC0002DE9F84F04006ED02078DFF83C93C00780
:100CD000A9F104054AD009F104000168C1F38101BA
:100CE000012908D00068C0F3810002280AD1D9F890
:100CF0000000400206D52868800337D560680028C8
:100D0000E1D033E06068B0F5803F10D0B0F5A02F9F
:100D1000286810D020F480302860286820F48020D3
:100D200028606068A8B1FFF741FE06460DE028681C
:100D300040F48030F4E740F480202860F7E700BFFB
:100D4000FFF734FE801B642873D828688003F7D52A
:100D50000CE0FFF72BFE064605E000BFFFF726FE7E
:100D6000801B6428F0D828688003F7D42078DFF847
:100D70009C8280074FF0000A3ED5A348001D016801
:100D800011F00C0F08D00068C0F3810002280BD1CD
:100D9000D9F80000400207D42868800716D5E0681B
:100DA000012800D112E02BE1E068B8B10120C8F8B9
:100DB0000000FFF7FBFD064605E000BFFFF7F6FD6C
:100DC000801B0228C0D828688007F7D528682169C9
:100DD00020F0F80040EAC10028600DE0C8F800A04B
:100DE000FFF7E4FD064604E0FFF7E0FD801B022864
:100DF0001FD828688007F7D42078000722D5824EB4
:100E000083486169703671B101210160FFF7CEFD41
:100E1000074604E0FFF7CAFDC01B022809D8306866
:100E20008007F7D50EE0C0F800A0FFF7BFFD07462A
:100E300005E082E0FFF7BAFDC01B02287DD83068CC
:100E40008007F7D42078400768D5DFF8BCB10027C9
:100E50000BF13C0BDBF80000C0000BD4DBF80010FA
:100E600041F08051CBF80010DBF80000012700F0C2
:100E700080500090674E3068C00510D4306840F450
:100E800080703060FFF792FD009005E0FFF78EFD67
:100E90000099401A022850D83068C005F6D55A4E3D
:100EA000A0686C3601280FD00528306810D020F0DB
:100EB00001003060306820F004003060A068B8B1F4
:100EC000FFF774FD00900FE0306840F00100F4E798
:100ED00040F004003060F7E7FFF768FD0099411A21
:100EE00041F28830814266D830688007F4D50EE040
:100EF000FFF75CFD009007E0FFF758FD0099411AED
:100F000041F28830814256D830688007F4D42FB13E
:100F1000DBF8001021F08051CBF80010A069C8B3B5
:100F20003949091D0968C1F3810102294AD0022803
:100F3000504607D0C8F8600000E03CE0FFF736FDFF
:100F400004463BE04746C8F86000FFF72FFD064621
:100F500005E000BFFFF72AFD801B02282BD8286878
:100F60008001F7D4D4E907010843A16A2A4A490855
:100F700002EB0141626A41EA8211084394F82C10A5
:100F800040EA0161C9F8001001203866FFF70EFD44
:100F9000044606E036E000BFFFF708FD001B02280C
:100FA00009D828688001F7D52CE000BFFFF7FEFCC8
:100FB000001B022802D90320BDE8F88F28688001B1
:100FC000F4D41FE00128F7D0D9F80000E26900F45A
:100FD0008001914214D1226A00F03F0191420FD169
:100FE00047F6C071626A0140914209D1A26A00F4D9
:100FF0004031914204D1E16A00F07060884201D032
:101000000120D9E70020D7E704380240000047421A
:10101000800E4742007000400000FFFF70B50400E2
:1010200005D00025A56294F8510010B106E001201A
:1010300070BD84F85050204600F030F8022084F84B
:1010400051002068016821F040010160D4E90101EC
:101050000843D4E903121143084361690843218B13
:1010600001F400710843E1690843216A0843A16A59
:10107000084321680860A069042101EA1040616A00
:101080000843216848602068C16921F40061C1619A
:101090006565012084F85100002070BD10B586B050
:1010A000044614216846FFF7C3F8134920688842B4
:1010B00020D112480021026842F480520260006888
:1010C00000F4805005900D481438026842F0010287
:1010D0000260006800F001000590E020009002200E
:1010E000CDE90101032003900520049069460448DE
:1010F000FFF77AFB06B010BD0030014044380240D3
:101100000000024010B5401EB0F1807F01D30120E5
:1011100010BD4FF0E02460610F21601700F0B3FFB5
:101120000020A06107202061002010BD704770479B
:1011300070B590F83C20012A32D0012480F83C4060
:10114000022280F83D2003685A689D6822F07006EC
:101150000A6832435A60134B02689A4214D0B2F1C3
:10116000804F11D0104B9A420ED0104B9A420BD0A8
:101170000F4B9A4208D00F4B9A4205D00E4B9A4221
:1011800002D00E4B9A4204D1496825F080031943DE
:10119000916080F83D40002180F83C10084670BD09
:1011A000022070BD00000140000400400008004023
:1011B000000C0040000401400040014000180040C5
:1011C00010B5040003D094F83D0010B107E00120F1
:1011D00010BD002084F83C00204600F00DF80220ED
:1011E00084F83D00211D206800F0EAFD012084F80C
:1011F0003D00002010BD000008B500680649884287
:1012000008D10648016841F020010160006800F043
:101210002000009008BD000000140040403802404B
:10122000022180F83D1001688A6802F00702062A50
:1012300003D00A6842F001020A60012180F83D10E3
:1012400000207047022180F83D1001680A6A41F2CF
:1012500011131A4207D10A6A9B101A4203D10A6875
:1012600022F001020A60012180F83D100020704741
:1012700010B504210F4800F0EAF981B20E4840F69B
:10128000020300224180994203D901234370027076
:1012900001E043784BB1094C037824F813105B1C30
:1012A000D9B201700A2900D3427002480068426234
:1012B00010BD0000E800002024000020680100208C
:1012C0002DE9F041044690F83C000D4601283DD040
:1012D000012684F83C60022084F83D00AAB3042A69
:1012E00046D02068082A55D0D5E90027E968036A66
:1012F00023F480530362D0F81CC0036A2CF4407CB2
:101300004CEA07274FF6FF7C27F470470CEA0131BF
:1013100039434FF4204723F4204307EA02321A43AB
:10132000C16102622068C16921F44061C161206825
:10133000C169AA6841EA0221C0F81C1084F83D6026
:10134000002084F83C00BDE8F08101E00220FAE7CB
:10135000D5E90012EB68206800F0A4FD20688169DF
:1013600021F00C01816120688169AA6811430FE0B6
:10137000D5E90012EB68206800F0D4FD206881698F
:1013800021F44061816120688169AA6841EA0221F3
:101390008161D3E7D5E9002C2F7B016A21F48071AC
:1013A0000162C169036A21F0030141EA0C0121F0E5
:1013B000F00C39074FF420674CEA116123F42063E5
:1013C00007EA02221A43C16102622068C16921F062
:1013D0000C01C1612068C169AA681143ACE710B56E
:1013E000040003D094F83D0010B107E0012010BDC7
:1013F000002084F83C00204600F00CF8022084F81D
:101400003D00211D206800F0DBFC012084F83D0038
:10141000002010BD10B586B0044614216846FEF7C2
:1014200007FF17492068884227D116480021026823
:1014300042F480320260006800F480300590114868
:101440001438026842F001020260006800F00100F6
:101450000590082000900220CDE901010320CDE98C
:10146000031069460848FFF7BFF90022114618200B
:10147000FFF70AFB1820FFF7F9FA06B010BD0000CD
:1014800000400140443802400000024010B50268AC
:10149000044631B1042908D008291AD00C2908D1F2
:1014A0001BE0D06840F0020002E0D06840F0040089
:1014B000D0600122206800F0E7FC2068816801F01C
:1014C0000701062903D0016841F0010101600020F5
:1014D00010BDD06840F00800EAE7D06840F0100086
:1014E000E6E770B50446006801694FF00005C9439E
:1014F000890715D4C168C943890711D4E91E016160
:1015000001202077206880698007204602D0FFF7FD
:10151000AFFE04E000F098F8204600F096F825773A
:1015200020680169C943490717D4C168C9434907FD
:1015300013D46FF0040101610220207720688069D4
:1015400010F4407F204602D0FFF792FE04E000F046
:101550007BF8204600F079F8257720680169C943B7
:10156000090716D4C168C943090712D46FF00801EE
:101570000161042020772068C0698007204602D0DE
:10158000FFF776FE04E000F05FF8204600F05DF81B
:10159000257720680169C943C90617D4C168C943C2
:1015A000C90613D46FF0100101610820207720686C
:1015B000C06910F4407F204602D0FFF759FE04E0D6
:1015C00000F042F8204600F040F8257720680169D5
:1015D000C943C90708D1C168C943C90704D1891ED5
:1015E0000161204600F032F820680169C94309060C
:1015F00009D4C168C943090605D46FF080010161AF
:101600002046FFF793FD20680169C943490609D4C4
:10161000C168C943490605D46FF040010161204605
:1016200000F02AF820680169C94389060BD4C16813
:10163000C943890607D46FF0200101612046BDE847
:101640007040FFF774BD70BD704770477047024629
:10165000002041B1042909D008290AD00C2901D160
:101660001068006C70471068406B70471068806BA2
:1016700070471068C06B7047704770B5040004D0A5
:1016800094F83900002510B106E0012070BD84F8FF
:101690003850204600F022F8242084F839002068D1
:1016A000C16821F40051C160204600F057FC206859
:1016B000016921F4904101612068416921F02A010A
:1016C00041612068C16841F40051C160E563202098
:1016D00084F8390084F83A00002070BD10B586B057
:1016E000044614216846FEF7A3FD1349206888428A
:1016F0001FD11248016841F400210160006800F424
:10170000002005900D481038016841F0010101608A
:101710000068022100F0010005900320CDE90001DE
:101720000121CDE902100820049069460448FFF722
:101730005BF806B010BD0000004C0040403802408D
:1017400000000240FEE700002DE9F04186B01421C0
:101750006846FEF76DFD27484FF00008016841F02C
:1017600080010160016801F080010591016841F08C
:1017700004010160016801F004010591016841F074
:1017800001010160016801F001010591016841F06A
:10179000020101600068184E00F00200059001226D
:1017A00004213046FFF7FCF8144F01224FF430714A
:1017B0003846FFF7F5F801240420CDE9000402259E
:1017C00069463046CDE90245FFF70EF8C020CDE965
:1017D000000469463846CDE90245FFF705F8600286
:1017E00003958DE8110169463846FEF7FDFF06B006
:1017F000BDE8F08130380240000802400004024099
:10180000104810B50E4901604FF48271416000210B
:1018100002228160C0E90312012242615202826108
:101820003022C0E90721416281620A21C162FFF7CB
:10183000F5FB002803D0BDE81040FEF7D3BF10BD74
:1018400000300140500000201CB500240E480094D8
:101850000C4901940160A721C0E9011401218461B0
:10186000C160FFF7ADFC08B1FEF7BCFF009469460C
:1018700005480194FFF75CFC002801D0FEF7B2FF99
:101880001CBD000000140040A80000201FB500246B
:101890001348009401940294104903940160A72115
:1018A000C0E901144FF6FF71C0E903148021816182
:1018B000FFF795FD08B1FEF795FF0220009001208B
:1018C000CDE901040422694605480394FFF7F8FCBA
:1018D000002801D0FEF786FF1FBD00000040014038
:1018E000E80000200C4810B50A4901604FF4964109
:1018F0004160002181600C22C160C0E90412816155
:10190000C161FFF7BAFE002803D0BDE81040FEF722
:1019100069BF10BD004C004028010020FEE7704761
:1019200002460521002000F010B810B500F0CDF8F7
:10193000322000F039F80120FFF7F2FF002010BD3F
:10194000024607210020AFF3008008B50B46009245
:1019500002464021002000F0B1FC002008BDB1F596
:10196000805F01D340F6FF710A460021AFF300808B
:101970001CB506238DF80410090A8DF805108DF8A2
:101980000620110A03EB80008DF80710C0B201A9F0
:101990000246009104234021002000F066FC00284C
:1019A00000D001201CBD000010B540F2F651884265
:1019B00001D303242EE0182801D8FF242AE0FEF7E3
:1019C000CAFD9FED1D1B53EC112BFEF7E3FC41EC10
:1019D000100B53EC102B9FED1A0B51EC100BFEF774
:1019E0004BFD9FED191B53EC112BFEF7CDFCFEF7C1
:1019F000EBFDFEF7D6FD9FED161B53EC112BFEF70A
:101A000022FC41EC100B00F04FFB51EC100BFEF7E9
:101A1000AFFDC4B2012000F053F82346FE2240215E
:101A2000002000F068FC002000F04AF80120FFF7D9
:101A300087FF002010BD0000000000000000B04043
:101A40000000000084D77741000000000000F03F54
:101A5000000000000000E03F10B5044610EE100A40
:101A6000FEF79FFD9FED101B53EC112BFEF792FC30
:101A70009FED0F1B53EC112BFEF7FEFC9FED0E1B91
:101A800053EC112BFEF7DFFBFEF79EFD00EE100A74
:101A90000022BCEEC00A10EE100A81B22046BDE85A
:101AA0001040FFF75CBF00000000000000607840BD
:101AB00000000000008066400000000000805B40E5
:101AC000024604210020FFF740BF10B50022062384
:101AD0004021104600F00FFC002800D0012010BD6E
:101AE0007047000070B50B4C0025C4F8985204F5FF
:101AF000267400F073F86560012000F07BFB012084
:101B0000206000F077FB2560BDE87040012000F008
:101B100071BB00000080404270B50B4C0025C4F83A
:101B2000985204F5267400F059F801266660304694
:101B300000F060FB2660012000F05CFB2560BDE842
:101B40007040012000F056BB008040422DE9F04774
:101B5000164D002481462746C5F89842012000F022
:101B600049FB00F025F800264FF00108C5F89872EF
:101B7000012000F03FFBC5F898826006040ED5F8FE
:101B80001C0208B1641CE4B2012000F033FB761C97
:101B9000F6B2082EEAD3B9F1000F04D0FFF7A2FF86
:101BA0002046BDE8F087FFF7B7FFF9E70080404225
:101BB00000B585B014216846FEF73AFB80200090FE
:101BC0000020019002900220039069460248FEF72F
:101BD0000BFE05B000BD00000004024000B585B05A
:101BE00014216846FEF724FB80200090012001901C
:101BF000002002900220039069460248FEF7F4FD9F
:101C000005B000BD000402402DE9F0410646FFF793
:101C1000E5FF104C0027C4F89872012000F0EAFAA2
:101C200000254FF00108F009C4F89C027006060E6A
:101C3000C4F89882012000F0DDFAC4F898720120FF
:101C400000F0D8FA6D1CEDB2082DECD3C4F89872F0
:101C5000BDE8F0810080404270B5FFF7BFFF0B4C3C
:101C60000025C4F89852C4F89C52012004F526744B
:101C700000F0C0FA01206060206000F0BBFA6560EF
:101C8000012000F0B7FA256070BD000000804042DE
:101C900070B50D4C0025C4F8985204F52674FFF772
:101CA0009DFF012000F0A6FA65602560012000F08C
:101CB000A1FA01262660304600F09CFA66600120F9
:101CC00000F098FA256070BD0080404270B50E4D5E
:101CD00000242646C5F89842FFF76AFF012000F06D
:101CE00089FA0120C5F8980207E0641CE4B2FA2CD6
:101CF00003D9FFF7CDFF012070BDD5F81C020028E5
:101D0000F3D1C5F8986270BD008040427047FEF77D
:101D100053BE000030B593B030216846FEF788FA14
:101D200014210CA8FEF784FA19480025016841F037
:101D300080510160006800F08050119015480168E2
:101D400041F4804101600068022400F48040119059
:101D500001200090000401908001CDE9064004209C
:101D60000890A820CDE9090403200B906846FEF7EF
:101D7000A7FF0CA90F2081E831004FF4A0500F906D
:101D8000E002109005210CA8FEF7B0FE13B030BDA4
:101D900040380240007000400548016841F470017D
:101DA000016003494FF0006080390860704700000F
:101DB00088ED00E00148FFF794BB0000E800002038
:101DC000F0B50268254C264D264E274F274B4FF085
:101DD000804CA04209D0604507D0A84205D0B0424F
:101DE00003D0B84201D0984204D122F0700E4A6864
:101DF00042EA0E02A0421BD0604519D0A84217D07B
:101E0000B04215D0B84213D0984211D0184DA84214
:101E10000ED0184DA8420BD0174DA84208D0174D30
:101E2000A84205D0164DA84202D0164DA84203D1B3
:101E300022F44075CA682A434D6922F080022A4381
:101E400002608A68C2620A688262A04201D0984237
:101E500001D10969016301214161F0BD0000014028
:101E60000004004000080040000C00400004014055
:101E7000004001400044014000480140001800407B
:101E8000001C00400020004010B501F01F0301219C
:101E9000046A99408C430462016A9A4011430162CA
:101EA00010BD000070B5046A24F001040462846966
:101EB000056A154EB04214D0B0F1804F11D0134EC8
:101EC000B0420ED0124EB0420BD0124EB04208D0EB
:101ED000114EB04205D0114EB04202D0104EB04269
:101EE00003D124F00304144301E044F001041A0771
:101EF00024F0F00444EA126225F00A0301F00A011A
:101F000019438261016270BD00000140000400407D
:101F100000080040000C0040000401400040014067
:101F20000018004030B5046A24F01004046284698B
:101F3000056A24F4407444EA022222F470444FF605
:101F4000FF7202EA03322243A02425F0A00304EA30
:101F5000011119438261016230BD00002DE9F04199
:101F6000044600680169E26821F4405111430161AF
:101F70002169A068E2690843616911430843216847
:101F8000CA6849F20C639A430243CA6020684169F7
:101F9000A26921F4407111434161E0691927642568
:101FA0003226B0F5004F354A354920684FF0000819
:101FB00006D0884201D0904236D1FEF741FE35E08E
:101FC000884201D0904202D1FEF73AFE01E0FEF7CE
:101FD00027FE61684A18A0FB070148EB0803FEF7DB
:101FE000EFF80146B0FBF5F00201B1FBF5F06FF040
:101FF0001803584301EB800006EBC000B0FBF5F07E
:1020000000F0F80002EB4002B1FBF5F0584301EBA1
:10201000800006EBC000B0FBF5F000F0070021687F
:1020200010448860BDE8F081FEF7FAFD61688B0F0F
:102030008A00A0FB0701FEF7C3F80146B0FBF5F0EC
:102040006FF01802504301EB800006EB0010B0FB6C
:10205000F5F000F0F002B1FBF5F002EB0012B1FB7D
:10206000F5F06FF01803584301EB800006EB001009
:10207000B0FBF5F000F00F00D1E7000000140140C4
:1020800000100140FEE70907090E002804DB00F1FB
:10209000E02080F80014704700F00F0000F1E0200D
:1020A00080F8141D704700002DE9F0412DED020B62
:1020B0009FED3D0B2DED028B9FED3D8BDDE9025435
:1020C000C4F30A50A0F2FF36142E37DA002E18DAC5
:1020D00053EC102B9DED020B51EC100BFEF7B3F8F7
:1020E00053EC182BFEF752FB57D2002CA4BF002450
:1020F000254652DA24F00040284318BF2E4C4CD01D
:102100001AE02E4820FA06F704EA070028431FD0F9
:1021100053EC102B9DED020B51EC100BFEF793F8D6
:1021200053EC182BFEF732FB37D2002C03DA4FF4B6
:102130008010F0400444BC4300252EE0332E07DC21
:10214000A6F114004FF0FF3121FA00F73D4206D10D
:102150009DED020BBDEC028B02B0BDE8F08153ECAB
:10216000102B9DED020B51EC100BFEF710F953EC08
:10217000182BFEF70BFB10D2002C0DDA142E08BF23
:10218000641C09D0C6F13400012101FA00F0284492
:10219000A84238BF641C0546BD43CDE902549DEDFD
:1021A000020BD7E7000000009C7500883CE4377EF6
:1021B00000000000000000000000F0BFFFFF0F0063
:1021C00002E008C8121F08C1002AFAD17047704700
:1021D000002001E001C1121F002AFBD1704700EB73
:1021E0004001C1EBC0104FF6FF7101EAC00000F0E2
:1021F00001B8000070B54FF6FA75281A84B2084885
:10220000FFF70EF8064801684C62006801E0416A79
:102210008CB2AC42FBD3BDE870400148FFF712B866
:10222000A800002070B51D4616460C46FFF714FDA9
:102230006006000EFFF7E8FCFFF748FD3046FFF7A9
:10224000E3FCFFF743FDFFF707FD012000EB44002F
:10225000C0B2FFF7D9FCFFF739FD0020FFF776FC8D
:102260002870FFF715FD012070BD2DE9F0411D46D6
:1022700017460C46069EFFF7EFFC6006000EFFF7C0
:10228000C3FCFFF723FD60B93846FFF7BDFCFFF73D
:102290001DFD00240CE0305DFFF7B6FCFFF716FDD6
:1022A00020B1FFF7F5FC0120BDE8F081641CE4B229
:1022B000AC42F0D3FFF7ECFC0020F5E72DE9F84342
:1022C0001C4616460F4680466B46089DFFF7AAFF40
:1022D00001209DF80010A0400DB1084301E021EA63
:1022E0000000C3B28DF8003032463946404600F057
:1022F00002F8BDE8F88370B51D4616460C46FFF798
:10230000ABFC6006000EFFF77FFCFFF7DFFC50B967
:102310003046FFF779FCFFF7D9FC2846FFF774FC3D
:10232000FFF7D4FC18B1FFF7B3FC012070BDFFF735
:10233000AFFC002070BD0000FEB5002500950195A2
:102340002C466E46CDF80850FFF786FC6006000E5E
:10235000FFF75AFCFFF7BAFC10B974556D1CEDB2CB
:10236000FFF796FC0120FFF73AFF641CE4B27F2CD4
:10237000EAD3FEBD2DED048BFEF726FBFFF7CAFC6A
:10238000FFF7E2F9FFF73CFAFFF75EFAFFF7AAFA68
:10239000FFF77CFAFFF7C9FA9FED508A0020B0EEF4
:1023A000480AFFF759FBB0EE480A0120FFF754FB3B
:1023B000B0EE480A0220FFF74FFBB0EE480A0320B8
:1023C000FFF74AFBFFF7B8FF04214548FFF75EF827
:1023D000444FDFED459A454EDFED458AB3EE099A4D
:1023E0009FED448A444C002007EB4001498800EEF1
:1023F000101A06EB8001401CB8EE400A052830EEAA
:10240000690AC0EE290AC1ED000AEDDBD6ED030A28
:10241000B0EE480A002000EEA80A00BF04EB8001DD
:1024200081ED000A30B1022810D001281AD003280B
:1024300047D023E0D4ED000A96ED011A012041EEC9
:10244000280A70EEC90AC4ED000AE7E72A4A96EDA9
:10245000011A02F10801D2ED020A41EE680A70EE9B
:10246000890A09E0244A96ED001A111DD2ED010AED
:1024700041EE280A70EEC90AC1ED000A401C052889
:10248000CCDB1E4A1E4B9FED1F0A002004EB80018F
:102490000D68954201DC81ED008A0D689D4201DBEB
:1024A00081ED000A401C0528F0DB002504EB8500C7
:1024B00090ED000AE8B2FFF7CFFA6D1C052DF5DBB1
:1024C00091E70D4996ED001A0420D1ED030A41EE83
:1024D000680A70EE890AC1ED030A9FE70000B44262
:1024E000E80000206801002000007A442800002055
:1024F00000004842000082420000002000008242AA
:102500000000E6420000E64200000000000000007B
:102510000102030406070809000000000102030489
:10252000402500080000002028000000C02100080D
:10253000682500082800002058050000D021000868
:102540000000B44200000000000000000000000095
:10255000000000000100000010000000000000006A
:082560000024F400010000005A
:040000050800018965
:00000001FF
