:020000040800F2
:10000000E00400209D010008951B00080B1A000861
:10001000911B0008E7080008AD2000080000000060
:100020000000000000000000000000000D1F00089C
:10003000EB08000800000000971B00080F1F0008D5
:10004000B7010008B7010008B7010008B7010008B0
:10005000B7010008B7010008B7010008B7010008A0
:10006000B7010008B7010008B7010008B701000890
:10007000B7010008B7010008B7010008B701000880
:10008000B7010008B7010008B7010008B701000870
:10009000B7010008B7010008B7010008B701000860
:1000A000B7010008B7010008B7010008B701000850
:1000B000B7010008B7010008B7010008B701000840
:1000C000B7010008B7010008B7010008B701000830
:1000D000B7010008B7010008B7010008B701000820
:1000E000B7010008B7010008B7010008B701000810
:1000F000B7010008B7010008B7010008B701000800
:10010000B7010008B7010008B7010008B7010008EF
:10011000B7010008B7010008B7010008B7010008DF
:10012000B7010008B7010008B7010008B7010008CF
:10013000B70100080000000000000000B70100083F
:10014000B7010008B7010008B7010008B7010008AF
:10015000B7010008B7010008B7010008B70100089F
:10016000B7010008B7010008B7010008B70100088F
:10017000B7010008B70100080000000000000000FF
:10018000B7010008B7010008DFF80CD000F048FB09
:100190000048004709350008E00400200648804771
:1001A00006480047FEE7FEE7FEE7FEE7FEE7FEE75C
:1001B000FEE7FEE7FEE7FEE7B91F00088901000839
:1001C0002DE9F05F0546002092469B46884606468C
:1001D000814640241BE0284641464746224600F01F
:1001E00029FA53465A46C01A914110D3114618466F
:1001F000224600F010FA2D1A67EB01084F462246FE
:100200000120002100F007FA17EB00094E41201EE3
:10021000A4F10104DFDC484631462A464346BDE8E6
:10022000F09F2DE9F0410024061B254671F10006E0
:1002300005DA01240027D0EB070067EB0101161E49
:1002400073F1000605DA0027D2EB0702012567EB00
:100250000303FFF7B5FF86460E4617469C46AC42A1
:1002600004D00025D0EB050E65EB010624B100207B
:10027000D2EB000760EB030C704631463A4663460A
:10028000BDE8F081D2B201E000F8012B491EFBD29B
:1002900070470022F6E710B513460A460446194691
:1002A000FFF7F0FF204610BD2DE9FE4F804681EAA2
:1002B0000300C00F0C46009021F0004123F00045E0
:1002C000B8EB0200A94105D24046214690461C46A3
:1002D0000B46024623F00040104347D0270DC7F3DA
:1002E0000A00C3F30A510290401A019040286BDAC9
:1002F000C3F3130040F4801B0098924620B1002302
:10030000D2EB030A63EB0B0B01985946C0F1400294
:10031000504600F080F906460D4650465946019A6F
:1003200000F098F910EB08006141002487EA1152AF
:1003300084EAE7731A4340D0009A62B3019A012A13
:100340004FEA075215DC001B61EB02014FF000423F
:1003500002EA0752CDE90042001C41F58011324605
:100360002B4600F0CFF903B0BDE8F08F40462146A0
:10037000F9E7001B61EB0201001C41F58013001836
:100380005B412018A2F5001747EB030140EAD57046
:10039000B6196D4111E06D084FEA360645EAC075A1
:1003A0004FEA0752001B61EB0201001C41F580116E
:1003B00049084FEA30000019514132462B4603B03C
:1003C000BDE8F04F00F08FB90098012240000023F3
:1003D000D0EB020263EBE073009821464FEAE07431
:1003E000B8EB000061EB0401E9E783F000435BE751
:1003F00081F0004158E72DE9FE4F81EA030404F043
:10040000004421F0004100944FF0000B23F0004322
:1004100050EA01045ED052EA03045BD0C3F30A54ED
:10042000C1F30A552C44A4F2F3340194A0FB025406
:10043000C1F3130141F48011C3F3130343F4801398
:1004400001FB024400FB034E840A970A44EA8154EC
:1004500047EA8357A4FB076802958D0A05FB0785C9
:100460004FEA932C04FB0C542705029D4FEA0658D3
:1004700047EA1637B5EB08056EEB070C870E920EB0
:1004800047EA811742EA8312A7FB0201B6EB0B0190
:1004900064EB00042B0D43EA0C335E1844EB1C5054
:1004A000DA465146E7FB0201C5F313044FEA0B336A
:1004B00043EA14534FEA0432019C43EA0603A4F1D1
:1004C0000C040294009CCDE900B400F01BF903B0C9
:1004D000BDE8F08F00200146F9E72DE9F04D81EAF3
:1004E000030404F0004B21F0004514464FF0000ACD
:1004F00023F0004150EA050220D054EA01021DD049
:10050000C5F30A570246C5F31303C1F31300C1F341
:100510000A5640F4801543F48013A7EB0608101B1D
:10052000D64608F2FD3873EB050002D308F1010846
:1005300001E092185B41B8F1000F03DA0020014698
:10054000BDE8F08D00204FF48011064684460EE091
:10055000171B73EB050705D3121B63EB050306435B
:100560004CEA010C49084FEA300092185B4150EA0E
:100570000107EDD152EA030012D082EA040083EAB7
:100580000501084305D0101BAB4106D20122002310
:1005900006E000224FF0004302E06FF0010253102A
:1005A0001AEB06004CEB085110EB0A0041EB0B0173
:1005B000BDE8F04D00F097B800F0004230F0004088
:1005C0000AD0C10D01F56071C0F3160042EA015175
:1005D000C20840071143704700200146704701F0F0
:1005E000004330B421F0004150EA010206D00A0D68
:1005F000A2F56072C1F31301002A02DC30BC0020B6
:100600007047440F44EAC104C100E01830BC00EB5D
:10061000C25000F031B8202A04DB203A00FA02F17F
:10062000002070479140C2F1200320FA03F31943E0
:1006300090407047202A04DB203A21FA02F0002182
:10064000704721FA02F3D040C2F1200291400843E2
:1006500019467047202A06DBCB17203A41FA02F0F0
:1006600043EAE07306E041FA02F3D040C2F120020F
:1006700091400843194670470029A8BF7047401CA5
:10068000490008BF20F00100704710B4B0FA80FCA8
:1006900000FA0CF050EA010404BF10BC704749B1E5
:1006A000CCF1200421FA04F411FA0CF118BF012155
:1006B00021430843A3EB0C01CB1D4FEA00614FEA35
:1006C000102042BF002010BC704700EBC350104404
:1006D0000029A4BF10BC7047401C490008BF20F08F
:1006E000010010BC704710B5141E73F1000408DA45
:1006F000401C41F1000192185B411A4301D120F0E6
:10070000010010BD2DE9F04D92469B4611B1B1FAA2
:1007100081F202E0B0FA80F220329046FFF77BFFD0
:1007200004460F4640EA0A0041EA0B0153465A4686
:10073000084313D0114653EA010019D0C8F1400212
:100740005046FFF777FF05460E465046594642464B
:10075000FFF761FF084305D0012004E02046394639
:10076000BDE8F08D0020054346EAE0762C43374390
:100770000A986305E40AA0EB08000022FD0A44EA97
:1007800047540A3002D500200146E9E70105101957
:100790006941DDE9084500196941BDE8F04DA2E76E
:1007A00070B521F0004303430CD0C1F30A55002477
:1007B000D5EB040564EB0403D617AD1AB34102DB95
:1007C0000020014670BD201841EB025170BD0EB5EE
:1007D000C10F80EAE0700844CA07002140F23343A9
:1007E0008DE80E000A460B46FFF78CFF03B000BDF4
:1007F00030B5041E71F1000404DB4FF000444042A8
:1008000064EB0101141E73F1000405DB1C464FF07C
:100810000043524263EB0403994208BF904230BD4B
:10082000064C074D06E0E06840F0010394E807003D
:1008300098471034AC42F6D3FFF7AAFCD83700082B
:10084000F83700082DE9F04D00231A461B1A8A419B
:1008500003DB00200146BDE8F08DC1F30A52C1F36D
:10086000130141F480154FF0000BD10702D100189D
:100870006D41521E0027044640F2FF11384601EB3D
:10088000620A3E468046024600204FF48011FFF780
:10089000D1FEC2197141BB1846EB0100B4EB030C49
:1008A00075EB000C04D3E41A65EB000517460E4601
:1008B000241908F101006D4180463428E3DDF9195F
:1008C00046EB0600091BA84103D24FF0FF32134646
:1008D00001E0002213461BEB070046EB0A51BDE87E
:1008E000F04DFFF700BF00BFFEE770477047000004
:1008F00070B5044600F016F906462546681C10B18E
:1009000004480078054400BF00F00CF9801BA842A1
:10091000FAD370BD10000020F8B502460B46002542
:10092000002400200021DCE0012606FA01F51E6803
:1009300006EA0504AC4273D15E68012E08D05E68F9
:10094000022E05D05E68112E02D05E68122E13D1E1
:1009500090684F000326BE40B0434F00DE68BE40A3
:1009600030439060506801268E40B0431E79C6F334
:1009700000168E4030435060D0684F000326BE40C2
:10098000B0434F009E68BE403043D0605E68022E88
:1009900002D05E68122E13D1CF0802F1200656F85D
:1009A00027004E07F70E0F26BE40B0434F07FF0E3D
:1009B0001E69BE403043CF0802F1200646F82700EA
:1009C00010684F000326BE40B0431E7906F00306B0
:1009D0004F00BE40304310605E6806F08056B6F1AE
:1009E000805F7DD100BF00260096404E366846F4F9
:1009F00080463E4F3E603E46366806F4804600968E
:100A000000BF00BF3A4E8F0856F827008E07370FF9
:100A10000F26BE40B043374EB24202D1002624E03A
:100A20005EE0354EB24201D101261EE0334EB242A5
:100A300001D1022619E0324EB24201D1032614E060
:100A4000304EB24201D104260FE02F4EB24201D106
:100A500005260AE02D4EB24201D1062605E02C4EB5
:100A6000B24201D1072600E008268F073F0FBE40A3
:100A700030431F4E8F0846F82700264E3068A043AB
:100A80005E6806F48036B6F5803F00D12043214EE3
:100A90003060361D3068A0435E6806F40036B6F557
:100AA000003F00D120431B4E361D3060361D30689C
:100AB000A0435E6806F48016B6F5801F00D120437F
:100AC000144E08363060361D3068A0435E6806F468
:100AD0000016B6F5001F00D120430E4E0C363060D4
:100AE000491C1029FFF420AFF8BD00004438024033
:100AF00008380140000002400004024000080240A3
:100B0000000C024000100240001402400018024095
:100B1000001C0240003C01400AB1816101E00B046D
:100B2000836170470148006870470000080000209A
:100B30000348006803490978084401490860704780
:100B4000080000201000002010B50D48006840F497
:100B500000700B4908600846006840F48060086037
:100B60000846006840F480700860032000F092F8A6
:100B7000002000F007F800F02BF8002010BD000066
:100B8000003C024070B504460E4800784FF47A717C
:100B9000B1FBF0F00C490968B1FBF0F5284600F014
:100BA0005BFE08B1012070BD102C07D20022214647
:100BB000501E00F031F80548046001E00120F2E722
:100BC0000020F0E710000020140000200C0000209E
:100BD00008B500BF002000900E48006840F4804037
:100BE0000C4908600846006800F48040009000BF8F
:100BF00000BF00BF00200090081F006840F0805038
:100C0000091F08600846006800F08050009000BF8F
:100C100000BF08BD443802402DE9F05F80460D4614
:100C20001646002701F05CFA074639462A46334645
:100C300001F00700C0F1070ABAF1040F02D94FF022
:100C4000040A01E0C0F1070AD14600F1040ABAF132
:100C5000070F02D24FF0000A01E0A0F1030AD446C8
:100C60004FF0010A0AFA09FAAAF1010A0AEA020A8D
:100C70000AFA0CFA4FF0010B0BFA0CFBABF1010B6B
:100C80000BEA030B4AEA0B042146404601F030FA16
:100C9000BDE8F09F00BF00F00702064B19684FF651
:100CA000FF031940044B0B4343EA0221014B196037
:100CB00000BF70470CED00E00000FA0570B5044677
:100CC0000D460CB9012070BD5848006800F00F00B7
:100CD000A84209D255490D700846006800F00F007F
:100CE000A84201D00120EEE7207800F0020002289F
:100CF0001DD1207800F00400042805D14C4800687C
:100D000040F4E0504A490860207800F008000828C4
:100D100005D14748006840F46040454908604448B0
:100D2000006820F0F000A16808434149086020787D
:100D300000F00100A8B36068012807D13C480838DA
:100D40000068C0F34040B8B90120BCE760680228E1
:100D500002D06068032807D1354808380068C0F31E
:100D6000406048B90120AEE7314808380068C0F358
:100D7000400008B90120A6E72D48006820F00300D4
:100D8000616808432A490860FFF7CCFE064609E07F
:100D9000FFF7C8FE801B41F28831884202D9032048
:100DA00091E707E02248006800F00C006168B0EBB2
:100DB000810FEDD11D48006800F00F00A84209D94D
:100DC0001A490D700846006800F00F00A84201D0D3
:100DD000012078E7207800F00400042807D11448A7
:100DE000006820F4E050E168084311490860207869
:100DF00000F00800082808D10D48006820F4604081
:100E0000216940EAC1000A49086000F019F8084960
:100E10000968C1F30311074A515CC84006490860DC
:100E200006480068FFF7AEFE00204CE7003C024099
:100E3000083802402A370008140000200C00002067
:100E40002DE9F047002400250026A146254800682A
:100E500000F00C0020B1042805D008283AD105E0A4
:100E6000DFF8849039E0DFF8849036E01D48001FF9
:100E7000006800F03F041B48001F006800F4800079
:100E800078B11A481749091F0968C1F38811A0FBF6
:100E900001700146224600233846FFF791F90546C6
:100EA0000EE011480F49091F0968C1F38811A0FB22
:100EB00001700146224600233846FFF781F90546B6
:100EC0000848001F0068C0F30140401C4600B5FB05
:100ED000F6F902E0DFF8109000BF00BF4846BDE819
:100EE000F0870000083802400024F40000127A0065
:100EF000F8B504460CB90120F8BD207800F00100D7
:100F0000002874D0F948006800F00C0004280DD0C7
:100F1000F648006800F00C00082813D1F348001FC1
:100F2000006800F48000B0F5800F0BD1EF4808385E
:100F30000068C0F34040002859D06068002856D1AE
:100F40000120D9E700BF6068B0F5803F08D1E748CD
:100F50000838006840F48030E449083908601EE031
:100F60006068B0F5A02F0DD1E0480838006840F463
:100F70008020DE49083908600846006840F4803067
:100F800008600CE0D9480838006820F48030D74960
:100F9000083908600846006820F48020086000BF17
:100FA000606890B1FFF7BEFD054606E0FFF7BAFDA9
:100FB000401B642801D903209EE7CC48083800680C
:100FC000C0F340400028F1D011E0FFF7ABFD05462B
:100FD00006E0FFF7A7FD401B642801D903208BE73B
:100FE000C24808380068C0F340400028F1D120789A
:100FF00000F0020002285FD1BC48006800F00C003D
:1010000058B1BA48006800F00C0008281CD1B74855
:10101000001F006800F48000B0B9B44808380068C8
:10102000C0F3400020B1E068012801D0012063E74F
:10103000AE480838006820F0F800216940EAC10095
:10104000AA490839086037E0E06800B30120A849E0
:101050000860FFF767FD054606E0FFF763FD401BEC
:10106000022801D9032047E7A04808380068C0F3E8
:1010700040000028F1D09D480838006820F0F800B2
:10108000216940EAC10099490839086014E000204C
:1010900097490860FFF746FD054606E0FFF742FD69
:1010A000401B022801D9032026E790480838006831
:1010B000C0F340000028F1D1207800F00800082893
:1010C0002CD16069A8B101208A490860FFF72AFD88
:1010D000054606E0FFF726FD401B022801D9032044
:1010E0000AE782486C300068C0F340000028F1D065
:1010F00014E000207F490860FFF714FD054606E074
:10110000FFF710FD401B022801D90320F4E67748C1
:101110006C300068C0F340000028F1D1207800F066
:101120000400042870D1002770483830006800F0AF
:10113000805090B900BF002000906C4838300068A3
:1011400040F080506949383108600846006800F076
:101150008050009000BF00BF01276748006800F47E
:101160008070B0B96448006840F4807062490860DB
:10117000FFF7D8FC054606E0FFF7D4FC401B022829
:1011800001D90320B8E65C48006800F480700028AC
:10119000F2D000BFA068012808D154486830006828
:1011A00040F001005149683108601DE0A068052841
:1011B0000DD14E486830006840F004004B4968315A
:1011C00008600846006840F0010008600CE04748ED
:1011D0006830006820F00100444968310860084622
:1011E000006820F00400086000BFA068A8B1FFF705
:1011F00099FC054609E0FFF795FC401B41F2883158
:10120000884202D9032077E626E038486830006833
:10121000C0F340000028EED013E0FFF783FC054642
:1012200008E0FFF77FFC401B41F28831884201D97A
:10123000032061E62D4868300068C0F340000028B4
:10124000EFD1012F07D129483830006820F08050B5
:1012500026493831086000BFA069002845D02348DE
:10126000006800F00C0008285DD0A069022845D174
:1012700000201F490866FFF755FC054606E0FFF70A
:1012800051FC401B022801D9032035E617480838D5
:101290000068C0F340600028F1D1D4E90701084399
:1012A000616A40EA81110122A06AC2EB500041EA62
:1012B00000412C20005D41EA00600C49091F0860D4
:1012C00001200B490866FFF72DFC054606E0FFF7F5
:1012D00029FC401B022801D903200DE603480838E9
:1012E0000068C0F340600028F1D03FE008380240B9
:1012F00000004742800E47420070004000201C4919
:101300000866FFF70FFC054606E0FFF70BFC401BE5
:10131000022801D90320EFE516480068C0F34060B9
:101320000028F2D122E0A069012800D1E4E51148AB
:10133000001D066806F48001E069814214D106F0C0
:101340003F01206A81420FD147F6C0703040616A88
:10135000884209D106F44031A06A814204D106F0E6
:101360007061E06A814201D00120C5E50020C3E53B
:10137000000047420038024010B504460CB9012075
:1013800010BD606A00B900BF0021A16294F851004D
:1013900028B9002084F85000204600F033F80220DD
:1013A00084F851002068006820F04000216808603F
:1013B000D4E901010843E1680843216908436169F0
:1013C0000843218B01F400710843E1690843216A55
:1013D0000843A16A0843216808600421A06901EA62
:1013E0001040616A0843216848602068C06920F4A1
:1013F00000602168C86100206065012084F8510008
:101400000020BDE710B586B00446142101A8FEF700
:1014100040FF1B49206888422FD100BF0020009068
:101420001848006840F48050164908600846006873
:1014300000F48050009000BF00BF00BF002000906B
:1014400010481438006840F001000E491439086053
:101450000846006800F00100009000BF00BFE020D7
:1014600001900220029000200390032004900520A8
:10147000059001A90448FFF74FFA06B010BD00001F
:101480000030014044380240000002402DE9F84F8E
:101490000446884616461D464FF0000A00BF94F8E1
:1014A0005000012802D10220BDE8F88F012084F805
:1014B000500000BFFFF736FB0746B14694F85100D5
:1014C000012802D04FF0020AA7E0B8F1000F00D0C7
:1014D00016B94FF0010AA0E0032084F85100002063
:1014E0006065C4F83080A686E686A063A087E087A2
:1014F00060642064A068B0F5004F05D120680068E2
:1015000040F48040216808602068006800F04000D6
:10151000402805D02068006840F04000216808603D
:10152000E068B0F5006F2FD1606810B1B9F1010F1C
:1015300009D1206B00882168C860206B801C206363
:10154000E08E401EE0861BE02068806800F002000C
:1015500002280AD1206B00882168C860206B801C9B
:101560002063E08E401EE0860AE0FFF7DBFAC01B36
:10157000A84201D3681C00B915B94FF0030A4CE02A
:10158000E08E0028E0D12EE0606810B1B9F1010FC3
:1015900009D1206B007821680873206B401C206300
:1015A000E08E401EE0861BE02068806800F00200AC
:1015B00002280AD1206B007821680873206B401C38
:1015C0002063E08E401EE0860AE0FFF7ABFAC01B06
:1015D000A84201D3681C00B915B94FF0030A1CE0FA
:1015E000E08E0028E0D13A462946204600F004FC6F
:1015F00008B120206065A06850B900BF00200090AD
:101600002068C068009020688068009000BF00BF1C
:10161000606D08B14FF0010A00BF012084F851004D
:1016200000BF002084F8500000BF50463CE72DE981
:10163000FF5F0446884691461D460E9E012002909B
:101640000020019000BF94F85000012803D102202F
:1016500004B0BDE8F09F012084F8500000BFFFF700
:1016600061FA074694F851B060680390AA46BBF14E
:10167000010F0BD00398B0F5827F04D1A06810B998
:10168000BBF1040F02D002200190DBE0B8F1000FA3
:1016900003D0B9F1000F00D015B901200190D1E0BD
:1016A00094F85100042802D0052084F8510000204D
:1016B0006065C4F83890E587A587C4F83080E58672
:1016C000A586206460642068006800F0400040281F
:1016D00005D02068006840F0400021680860E0689C
:1016E000B0F5006F4AD1606810B1BAF1010F09D1AD
:1016F000206B00882168C860206B801C2063E08E0E
:10170000401EE08633E02068806800F00200022876
:1017100010D1E08E70B1029801280BD1206B0088A7
:101720002168C860206B801C2063E08E401EE0862C
:10173000002002902068806800F0010068B1E08F0E
:1017400058B12068C068A16B0880A06B801CA063A2
:10175000E08F401EE08701200290FFF7E3F9C01BF5
:10176000B04204D3701C10B1032001906AE0E08EF7
:101770000028C8D1E08F0028C5D14AE0606810B1C8
:10178000BAF1010F09D1206B007821680873206B32
:10179000401C2063E08E401EE08634E020688068B4
:1017A00000F00200022810D1E08E70B102980128EA
:1017B0000BD1206B007821680873206B401C2063DC
:1017C000E08E401EE086002002902068806800F0D5
:1017D000010068B1E08F58B12068C068A16B087043
:1017E000A06B401CA063E08F401EE08701200290A8
:1017F000FFF798F9C01BB04201D3701C00B916B9AD
:10180000032001901EE0E08E0028C7D1E08F002861
:10181000C4D13A463146204600F0EEFA20B101200C
:101820000190202060650DE0A06850B900BF002045
:1018300000902068C068009020688068009000BF19
:1018400000BF00BF012084F8510000BF002084F8D1
:10185000500000BF0198FBE670B504462546681E9F
:10186000B0F1807F01D301200FE0681E4FF0E0212E
:1018700048610F214FF0FF3000F03AFC00204FF09C
:10188000E021886107200861002070BD30B5024664
:101890000B4600BF92F83C00012801D1022030BD68
:1018A000012082F83C0000BF022082F83D00106851
:1018B00044681068816824F0700418680443106854
:1018C0004460184D1068A8421BD01068B0F1804FDA
:1018D00017D0154D1068A84213D0144D1068A842B7
:1018E0000FD0134D1068A8420BD0124D1068A842BB
:1018F00007D0114D1068A84203D0104D1068A842BF
:1019000005D121F0800158680143106881600120F1
:1019100082F83D0000BF002082F83C0000BF00BFFD
:10192000BDE7000000000140000400400008004046
:10193000000C00400004014000400140001800403D
:1019400010B504460CB9012010BD94F83D0028B92B
:10195000002084F83C00204600F00CF8022084F8B7
:101960003D00211D206800F035FB012084F83D007A
:101970000020E9E708B50A4A016891420FD100BF8B
:10198000002100910749096841F02001054A1160D2
:101990001146096801F02001009100BF00BF08BD99
:1019A00000140040403802400146022081F83D000A
:1019B0000868806800F00702062A05D008680068F9
:1019C00040F001000B681860012081F83D00002004
:1019D00070470146022081F83D0000BF0868006A98
:1019E00041F21112104050B90868006A921010407C
:1019F00028B90868006820F001000A68106000BF7C
:101A0000012081F83D000020704700BFFEE7000084
:101A100000B587B0142102A8FEF73BFC00BF0020F0
:101A200001903448006840F0800032490860084660
:101A3000006800F08000019000BF00BF00BF0020E0
:101A400001900846006840F00400086008460068FD
:101A500000F00400019000BF00BF00BF0020019013
:101A60000846006840F0010008600846006800F081
:101A70000100019000BF00BF00BF00200190084698
:101A8000006840F0020008600846006800F00200AC
:101A9000019000BF00BF0122C4211748FFF73CF8A6
:101AA00001224FF430711548FFF736F8C420029038
:101AB0000120039004900220059002A90E48FEF731
:101AC0002BFF2020029000200390049002A90B48D5
:101AD000FEF722FF4FF430700290012003900020A7
:101AE00004900220059002A90448FEF715FF07B0F4
:101AF00000BD0000303802400008024000040240EF
:101B000010B50F480F4908604FF4827048600021FB
:101B10000C488160C16002210161012141614902DB
:101B200081613021C16100210162416281620A212B
:101B3000C162FFF721FC08B1FEF7D8FE10BD00001E
:101B4000003001402C0000201CB5002000900190C6
:101B50000D480E490860A720486000210B488160AD
:101B60000121C16000218161FFF7EAFE08B1FEF7A3
:101B7000BDFE00200090019069460448FFF786FEF4
:101B800008B1FEF7B3FE1CBD001400408400002025
:101B900000BFFEE77047704710B500200A49086093
:101BA00000F07EF800200949C1F89C0200F010F80E
:101BB00001200549086000F00BF800200349C1F836
:101BC000980200F005F810BD988240420080404223
:101BD00010B5032001F0A0FB10BD000010B50020DF
:101BE0000A49086000F05CF801200949C1F89C022C
:101BF000FFF7EEFF012005490860FFF7E9FF00202D
:101C00000349C1F89802FFF7E3FF10BD98824042F4
:101C10000080404270B5054600240020134908604A
:101C2000FFF7D6FF00F026F8002614E000200F4949
:101C30000860FFF7CDFF01200D49C1F8980260064A
:101C4000040E0A487C38006808B1601CC4B2FFF773
:101C5000BFFF701CC6B2082EE8DB15B9FFF7BEFF48
:101C600001E0FFF799FF204670BD000098824042D6
:101C70000080404200B585B014216846FEF709FB9C
:101C8000802000900020019002900220039069467D
:101C90000248FEF741FE05B000BD0000000402400E
:101CA00000B585B014216846FEF7F3FA8020009055
:101CB0000120019000200290022003906946024812
:101CC000FEF72AFE05B000BD0004024070B50446D0
:101CD000FFF7E6FF00200F490860FFF779FF0025B6
:101CE00012E0E0090B49091D08606006040E01209E
:101CF0000949C1F89802FFF76BFF00200549086009
:101D0000FFF766FF681CC5B2082DEADB0020014919
:101D1000086070BD988240420080404210B5FFF7D5
:101D2000BFFF00200D4908600D49C1F89C02FFF774
:101D30004FFF01200949091D08600949C1F89802AF
:101D4000FFF746FF00200549091D0860FFF740FF27
:101D500000200349C1F8980210BD0000988240425B
:101D60000080404210B500200F490860FFF798FF3F
:101D7000FFF72EFF00200D49C1F89C020A490860B8
:101D8000FFF726FF01200949C1F89802FFF720FF5D
:101D900001200549091D0860FFF71AFF00200349CB
:101DA000C1F8980210BD0000988240420080404275
:101DB00010B5002400200E490860FFF75BFFFFF715
:101DC00007FF01200B49C1F8980207E0601CC4B26C
:101DD000FA2C03DDFFF7C6FF012010BD04487C3854
:101DE00000680028F2D10249086000BFF5E7000052
:101DF00098824042008040427CB504460D4616461B
:101E0000164800681821B0FBF1F01549B0FBF1F05D
:101E10004FF47A71484301906068B0F5827F0DD12C
:101E20002B46002280212046009600F01BF898B136
:101E3000606D40F02000606503207CBD00BF01980C
:101E400000B908E00198401E019020688068C0F346
:101E5000C0100028F3D100BF0020EEE714000020DE
:101E600040420F002DE9F04104460E4617461D463C
:101E7000DDF818803EE0681CD8B3FEF753FEA0EBF7
:101E80000800A84200D2A5BB2068406820F0E0000E
:101E9000216848606068B0F5827F0DD1A068B0F518
:101EA000004F03D0A068B0F5806F05D120680068AE
:101EB00020F0400021680860A06AB0F5005F0DD1F5
:101EC00000BF2068006820F4005021680860206886
:101ED000006840F400502168086000BF012084F8C9
:101EE000510000BF002084F8500000BF0320BDE86F
:101EF000F081FFE7206880683040B04201D10120C6
:101F000000E00020B842B6D10020F0E7704710B5DD
:101F1000FEF70EFE10BD000000B593B0302107A8FB
:101F2000FEF7B7F9142102A8FEF7B3F900BF0020AD
:101F300001901F48006840F080501D490860084625
:101F4000006800F08050019000BF00BF00BF00207B
:101F500001901848006840F480401649086008461F
:101F6000006800F48040019000BF00BF022007908D
:101F700001200A9010200B9000200D9007A8FEF77A
:101F8000B7FF08B1FEF7B2FC0F20029000200390CB
:101F900004904FF4A05005904FF48050069000211B
:101FA00002A8FEF78BFE08B1FEF7A0FC13B000BD3F
:101FB00040380240007000400548006840F470005E
:101FC000034908604FF0006001498039086070479C
:101FD00088ED00E010B50268294B98420ED0B0F1B0
:101FE000804F0BD0274B984208D0274B984205D002
:101FF000264B984202D0264B984203D122F0700221
:102000004B681A431E4B984220D0B0F1804F1DD030
:102010001C4B98421AD01C4B984217D01B4B98422D
:1020200014D01B4B984211D01A4B98420ED01A4B29
:1020300098420BD0194B984208D0194B984205D0C2
:10204000184B984202D0184B984203D122F44072A8
:10205000CB681A4322F080034C6943EA0402026011
:102060008B68C3620B688362054B984202D0084BB1
:10207000984201D10B6903630123436110BD000045
:10208000000001400004004000080040000C004037
:10209000000401400040014000440140004801406C
:1020A00000180040001C00400020004000BFFEE778
:1020B00003B401984100009850EAC12018BF0420E1
:1020C0004A0D18BF40F0010040F2FF72B2EB515FC1
:1020D00008BF40F00200012808BF052002B0704789
:1020E00002480068C0F30220704700000CED00E0D9
:1020F00010B5002804DB0A07130E054A135406E046
:102100000A07140E034A00F00F031B1FD45410BD1E
:1021100000E400E018ED00E02DE9F04D2DED040B9A
:102120002DED0E8B96B0DDE92550279CDDF890A0B3
:1021300025F0004624F00048BAF1000F14BF012139
:10214000002101EB4502FC4953184A1093422AD35F
:10215000002814BF0123002303EB44030B44F74979
:102160008B4220D358EA00019FEDF59B76D0DFF833
:10217000D8B35D4503D1BAF1000F05D188E0BAF1BB
:10218000000F08BF002100D0012101EB450111F52E
:10219000001F08D8002814BF0121002101EB4401D1
:1021A00011F5001F0BD99DED261B9DED240B16B0DC
:1021B000BDEC0E8B04B0BDE8F04D00F069BE002709
:1021C000002DBCBFE149884521DAE1498845A8BF17
:1021D00002271CDAC3451ADCDE4901EB2851142919
:1021E00008DDC1F1340220FA02F101FA02F2824262
:1021F0000DD108E058B9C1F1140228FA02F101FA30
:1022000002F2424503D101F00101C1F1020756EA91
:102210000A0124D1002C22DA002D18BF022F01D090
:10222000012F0AD0022000F07FFE16B0BDEC0E8B0D
:1022300004B0BDE8F04D00F013BE022000F074FEC3
:1022400000F00EFE51EC100B81F0004141EC100B40
:1022500016B0BDEC0E8B04B0BDE8F08D18E09FED1C
:10226000BEAB9FEDBF8B002871D1B848804522D10D
:1022700005F1804010F5801008BFBAF1000F07D0BB
:10228000B3450ADC002CA8BF9DED260BE0DA0DE07B
:10229000B0EE490AF0EE690ADAE7002C06DA9DEDA5
:1022A000260B51EC100B81F000416FE0AE487844F2
:1022B00090ED000BCCE7D8454DD1002C48DA2EB17B
:1022C00086423AD1BAF1000F42D126E0BAF1000FAE
:1022D00013D0022000F028FE00F0F6FD8DED020B79
:1022E0009DED240B8DED000B10EE900A039961F328
:1022F0001E0003909DED020BAAE78DED02AB9DED54
:10230000240B1AEE901A10EE900A8DED000B61F37B
:102310001E0003909DED020B9AE78DED028B9DED63
:10232000240B18EE901A10EE900A8DED000B61F35D
:102330001E0003909DED020B8AE709DA9DED240B48
:1023400051EC190B53EC102BFEF7C7F81EE020E000
:102350009DED240B7CE786421BDAB4F1804F0DD053
:10236000A4F10050B0F1FF5013D1002D11DB9DED11
:10237000240B51EC100B01F0A1F907E09DED240BAB
:1023800053EC102B51EC100B00F0C2BC41EC100BC5
:102390005EE79DED240B51EC100B00F0D9FFBAF174
:1023A000000FCDE90E0142D19FED710B46B3A6F1AE
:1023B000E040B0F17F600CD05E4538D1002D00DAEE
:1023C000A7B3022F0CBF01204FF0FF30FEF7FFF93B
:1023D000DCE7002D01DD002C0DDA002D01DD002CE5
:1023E0001FDB002D16DA002C14DB012F08BF9FED38
:1023F000620B3FF42DAFB0EE4A0AF0EE6A0A27E70F
:10240000022F18BF002D0CD0012F0AD1002DFFF68E
:102410001FAF06E0002DB8BF002C08DA012F3FF4F3
:1024200017AFB0EE480AF0EE680A11E71BE0012092
:1024300000EBE57050EA070115D0791EB0EE498A2D
:10244000F0EE698A084308BF9FED4D8B4E4800258A
:10245000804570DD4D494E48884514DDB0420DDBA6
:10246000002C19DB2FE0012000F05EFD16B0BDEC62
:102470000E8B04B0BDE8F04D00F016BDB34502DC94
:10248000002C09DC1FE0864202DA002C1BDA03E094
:102490005E452BDD002C16DD022000F045FD00F02E
:1024A00013FD8DED020B53EC1A2B51EC180BFDF7BD
:1024B000A2FFCDE900010399019861F31E0003908A
:1024C0009DED020BC4E6022000F02EFD00F00CFD95
:1024D00010EE901A18EE900A8DED020B8DED008B28
:1024E00061F31E0003909DED020BB1E69DED0E0B16
:1024F00053EC192B51EC100BFDF777FF9FED260BDA
:10250000CDE9080153EC102B9DED080B51EC100B9D
:10251000FDF771FF9FED221B53EC112BFDF768FFB8
:102520009DED081B53EC112BFDF765FF9FED1E1B66
:1025300053EC112B3CE08CE0FFFF1F00FFFF0F006E
:10254000000000000000F03F0000F03F0000F07FBE
:102550000000404301FCFFFF000000000000F07F8E
:1025600000000000000000001E1500000000000038
:102570000000000000000080000000000000F0FFEC
:10258000000000000000F0BF0000E0410000F04348
:10259000FFFFEF3F00000000000000000000D03F00
:1025A000555555555555D53F000000000000E03FFA
:1025B000FDF71EFF9DED080B41EC1A0B53EC102BA1
:1025C00051EC100BFDF717FF53EC1A2BFDF713FF1F
:1025D00041EC1A0B9FEDFE0B53EC102B9DED080BFD
:1025E00051EC100BFDF707FF41EC1B0B9FEDFA0BB5
:1025F00051EC1A0B53EC102BFDF7FDFE41EC1A0BBE
:102600009FEDF70B53EC102B9DED080B51EC100BCD
:10261000FDF7F1FE53EC1A2BFDF7E7FE41EC1A0B28
:1026200051EC1B0B53EC1A2BFDF73EFE0690CDE947
:1026300006519DED060B53EC1B2B51EC100BFDF7D7
:10264000D4FE53EC1A2BFDF7D3FE41EC100B00F037
:10265000A1B90020B6F5801F0EDA9FEDE30B53EC15
:10266000102B9DED0E0B51EC100BFDF7C4FECDE9C8
:102670000E016FF034000E4600EB2650A0F2FF373B
:10268000C6F31300DA4940F07F6646F040568842B0
:10269000D8BF002408DDD7498142C8BF012403DC2C
:1026A0000024A6F580167F1CD348784400EBC400B4
:1026B0000F9690ED00CB9DED0E0B53EC1C2B51ECC7
:1026C000100BFDF792FE9DED0E0B41EC1B0B53EC36
:1026D0001C2B51EC100BFDF7E7FD41EC100B51ECFE
:1026E000190B53EC102BFDF7F8FE41EC1D0B51ECD0
:1026F0001B0B53EC1D2BFDF77EFE41EC1A0BBF4864
:102700008DED10AB7844109590ED000B4FF000501C
:1027100040EA660000EB84408DED080B00F50020D8
:1027200009909DED080B53EC1C2B51EC100BFDF7A1
:102730005CFE9DED0E1B53EC112BFDF759FE41EC99
:10274000100B53EC102B9DED100B51EC100BFDF703
:1027500052FE9DED080B41EC1C0B53EC102B9DED34
:10276000100B51EC100BFDF746FE53EC1B2BFDF745
:102770003FFE53EC1C2BFDF738FE53EC1D2BFDF7F1
:102780003AFE41EC1C0B53EC1A2B51EC1A0BFDF7E3
:1027900032FE41EC1B0B9A480621B0EE4B0AF0EEDC
:1027A0006B0A784400F0E0FAB0EE401AF0EE601ADE
:1027B000B0EE41DAF0EE61DA53EC1B2B51EC1B0B5F
:1027C000FDF719FE53EC1D2BFDF715FE9DED100BCB
:1027D00041EC1B0B53EC1A2B51EC100BFDF764FD75
:1027E00053EC1C2BFDF707FE53EC1B2BFDF75CFD98
:1027F0009DED100B41EC1B0B53EC102B51EC100B0F
:10280000FDF7F9FD41EC1D0B9FED7FEB53EC1E2B0B
:10281000FDF74AFD53EC1B2BFDF746FD0890CDE973
:1028200008519DED080B53EC1E2B51EC100BFDF7DE
:10283000DCFD53EC1D2BFDF7D8FD53EC1B2BFDF7F6
:10284000D7FD9DED080B41EC1D0B53EC102B9DEDBE
:10285000100B51EC100BFDF7CEFD41EC1B0B53ECB4
:102860001A2B51EC1D0BFDF7C6FD9DED080B41EC3D
:102870001A0B53EC102B51EC1C0BFDF7BCFD53EC69
:102880001A2BFDF711FD41EC1A0B51EC1B0B53EC0D
:102890001A2BFDF709FD0C90CDE90C519DED0C0BA9
:1028A00053EC1B2B51EC100BFDF79FFD53EC1A2B37
:1028B000FDF79EFD41EC1B0B9FED550B53EC102BD0
:1028C0009DED0C0B51EC100BFDF795FD41EC1A0B37
:1028D0009FED510B51EC1B0B53EC102BFDF78BFDB7
:1028E00041EC1B0B9FED4E0B53EC102B9DED0C0B95
:1028F00051EC100BFDF77FFD53EC1B2BFDF7D4FCC7
:1029000041EC100B4848784400EBC40090ED001BEC
:1029100051EC100B53EC112BFDF7C6FC41EC1B0BDB
:102920003846FDF754FFCDE9080153EC1B2B51EC61
:102930001A0BFDF7B9FC41EC100B3C48784400EB56
:10294000C40090ED00CB51EC100B53EC1C2BFDF7A9
:10295000ABFC9DED081B53EC112BFDF7A5FC06907D
:10296000CDE906519DED080B53EC102B9DED060BA8
:1029700051EC100BFDF739FD53EC1C2BFDF735FD29
:1029800053EC1A2BFDF731FD53EC1B2BFDF730FDFB
:1029900041EC100B9DED261B53EC102B8DED001B15
:1029A00000959DED260B51EC100BFDF724FD9DEDE0
:1029B000000B41EC1A0B53EC102B9DED260B51EC48
:1029C000100BFDF712FD9DED061B53EC112B2FE0B4
:1029D000000000604715F73FFE822B654715F73F63
:1029E00044DF5DF80BAE543E0000000000004043A1
:1029F0008E9803007AB60B009A100000C8100000F1
:102A0000D20F00000000000000000000000008409D
:102A1000000000E009C7EE3FFD033ADC09C7EE3FC6
:102A2000F5015B14E02F3EBE5E0E0000180E0000A4
:102A3000FDF7E1FC53EC1A2BFDF736FC9DED060B80
:102A400041EC1A0B53EC102B9DED000B51EC100BCD
:102A5000FDF7D1FCCDE90C019DED0C0B51EC1A0BEF
:102A600053EC102BFDF720FCCDE902010C46AA49DE
:102A70008C422FDB611A084318D19DED0C0B53ECEF
:102A8000102B9DED020B51EC100BFDF7AEFC41EC51
:102A90001B0B9FEDA30B51EC1A0B53EC102BFDF706
:102AA00003FC53EC1B2BFDF7A3FE2DD2022000F0FC
:102AB0003BFA00F009FA10EE901A18EE900A8DED2C
:102AC000020B8DED008B61F31E0003909DED020B58
:102AD000FFF7BEBB944A24F00041914214D39349BE
:102AE000214408437FF4EFAC9DED0C0B53EC102B0D
:102AF0009DED020B51EC100BFDF777FC53EC1A2BFC
:102B0000FDF776FE7FF6DFAC24F000408849894A65
:102B1000002601EB205182422BDA481C4FF4801131
:102B200021FA00F02044844AC0F30A517A44A1F209
:102B3000FF3192ED000B814A8DED080BCA4020EA6F
:102B40000202C0F3130040F48010C1F1140120FA16
:102B500001F60992002CB8BF76429DED080B53ECAC
:102B6000102B9DED0C0B51EC100BFDF73EFCCDE94D
:102B70000C019DED0C0B51EC1A0B53EC102BFDF7D7
:102B800093FB9FED6F0B0890CDE9085153EC102B90
:102B90009DED080B51EC100BFDF72DFC41EC1B0BD0
:102BA0009FED690B53EC102B9DED080B51EC100BB6
:102BB000FDF721FC9DED0C0B41EC1C0B53EC102B95
:102BC0009DED080B51EC100BFDF70FFC53EC1A2B8D
:102BD000FDF70EFC9FED5E1B53EC112BFDF70BFC7C
:102BE00053EC1C2BFDF760FB41EC1A0B51EC1B0B5B
:102BF00053EC1A2BFDF758FBCDE902019DED020BBA
:102C000053EC1B2B51EC100BFDF7EFFB53EC1A2B85
:102C1000FDF7EEFB9DED020B41EC1A0B53EC102B74
:102C200051EC100BFDF7E7FBCDE908014A489DED9B
:102C3000080B0521784400F097F89DED081B51EC36
:102C4000100B53EC112BFDF7D6FB9DED021B53EC43
:102C5000112BFDF7CDFBCDE906019DED020B53ECE9
:102C60001A2B51EC100BFDF7C6FB53EC1A2BFDF79A
:102C70001BFB9FED3B0B41EC1A0B53EC102B9DED16
:102C8000060B51EC100BFDF7B0FB9DED060B41EC74
:102C90001B0B53EC102B9DED020B51EC100BFDF7B1
:102CA000AAFB53EC1B2BFDF718FC53EC1A2BFDF77A
:102CB0009CFB9DED021B53EC112BFDF796FB53EC97
:102CC000192BFDF795FBCDE9020101EB065001152B
:102CD0000029C8BF039015DC9DED020B324651EC74
:102CE000100BFDF75DFDFFF7E3F9042808BF00F0C6
:102CF000FBF832469DED020B51EC100BFDF750FD39
:102D0000CDE902019DED020B51EC180B53EC102B99
:102D1000FDF771FBFFF73ABB000090400000000098
:102D2000FE822B654715973C00CC904000346F3FE6
:102D300001FCFFFF0000E03FA00C0000FFFF0F00C0
:102D400000000000432EE63F396CA80C615C20BEF9
:102D5000EF39FAFE422EE63F700B00000000000043
:102D6000000000000000004070B504462DED028B0D
:102D70004D1E00EBC500B0EE408AF0EE608A90ED8B
:102D8000000B35F0060017D053EC182B51EC100B4C
:102D9000FDF731FB41EC100B6D1E04EBC50090ED0F
:102DA000001B51EC100B53EC112BFDF77DFA41EC9D
:102DB000100B35F00600E7D1022D36D0042D1CD0C3
:102DC000062D1CBFBDEC028B70BD53EC182B51ECD3
:102DD000100BFDF710FB94ED0A1B53EC112BFDF7C4
:102DE00063FA53EC182BFDF706FB94ED081B53EC2C
:102DF000112BFDF759FA41EC100B53EC182B51EC49
:102E0000100BFDF7F8FA94ED061B53EC112BFDF7B0
:102E10004BFA53EC182BFDF7EEFA94ED040B53EC40
:102E2000102BFDF741FA41EC100B53EC182B51EC31
:102E3000100BFDF7E0FA94ED021B53EC112BFDF79C
:102E400033FA53EC182BFDF7D6FA94ED001B53EC34
:102E5000112BFDF729FABDEC028B41EC100B70BD74
:102E60009FED070B10B553EC102B9FED070B51ECAA
:102E7000100BFDF732FB41EC100B10BD0000000001
:102E80000000000000000000000000000000F03F13
:102E900010B553EC112B51EC100BFDF705FA41EC7A
:102EA000100B10BD000000009FED050B10B553EC9A
:102EB000102B51EC100BFDF710FB41EC100B10BD6B
:102EC00000000000000000009FED050B10B553EC62
:102ED000102B51EC100BFDF78EFA41EC100B10BDCE
:102EE00000000000000000709FED050B10B553ECD2
:102EF000102B51EC100BFDF77EFA41EC100B10BDBE
:102F0000000000000000001002E008C8121F08C105
:102F1000002AFAD170477047002001E001C1121F5A
:102F2000002AFBD17047000001490860704700008B
:102F3000280000202DE9F14F82B067488069C11751
:102F40004FF4FA33C41A61F10005A4FB041005FB29
:102F5000040004FB05026048B0F91000C317A1FB90
:102F6000008A02FB00A001FB03095B48B0F90E00D8
:102F7000C117A0FB042301FB043100FB0510400432
:102F800040EAD230510411EB080840EB09095248DD
:102F9000B0F90C0018F1000849EBC009A4FB0410BB
:102FA00005FB040004FB05034B48B0F90A004FEA97
:102FB000E072A1FB00CA03FB00A001FB02014FEA83
:102FC0001C2040EA01604FEA21224349B1F9081070
:102FD0004FEAE17C2346A1FB03BE0CFB04E301FBAB
:102FE00005314FEA013141EA1B514FEA0B33C41856
:102FF00042EB0105221C45F500413748C0880023FB
:10300000A2FB00AC01FB00C002FB03014C10CD177A
:10301000002184EA01006940084301D1BDE8FE8F28
:103020000298C0F58010C7170646F80740EA560018
:10303000F107B1EB080160EB090C40F635400022C6
:10304000A1FB003A0CFB00A001FB02012246CDE9E6
:1030500000312B460098FDF7E4F806460F461E485F
:10306000B0F91600C217710B41EAC74C7B13A0FBE5
:103070000C1A02FB0CA200FB0322700B40EAC740B3
:103080007B13A1FB00CA02FB00A001FB03014FEA76
:103090005C6040EAC1144D160F48B0F91400C11726
:1030A000A0FB062301FB063100FB0711D00C40EA10
:1030B00041384FEAE149311947EB050011EB0801AE
:1030C00040EB0900020642EA11200349B1F912104F
:1030D000090146183046A1E7C400002030B501467A
:1030E000CC100F4D2D88A4EB45040D4DB5F90250C1
:1030F0006C43E2120A4C2488C4EB21146443241369
:10310000074DB5F904506C43A313D418044DAC61BA
:103110002C46A46904EB84048034201230BD0000E6
:10312000C400002070B504460D4600F025F80E4896
:103130000068FFF7D3FF00EE100AB8EE400ADFED9B
:103140000B0A80EE201A85ED001A09480068FFF787
:10315000F1FE00EE100AB8EE400ADFED060A80EE3E
:10316000201A84ED001A70BD240000200000C8421F
:1031700020000020000080430EB501A80623F7229E
:1031800076210090002000F033F99DF80400000340
:103190009DF8051040EA01109DF8061040EA111054
:1031A000074908609DF8070000039DF8081040EAF1
:1031B00001109DF8091040EA1110024908600EBD87
:1031C00020000020240000201CB51C48007808B115
:1031D00001201CBD0020019000240EE001ABD02294
:1031E0007621002000F03FF99DF80400582800D116
:1031F00005E00A2000F086F8641C0A2CEEDB00BF14
:103200009DF80400582816D10D48182388227621ED
:103210000090002000F0ECF87723F42276210020C3
:1032200000F049F91023F5227621002000F043F93F
:1032300001200249087001480078CAE71C000020FC
:10324000C400002010B52DED0E8B82B0694601A898
:10325000FFF768FF9DED000ADFED220A30EE200A3D
:1032600010EE101A0846FDF7A7F941EC1B0B9DED77
:10327000010ADFED1D0A80EE801A11EE104A204689
:10328000FDF79AF941EC1E0B9FED181BB0EE4E0AAC
:10329000F0EE6E0AFEF740FFB0EE40DAF0EE60DAD4
:1032A0009FED140B53EC102B51EC1D0BFDF79DF80B
:1032B00041EC1C0B53EC1B2BFDF79DF841EC1A0B5A
:1032C0009FED0E0B53EC102BFDF707F941EC190B9A
:1032D000FDF785F908EE100AB0EE480A02B0BDEC21
:1032E0000E8B10BD33938843CDEC7D4428610C8751
:1032F0008A5AC83F000000000000F03F0000008034
:10330000BE9F7A3F10B504464FF47A71614388B28C
:1033100000F002F810BD000070B504464FF6FF70D3
:10332000001B401F85B20948FEF73EFB07480068B6
:10333000456203E005480068406A85B24FF6FA70BE
:103340008542F7DB0148FEF744FB70BD8400002096
:1033500082B0CDE9000121F0004001909DED000B0D
:1033600002B051EC100B704738B52048007808B116
:10337000012038BD0020009000240EE06B460A2298
:103380001E21002000F06FF89DF80000482800D1B1
:1033900005E00A20FFF7B6FF641C0A2CEEDB00BF35
:1033A0009DF8000048281DD1782300221E211046D8
:1033B00000F081F80520FFF7A5FF202301221E2140
:1033C000002000F078F80520FFF79CFF0023022280
:1033D0001E21184600F06FF86420FFF793FF0120CC
:1033E0000249087001480078C3E700001900002076
:1033F0002DE9F04180460D4617461C46069EFEF715
:103400008DFC002141EA4501C8B2FEF75FFCFEF7E2
:10341000CFFC20B1FEF7A6FC0120BDE8F0813846C4
:10342000FEF754FCFEF7C4FCFEF778FC012101EB2B
:103430004501C8B2FEF74AFCFEF7BAFC0DE0012CCC
:1034400004D10020FEF7E6FB307003E00120FEF718
:10345000E1FB3070601E84B2761C002CEFD1FEF7C9
:1034600081FC0020D9E72DE9F04107460C461546BE
:103470001E46FEF753FC002141EA4401C8B2FEF7A4
:1034800025FCFEF795FC2846FEF720FCFEF790FC95
:10349000FEF744FC012101EB4401C8B2FEF716FC23
:1034A000FEF786FC0020FEF7B5FB3070FEF75AFCF5
:1034B0000120BDE8F0812DE9F04107460C46154694
:1034C0001E46FEF72BFC002141EA4401C8B2FEF77C
:1034D000FDFBFEF76DFC20B1FEF744FC0120BDE8CA
:1034E000F0812846FEF7F2FBFEF762FC3046FEF75D
:1034F000EDFBFEF75DFC18B1FEF734FC0120EEE7B2
:10350000FEF730FC0020EAE7FDF71EFBFEF704FDA6
:10351000FEF77EFAFEF7F4FAFEF716FB00F00EF85F
:10352000FFF752FEFFF720FF04E0FFF78BFE024893
:1035300080ED000AF9E700000400002008B53548D6
:10354000007808B1012008BD80216B2000F090F8C0
:103550003220FDF7CDF90321682000F089F83220F0
:10356000FDF7C6F980216B2000F082F83220FDF7CC
:10357000BFF90321682000F07BF83220FDF7B8F98D
:10358000002000906A460121752000F045F89DF862
:10359000000068283AD101216B2000F069F80F2063
:1035A000FDF7A6F910216A2000F062F80F20FDF760
:1035B0009FF900216C2000F05BF80F20FDF798F9CF
:1035C0000021192000F054F80F20FDF791F918217F
:1035D0001B2000F04DF80F20FDF78AF910211C2068
:1035E00000F046F80F20FDF783F91021372000F096
:1035F0003FF80F20FDF77CF902211A2000F038F87F
:103600000120FDF775F90120024908700148007892
:1036100099E700001800002037B582B00C46154627
:10362000002204211048FDF777FA9DF8080040F0C9
:1036300080000290FF2001904FF47A73012202A9CA
:103640000A48FDF723FF4FF47A7023462A4601A962
:1036500000900648FDF7EBFF012204210248FDF728
:103660005BFA012005B030BD000802402C000020AC
:1036700013B5002204210F48FDF74EFA0120FDF793
:1036800037F94FF47A73012269460B48FDF7FEFEC5
:103690004FF47A73012201A90748FDF7F7FE0122D2
:1036A00004210448FDF738FA0120FDF721F9012033
:1036B0001CBD0000000802402C00002000B52DEDCC
:1036C000048B83B041EC190BFDF7BCF841EC180BEF
:1036D00018EE100A18EE901A8DED008B002818BF16
:1036E0000120084320F00040C0F17F6000F1E0407D
:1036F000C00F14D019EE101A19EE900A8DED009B30
:10370000002918BF0121084320F00040C0F17F606C
:1037100000F1E040C00F04BF0120FFF705FC51ECB1
:10372000180B03B0BDEC048B00BD000000000000CE
:10373000000001020304060708090000000001025E
:103740000304000000000000000000000000F03F43
:10375000000000000000F83F000000000000000032
:103760000000004003B8E23F00000000000000003D
:1037700006D0CF43EBFD4C3E033333333333E33FCB
:10378000FFAB6FDBB66DDB3F4D268F515555D53FF7
:1037900001411DA96074D13F65DBC9934A86CD3FC5
:1037A000EF4E454A287ECA3F3E5555555555C53FB3
:1037B00093BDBE166CC166BF2CDE25AF6A56113FA5
:1037C000F16BD2C541BDBBBED0A4BE726937663EA7
:1037D0000000000000000000F83700080000002092
:1037E0002C000000082F0008243800082C000020BE
:1037F000B4040000182F00080100000000000000C1
:103800000000000010000000010000000024F4008F
:1038100000000000000000000000000000000000A8
:0438200000000000A4
:040000050800018965
:00000001FF
