:020000040800F2
:10000000380500209D010008551A000885180008D1
:10001000511A0008A9020008FF2000080000000093
:10002000000000000000000000000000D51D0008D6
:10003000AD020008000000005D1A0008D71D00088E
:10004000B7010008B7010008B7010008B7010008B0
:10005000B7010008B7010008B7010008B7010008A0
:10006000B7010008B7010008B7010008B701000890
:10007000B7010008B7010008B7010008B701000880
:10008000B7010008B7010008B7010008B701000870
:10009000B7010008B7010008B7010008B701000860
:1000A000B51E0008B7010008B7010008B701000835
:1000B000B7010008B7010008B7010008B701000840
:1000C000B7010008B7010008B7010008B701000830
:1000D000B7010008B7010008B7010008B701000820
:1000E000B7010008B7010008B7010008B701000810
:1000F000B7010008B7010008B7010008B701000800
:10010000B7010008B7010008B7010008B7010008EF
:10011000B7010008B7010008B7010008B7010008DF
:10012000B7010008B7010008B7010008B7010008CF
:10013000B70100080000000000000000B70100083F
:10014000B7010008B7010008B7010008B7010008AF
:10015000B7010008B7010008B7010008B70100089F
:10016000B7010008B7010008B7010008B70100088F
:10017000B7010008B70100080000000000000000FF
:10018000B7010008B7010008DFF80CD000F07AF8DA
:10019000004800473D2300083805002006488047F6
:1001A00006480047FEE7FEE7FEE7FEE7FEE7FEE75C
:1001B000FEE7FEE7FEE7FEE7991E0008890100085A
:1001C0002DE9F05F0546002092469B46884606468C
:1001D000814640241BE0284641464746224600F01F
:1001E00041F853465A46C01A914110D31146184659
:1001F000224600F028F82D1A67EB01084F462246E8
:100200000120002100F01FF817EB00094E41201ECD
:10021000A4F10104DFDC484631462A464346BDE8E6
:10022000F09FD2B201E000F8012B491EFBD27047CB
:100230000022F6E710B513460A4604461946FFF7B2
:10024000F0FF204610BD202A04DB203A00FA02F11C
:10025000002070479140C2F1200320FA03F31943B4
:1002600090407047202A04DB203A21FA02F0002156
:10027000704721FA02F3D040C2F1200291400843B6
:1002800019467047064C074D06E0E06840F0010350
:1002900094E8070098471034AC42F6D3FFF778FF94
:1002A000042500082425000800BFFEE770477047BA
:1002B00070B5044600F016F906462546681C10B1D4
:1002C00004480078054400BF00F00CF9801BA842E8
:1002D000FAD370BD08000020F8B502460B46002591
:1002E000002400200021DCE0012606FA01F51E684A
:1002F00006EA0504AC4273D15E68012E08D05E6840
:10030000022E05D05E68112E02D05E68122E13D127
:1003100090684F000326BE40B0434F00DE68BE40E9
:1003200030439060506801268E40B0431E79C6F37A
:1003300000168E4030435060D0684F000326BE4008
:10034000B0434F009E68BE403043D0605E68022ECE
:1003500002D05E68122E13D1CF0802F1200656F8A3
:1003600027004E07F70E0F26BE40B0434F07FF0E83
:100370001E69BE403043CF0802F1200646F8270030
:1003800010684F000326BE40B0431E7906F00306F6
:100390004F00BE40304310605E6806F08056B6F1F4
:1003A000805F7DD100BF00260096404E366846F43F
:1003B00080463E4F3E603E46366806F480460096D4
:1003C00000BF00BF3A4E8F0856F827008E07370F40
:1003D0000F26BE40B043374EB24202D1002624E081
:1003E0005EE0354EB24201D101261EE0334EB242EC
:1003F00001D1022619E0324EB24201D1032614E0A7
:10040000304EB24201D104260FE02F4EB24201D14C
:1004100005260AE02D4EB24201D1062605E02C4EFB
:10042000B24201D1072600E008268F073F0FBE40E9
:1004300030431F4E8F0846F82700264E3068A043F1
:100440005E6806F48036B6F5803F00D12043214E29
:100450003060361D3068A0435E6806F40036B6F59D
:10046000003F00D120431B4E361D3060361D3068E2
:10047000A0435E6806F48016B6F5801F00D12043C5
:10048000144E08363060361D3068A0435E6806F4AE
:100490000016B6F5001F00D120430E4E0C3630601A
:1004A000491C1029FFF420AFF8BD00004438024079
:1004B00008380140000002400004024000080240E9
:1004C000000C0240001002400014024000180240DC
:1004D000001C0240003C01400AB1816101E00B04B4
:1004E00083617047014800687047000000000020E9
:1004F00003480068034909780844014908607047C7
:10050000000000200800002010B50D48006840F4ED
:1005100000700B4908600846006840F4806008607D
:100520000846006840F480700860032000F0A2F8DC
:10053000002000F007F800F02BF8002010BD0000AC
:10054000003C024070B504460E4800784FF47A71C2
:10055000B1FBF0F00C490968B1FBF0F5284600F05A
:1005600083FE08B1012070BD102C07D20022214665
:10057000501E00F041F80548046001E00120F2E758
:100580000020F0E7080000200C00002004000020FC
:1005900008B500BF002000900E48006840F480407D
:1005A0000C4908600846006800F48040009000BFD5
:1005B00000BF00BF00200090081F006840F080507E
:1005C000091F08600846006800F08050009000BFD6
:1005D00000BF08BD4438024001460846002809DB38
:1005E00000F01F0301229A4043099B0003F1E0231E
:1005F000C3F8002100BF70472DE9F05F80460D462B
:100600001646002701F07EFD074639462A46334646
:1006100001F00700C0F1070ABAF1040F02D94FF048
:10062000040A01E0C0F1070AD14600F1040ABAF158
:10063000070F02D24FF0000A01E0A0F1030AD446EE
:100640004FF0010A0AFA09FAAAF1010A0AEA020AB3
:100650000AFA0CFA4FF0010B0BFA0CFBABF1010B91
:100660000BEA030B4AEA0B042146404601F052FD17
:10067000BDE8F09F00BF00F00702064B19684FF677
:10068000FF031940044B0B4343EA0221014B19605D
:1006900000BF70470CED00E00000FA057047000055
:1006A00070B504460D460CB9012070BD584800686D
:1006B00000F00F00A84209D255490D7008460068A5
:1006C00000F00F00A84201D00120EEE7207800F0F2
:1006D000020002281DD1207800F00400042805D172
:1006E0004C48006840F4E0504A490860207800F027
:1006F0000800082805D14748006840F46040454993
:1007000008604448006820F0F000A16808434149AF
:100710000860207800F00100A8B36068012807D1C4
:100720003C4808380068C0F34040B8B90120BCE735
:100730006068022802D06068032807D1354808386D
:100740000068C0F3406048B90120AEE7314808387E
:100750000068C0F3400008B90120A6E72D480068F2
:1007600020F00300616808432A490860FFF7BAFED9
:10077000064609E0FFF7B6FE801B41F28831884249
:1007800002D9032091E707E02248006800F00C003E
:100790006168B0EB810FEDD11D48006800F00F00DB
:1007A000A84209D91A490D700846006800F00F00E8
:1007B000A84201D0012078E7207800F00400042846
:1007C00007D11448006820F4E050E168084311495B
:1007D0000860207800F00800082808D10D4800685B
:1007E00020F46040216940EAC1000A49086000F035
:1007F0001FF808490968C1F30311074A515CC84052
:100800000649086006480068FFF79CFE00204CE798
:10081000003C024008380240EC2400080C00002094
:100820000400002001200149C864704700004742CD
:100830002DE9F047002400250026A1462548006840
:1008400000F00C0020B1042805D008283AD105E0BA
:10085000DFF8849039E0DFF8849036E01D48001F0F
:10086000006800F03F041B48001F006800F480008F
:1008700078B11A481749091F0968C1F38811A0FB0C
:1008800001700146224600233846FFF799FC0546D1
:100890000EE011480F49091F0968C1F38811A0FB38
:1008A00001700146224600233846FFF789FC0546C1
:1008B0000848001F0068C0F30140401C4600B5FB1B
:1008C000F6F902E0DFF8109000BF00BF4846BDE82F
:1008D000F0870000083802400024F40000127A007B
:1008E00010B50648006800F08000802805D1FFF7A9
:1008F000D5FE80200149891C087010BD0C380240CB
:10090000F8B504460CB90120F8BD207800F00100CC
:10091000002874D0F948006800F00C0004280DD0BD
:10092000F648006800F00C00082813D1F348001FB7
:10093000006800F48000B0F5800F0BD1EF48083854
:100940000068C0F34040002859D06068002856D1A4
:100950000120D9E700BF6068B0F5803F08D1E748C3
:100960000838006840F48030E449083908601EE027
:100970006068B0F5A02F0DD1E0480838006840F459
:100980008020DE49083908600846006840F480305D
:1009900008600CE0D9480838006820F48030D74956
:1009A000083908600846006820F48020086000BF0D
:1009B000606890B1FFF796FD054606E0FFF792FDEF
:1009C000401B642801D903209EE7CC480838006802
:1009D000C0F340400028F1D011E0FFF783FD054649
:1009E00006E0FFF77FFD401B642801D903208BE759
:1009F000C24808380068C0F340400028F1D1207890
:100A000000F0020002285FD1BC48006800F00C0032
:100A100058B1BA48006800F00C0008281CD1B7484B
:100A2000001F006800F48000B0B9B44808380068BE
:100A3000C0F3400020B1E068012801D0012063E745
:100A4000AE480838006820F0F800216940EAC1008B
:100A5000AA490839086037E0E06800B30120A849D6
:100A60000860FFF73FFD054606E0FFF73BFD401B32
:100A7000022801D9032047E7A04808380068C0F3DE
:100A800040000028F1D09D480838006820F0F800A8
:100A9000216940EAC10099490839086014E0002042
:100AA00097490860FFF71EFD054606E0FFF71AFDAF
:100AB000401B022801D9032026E790480838006827
:100AC000C0F340000028F1D1207800F00800082889
:100AD0002CD16069A8B101208A490860FFF702FDA6
:100AE000054606E0FFF7FEFC401B022801D9032063
:100AF0000AE782486C300068C0F340000028F1D05B
:100B000014E000207F490860FFF7ECFC054606E092
:100B1000FFF7E8FC401B022801D90320F4E67748E0
:100B20006C300068C0F340000028F1D1207800F05C
:100B30000400042870D1002770483830006800F0A5
:100B4000805090B900BF002000906C483830006899
:100B500040F080506949383108600846006800F06C
:100B60008050009000BF00BF01276748006800F474
:100B70008070B0B96448006840F4807062490860D1
:100B8000FFF7B0FC054606E0FFF7ACFC401B02286F
:100B900001D90320B8E65C48006800F480700028A2
:100BA000F2D000BFA068012808D15448683000681E
:100BB00040F001005149683108601DE0A068052837
:100BC0000DD14E486830006840F004004B49683150
:100BD00008600846006840F0010008600CE04748E3
:100BE0006830006820F00100444968310860084618
:100BF000006820F00400086000BFA068A8B1FFF7FB
:100C000071FC054609E0FFF76DFC401B41F288319D
:100C1000884202D9032077E626E038486830006829
:100C2000C0F340000028EED013E0FFF75BFC054660
:100C300008E0FFF757FC401B41F28831884201D998
:100C4000032061E62D4868300068C0F340000028AA
:100C5000EFD1012F07D129483830006820F08050AB
:100C600026493831086000BFA069002845D02348D4
:100C7000006800F00C0008285DD0A069022845D16A
:100C800000201F490866FFF72DFC054606E0FFF728
:100C900029FC401B022801D9032035E617480838F3
:100CA0000068C0F340600028F1D1D4E9070108438F
:100CB000616A40EA81110122A06AC2EB500041EA58
:100CC00000412C20005D41EA00600C49091F0860CA
:100CD00001200B490866FFF705FC054606E0FFF713
:100CE00001FC401B022801D903200DE60348083807
:100CF0000068C0F340600028F1D03FE008380240AF
:100D000000004742800E47420070004000201C490E
:100D10000866FFF7E7FB054606E0FFF7E3FB401B2D
:100D2000022801D90320EFE516480068C0F34060AF
:100D30000028F2D122E0A069012800D1E4E51148A1
:100D4000001D066806F48001E069814214D106F0B6
:100D50003F01206A81420FD147F6C0703040616A7E
:100D6000884209D106F44031A06A814204D106F0DC
:100D70007061E06A814201D00120C5E50020C3E531
:100D8000000047420038024010B504460CB901206B
:100D900010BD606A00B900BF0021A16294F8510043
:100DA00028B9002084F85000204600F033F80220D3
:100DB00084F851002068006820F040002168086035
:100DC000D4E901010843E1680843216908436169E6
:100DD0000843218B01F400710843E1690843216A4B
:100DE0000843A16A0843216808600421A06901EA58
:100DF0001040616A0843216848602068C06920F497
:100E000000602168C86100206065012084F85100FD
:100E10000020BDE710B586B00446142101A8FFF7F5
:100E200007FA1B49206888422FD100BF002000909C
:100E30001848006840F48050164908600846006869
:100E400000F48050009000BF00BF00BF0020009061
:100E500010481438006840F001000E491439086049
:100E60000846006800F00100009000BF00BFE020CD
:100E7000019002200290002003900320049005209E
:100E8000059001A90448FFF727FA06B010BD00003D
:100E90000030014044380240000002402DE9F84F84
:100EA0000446884616461D464FF0000A00BF94F8D7
:100EB0005000012802D10220BDE8F88F012084F8FB
:100EC000500000BFFFF70EFB0746B14694F85100F3
:100ED000012802D04FF0020AA7E0B8F1000F00D0BD
:100EE00016B94FF0010AA0E0032084F85100002059
:100EF0006065C4F83080A686E686A063A087E08798
:100F000060642064A068B0F5004F05D120680068D7
:100F100040F48040216808602068006800F04000CC
:100F2000402805D02068006840F040002168086033
:100F3000E068B0F5006F2FD1606810B1B9F1010F12
:100F400009D1206B00882168C860206B801C206359
:100F5000E08E401EE0861BE02068806800F0020002
:100F600002280AD1206B00882168C860206B801C91
:100F70002063E08E401EE0860AE0FFF7B3FAC01B54
:100F8000A84201D3681C00B915B94FF0030A4CE020
:100F9000E08E0028E0D12EE0606810B1B9F1010FB9
:100FA00009D1206B007821680873206B401C2063F6
:100FB000E08E401EE0861BE02068806800F00200A2
:100FC00002280AD1206B007821680873206B401C2E
:100FD0002063E08E401EE0860AE0FFF783FAC01B24
:100FE000A84201D3681C00B915B94FF0030A1CE0F0
:100FF000E08E0028E0D13A462946204600F060FE07
:1010000008B120206065A06850B900BF00200090A2
:101010002068C068009020688068009000BF00BF12
:10102000606D08B14FF0010A00BF012084F8510043
:1010300000BF002084F8500000BF50463CE72DE977
:10104000FF5F0446884691461D460E9E0120029091
:101050000020019000BF94F85000012803D1022025
:1010600004B0BDE8F09F012084F8500000BFFFF7F6
:1010700039FA074694F851B060680390AA46BBF16C
:10108000010F0BD00398B0F5827F04D1A06810B98E
:10109000BBF1040F02D002200190DBE0B8F1000F99
:1010A00003D0B9F1000F00D015B901200190D1E0B3
:1010B00094F85100042802D0052084F85100002043
:1010C0006065C4F83890E587A587C4F83080E58668
:1010D000A586206460642068006800F04000402815
:1010E00005D02068006840F0400021680860E06892
:1010F000B0F5006F4AD1606810B1BAF1010F09D1A3
:10110000206B00882168C860206B801C2063E08E03
:10111000401EE08633E02068806800F0020002286C
:1011200010D1E08E70B1029801280BD1206B00889D
:101130002168C860206B801C2063E08E401EE08622
:10114000002002902068806800F0010068B1E08F04
:1011500058B12068C068A16B0880A06B801CA06398
:10116000E08F401EE08701200290FFF7BBF9C01B13
:10117000B04204D3701C10B1032001906AE0E08EED
:101180000028C8D1E08F0028C5D14AE0606810B1BE
:10119000BAF1010F09D1206B007821680873206B28
:1011A000401C2063E08E401EE08634E020688068AA
:1011B00000F00200022810D1E08E70B102980128E0
:1011C0000BD1206B007821680873206B401C2063D2
:1011D000E08E401EE086002002902068806800F0CB
:1011E000010068B1E08F58B12068C068A16B087039
:1011F000A06B401CA063E08F401EE087012002909E
:10120000FFF770F9C01BB04201D3701C00B916B9CA
:10121000032001901EE0E08E0028C7D1E08F002857
:10122000C4D13A463146204600F04AFD20B10120A3
:101230000190202060650DE0A06850B900BF00203B
:1012400000902068C068009020688068009000BF0F
:1012500000BF00BF012084F8510000BF002084F8C7
:10126000500000BF0198FBE670B504462546681E95
:10127000B0F1807F01D301200FE0681E4FF0E02124
:1012800048610F214FF0FF3000F044FF00204FF085
:10129000E021886107200861002070BD7047704719
:1012A00030B502460B4600BF92F83C00012801D140
:1012B000022030BD012082F83C0000BF022082F8ED
:1012C0003D00106844681068816824F07004186854
:1012D000044310684460184D1068A8421BD0106881
:1012E000B0F1804F17D0154D1068A84213D0144D9F
:1012F0001068A8420FD0134D1068A8420BD0124DB1
:101300001068A84207D0114D1068A84203D0104DB4
:101310001068A84205D121F0800158680143106887
:101320008160012082F83D0000BF002082F83C006F
:1013300000BF00BFBDE70000000001400004004006
:1013400000080040000C0040000401400040014043
:101350000018004010B504460CB9012010BD94F8E7
:101360003D0028B9002084F83C00204600F00CF82D
:10137000022084F83D00211D206800F0A3FD01201B
:1013800084F83D000020E9E708B50A4A0168914267
:101390000FD100BF002100910749096841F02001E9
:1013A000054A11601146096801F02001009100BF53
:1013B00000BF08BD00140040403802400146022032
:1013C00081F83D000868806800F00702062A05D011
:1013D0000868006840F001000B681860012081F87F
:1013E0003D00002070470146022081F83D0000BF0B
:1013F0000868006A41F21112104050B90868006A8A
:101400009210104028B90868006820F001000A68AE
:10141000106000BF012081F83D00002070470000EF
:1014200010B504460421164800F012FA1549088048
:101430000846008840F60201884205DD0120124975
:1014400008700020114908700F48007890B10D48CD
:1014500000880F490D4A127821F812000B480078D5
:10146000401C0A490870084600780A2802DB002060
:1014700005490870002002490968486210BD000053
:10148000C0000020200000202700002026000020AF
:101490001C0100202DE9F04104460D46164600BF10
:1014A00094F83C00012802D10220BDE8F08101201F
:1014B00084F83C0000BF022084F83D0096B9EB6838
:1014C000D5E90012206800F07BFD2068806920F0DB
:1014D0000C002168886120688069A9680843216838
:1014E00088613DE0042E13D1EB68D5E90012206835
:1014F00000F0AEFD2068806920F4406021688861BA
:1015000020688069A96840EA01202168886127E095
:10151000082E12D1EB68D5E90012206800F0B5FD65
:101520002068C06920F00C002168C8612068C0698B
:10153000A96808432168C86112E0EB68D5E9001288
:10154000206800F0BEFD2068C06920F4406021687A
:10155000C8612068C069A96840EA01202168C861A3
:10156000012084F83D0000BF002084F83C0000BF4B
:1015700000BF9AE710B504460CB9012010BD94F8DD
:101580003D0028B9002084F83C00204600F00CF80B
:10159000022084F83D00211D206800F093FC01200A
:1015A00084F83D000020E9E710B586B00446142118
:1015B00001A8FEF73DFE1E492068884236D100BFD3
:1015C000002000901B48006840F4803019490860F2
:1015D0000846006800F48030009000BF00BF00BFE4
:1015E0000020009013481438006840F001001149B1
:1015F000143908600846006800F00100009000BF40
:1016000000BF082001900220029000200390049067
:101610000320059001A90848FEF75EFE002211464E
:101620001820FEF7E9FF1820FEF7D6FF06B010BD20
:1016300000400140443802400000024070B50446BA
:101640000D4635B1042D0BD0082D10D00C2D1CD11A
:1016500014E02068C06840F002002168C86015E00E
:101660002068C06840F004002168C8600EE020686F
:10167000C06840F008002168C86007E02068C068C2
:1016800040F010002168C86000E000BF00BF0122E8
:101690002946206800F082FC2068806800F0070678
:1016A000062E05D02068006840F00100216808601F
:1016B000002070BD10B5044620680069C0F34000EA
:1016C000D8B12068C068C0F34000B0B16FF002002C
:1016D00021680861012020772068806900F00300FC
:1016E00018B12046FFF79CFE05E0204600F0ADF85B
:1016F000204600F0ABF80020207720680069C0F396
:101700008000D8B12068C068C0F38000B0B16FF02D
:10171000040021680861022020772068806900F4B5
:10172000407018B12046FFF77BFE05E0204600F030
:101730008CF8204600F08AF80020207720680069A5
:10174000C0F3C000D8B12068C068C0F3C000B0B119
:101750006FF0080021680861042020772068C069C4
:1017600000F0030018B12046FFF75AFE05E02046BE
:1017700000F06BF8204600F069F800202077206820
:101780000069C0F30010D8B12068C068C0F3001031
:10179000B0B16FF010002168086108202077206840
:1017A000C06900F4407018B12046FFF739FE05E02B
:1017B000204600F04AF8204600F048F80020207744
:1017C0002068006900F0010058B12068C06800F08E
:1017D000010030B16FF0010021680861204600F07F
:1017E00036F820680069C0F3C01058B12068C0689E
:1017F000C0F3C01030B16FF080002168086120464E
:10180000FFF74CFD20680069C0F3801058B12068D4
:10181000C068C0F3801030B16FF0400021680861EB
:10182000204600F02EF820680069C0F3401058B13F
:101830002068C068C0F3401030B16FF0200021680C
:1018400008612046FFF72BFD10BD704770477047B9
:101850000246002031B1042907D0082908D00C29FC
:101860000CD108E01368586B09E01368986B06E028
:101870001368D86B03E01368186C00E000BF00BF6A
:101880007047704700BFFEE700B587B0142102A87B
:10189000FEF7CEFC00BF002001902F48006840F00A
:1018A00080002D4908600846006800F08000019023
:1018B00000BF00BF00BF002001900846006840F054
:1018C000040008600846006800F00400019000BFB2
:1018D00000BF00BF002001900846006840F00100F2
:1018E00008600846006800F00100019000BF00BFDA
:1018F00000BF002001900846006840F00200086028
:101900000846006800F00200019000BF00BF0122FD
:1019100004211248FEF7E0FD01224FF43071104817
:10192000FEF7DAFD042002900120039004900220CB
:10193000059002A90948FEF7CFFC4FF430700290E1
:1019400001200390002004900220059002A9044881
:10195000FEF7C2FC07B000BD30380240000802406C
:101960000004024010B50F480F4908604FF4827020
:10197000486000210C488160C160022101610121A1
:101980004161490281613021C161002101624162EE
:1019900081620A21C162FFF7F7F908B1FEF787FCFF
:1019A00010BD000000300140280000201CB50020C0
:1019B000009001900D480E490860A7204860002162
:1019C0000B4881600121C16000218161FFF7C2FCE9
:1019D00008B1FEF76CFC00200090019069460448B5
:1019E000FFF75EFC08B1FEF762FC1CBD001400406E
:1019F000800000201FB5002000900190029003900D
:101A0000114812490860A720486000210F488160F2
:101A10004FF6FF71C160002101618161FFF7AAFDEE
:101A200008B1FEF744FC0220009001200190002044
:101A300002900390042269460448FFF72BFD08B189
:101A4000FEF735FC1FBD000000400140C000002033
:101A500000BFFEE710B5FEF743FF10BD7047000062
:101A600010B500200A49086000F07EF800200949FE
:101A7000C1F89C0200F010F801200549086000F050
:101A80000BF800200349C1F8980200F005F810BDDA
:101A9000988240420080404210B5032000F0A6FB2F
:101AA00010BD000010B500200A49086000F05CF885
:101AB00001200949C1F89C02FFF7EEFF012005490A
:101AC0000860FFF7E9FF00200349C1F89802FFF71B
:101AD000E3FF10BD988240420080404270B5054649
:101AE0000024002013490860FFF7D6FF00F026F815
:101AF000002614E000200F490860FFF7CDFF012009
:101B00000D49C1F898026006040E0A487C38006846
:101B100008B1601CC4B2FFF7BFFF701CC6B2082E2C
:101B2000E8DB15B9FFF7BEFF01E0FFF799FF20469C
:101B300070BD0000988240420080404200B585B0F0
:101B400014216846FEF774FB80200090002001906D
:101B500002900220039069460248FEF7BDFB05B0E3
:101B600000BD00000004024000B585B014216846A5
:101B7000FEF75EFB80200090012001900020029083
:101B80000220039069460248FEF7A6FB05B000BD9F
:101B90000004024070B50446FFF7E6FF00200F493D
:101BA0000860FFF779FF002512E0E0090B49091DE5
:101BB00008606006040E01200949C1F89802FFF789
:101BC0006BFF002005490860FFF766FF681CC5B27F
:101BD000082DEADB00200149086070BD9882404270
:101BE0000080404210B5FFF7BFFF00200D4908609C
:101BF0000D49C1F89C02FFF74FFF01200949091D5B
:101C000008600949C1F89802FFF746FF002005491E
:101C1000091D0860FFF740FF00200349C1F8980242
:101C200010BD0000988240420080404210B5002064
:101C30000F490860FFF798FFFFF72EFF00200D49BE
:101C4000C1F89C020A490860FFF726FF01200949F4
:101C5000C1F89802FFF720FF01200549091D08601F
:101C6000FFF71AFF00200349C1F8980210BD0000D9
:101C7000988240420080404210B5002400200E4966
:101C80000860FFF75BFFFFF707FF01200B49C1F872
:101C9000980207E0601CC4B2FA2C03DDFFF7C6FF10
:101CA000012010BD04487C3800680028F2D10249A8
:101CB000086000BFF5E70000988240420080404283
:101CC0007CB504460D461646164800681821B0FB40
:101CD000F1F01549B0FBF1F04FF47A7148430190EF
:101CE0006068B0F5827F0DD12B460022802120460E
:101CF000009600F01BF898B1606D40F02000606520
:101D000003207CBD00BF019800B908E00198401E87
:101D1000019020688068C0F3C0100028F3D100BF94
:101D20000020EEE70C00002040420F002DE9F041BA
:101D300004460E4617461D46DDF818803EE0681C36
:101D4000D8B3FEF7CFFBA0EB0800A84200D2A5BB9A
:101D50002068406820F0E000216848606068B0F5C5
:101D6000827F0DD1A068B0F5004F03D0A068B0F518
:101D7000806F05D12068006820F04000216808606D
:101D8000A06AB0F5005F0DD100BF2068006820F4A4
:101D90000050216808602068006840F40050216805
:101DA000086000BF012084F8510000BF002084F8C3
:101DB000500000BF0320BDE8F081FFE72068806885
:101DC0003040B04201D1012000E00020B842B6D13D
:101DD0000020F0E7704710B5FEF78AFB10BD000049
:101DE00000B593B0302107A8FEF722FA142102A80B
:101DF000FEF71EFA00BF002001902548006840F061
:101E00008050234908600846006800F08050019027
:101E100000BF00BF00BF002001901E48006840F4D2
:101E200080401C4908600846006800F4804001902A
:101E300000BF00BF012007900004089002200D9011
:101E400041050E9104210F91A821109102211191B9
:101E50000321129107A8FEF753FD08B1FEF727FAF8
:101E60000F20029002200390002004904FF4A05015
:101E700005904FF480500690052102A8FEF710FC53
:101E800008B1FEF714FAFEF7CDFC13B000BD000058
:101E900040380240007000400548006840F470007F
:101EA000034908604FF000600149803908607047BD
:101EB00088ED00E010B50248FFF7FCFB10BD000004
:101EC000C000002010B50268294B98420ED0B0F136
:101ED000804F0BD0274B984208D0274B984205D013
:101EE000264B984202D0264B984203D122F0700232
:101EF0004B681A431E4B984220D0B0F1804F1DD042
:101F00001C4B98421AD01C4B984217D01B4B98423E
:101F100014D01B4B984211D01A4B98420ED01A4B3A
:101F200098420BD0194B984208D0194B984205D0D3
:101F3000184B984202D0184B984203D122F44072B9
:101F4000CB681A4322F080034C6943EA0402026022
:101F50008B68C3620B688362054B984202D0084BC2
:101F6000984201D10B6903630123436110BD000056
:101F7000000001400004004000080040000C004048
:101F8000000401400040014000440140004801407D
:101F900000180040001C00400020004030B501F057
:101FA0001F05012404FA05F3046A9C430462046AD1
:101FB00001F01F0502FA05F52C43046230BD000054
:101FC00070B50C461546066A26F001060662816960
:101FD000026A184EB04214D0B0F1804F11D0164EA4
:101FE000B0420ED0154EB0420BD0154EB04208D0C4
:101FF000144EB04205D0144EB04202D0134EB0423F
:1020000001D1012600E000261EB121F00301294381
:1020100001E041F0010121F0F001F02606EA03168B
:10202000314322F00A0204F00A063243816102625F
:1020300070BD0000000001400004004000080040A6
:10204000000C004000040140004001400018004026
:1020500070B50C461546066A26F0100606628169C0
:10206000026A21F4407141EA052121F470414FF4E4
:10207000704606EA0336314322F0A002A02606EAA3
:10208000041632438161026270BD70B50C4615467C
:10209000066A26F480760662C169026A21F00301AD
:1020A000294321F0F001F02606EA0316314322F419
:1020B00020624FF4206606EA04263243C1610262C0
:1020C00070BD70B50C461546066A26F48056066249
:1020D000C169026A21F4407141EA052121F470418D
:1020E0004FF4704606EA0336314322F420424FF49F
:1020F000204606EA04363243C161026270BD00BF69
:10210000FEE7000002480068C0F3022070470000AC
:102110000CED00E010B5002804DB0A07130E054A99
:10212000135406E00A07140E034A00F00F031B1FA6
:10213000D45410BD00E400E018ED00E002E008C84F
:10214000121F08C1002AFAD170477047002001E031
:1021500001C1121F002AFBD1704700001CB51C48AA
:10216000007808B101201CBD0020019000240EE081
:1021700001ABD0227621002000F08FF89DF80400FA
:10218000582800D105E00A2000F026F8641C0A2C2B
:10219000EEDB00BF9DF80400582816D10D48182327
:1021A000882276210090002000F03CF87723F4226A
:1021B0007621002000F099F81023F52276210020E6
:1021C00000F093F801200249087001480078CAE73E
:1021D000140000200001002010B504464FF47A716D
:1021E000614388B200F002F810BD000070B50446EB
:1021F0004FF6FF70001B401F85B20948FFF7DEF85D
:1022000007480068456203E005480068406A85B2F7
:102210004FF6FA708542F7DB0148FFF7E4F870BD2E
:10222000800000202DE9F04180460D4617461C46EF
:10223000069EFFF7D7FC002141EA4501C8B2FFF72F
:10224000A9FCFFF719FD20B1FFF7F0FC0120BDE864
:10225000F0813846FFF79EFCFFF70EFDFFF7C2FC4A
:10226000012101EB4501C8B2FFF794FCFFF704FD23
:102270000DE0012C04D10020FFF730FC307003E0AA
:102280000120FFF72BFC3070601E84B2761C002CFE
:10229000EFD1FFF7CBFC0020D9E72DE9F04107464D
:1022A0000C4615461E46FFF79DFC002141EA4401FD
:1022B000C8B2FFF76FFCFFF7DFFC2846FFF76AFCA8
:1022C000FFF7DAFCFFF78EFC012101EB4401C8B2F5
:1022D000FFF760FCFFF7D0FC0020FFF7FFFB30703A
:1022E000FFF7A4FC0120BDE8F0812DE9F04107468D
:1022F0000C4615461E46FFF775FC002141EA4401D5
:10230000C8B2FFF747FCFFF7B7FC20B1FFF78EFC20
:102310000120BDE8F0812846FFF73CFCFFF7ACFC4C
:102320003046FFF737FCFFF7A7FC18B1FFF77EFC3C
:102330000120EEE7FFF77AFC0020EAE7FEF7E4F879
:10234000FFF74EFDFFF7A0FAFFF70CFBFFF72EFBA0
:10235000FFF750FB00F00AF8FFF700FF04210248E6
:10236000FFF76CF900BFFEE7C000002008B5354854
:10237000007808B1012008BD80216B2000F090F8A2
:102380003220FDF795FF0321682000F089F8322004
:10239000FDF78EFF80216B2000F082F83220FDF7E0
:1023A00087FF0321682000F07BF83220FDF780FFD3
:1023B000002000906A460121752000F045F89DF844
:1023C000000068283AD101216B2000F069F80F2045
:1023D000FDF76EFF10216A2000F062F80F20FDF774
:1023E00067FF00216C2000F05BF80F20FDF760FF15
:1023F0000021192000F054F80F20FDF759FF182193
:102400001B2000F04DF80F20FDF752FF10211C207B
:1024100000F046F80F20FDF74BFF1021372000F0A9
:102420003FF80F20FDF744FF02211A2000F038F892
:102430000120FDF73DFF01200249087001480078A6
:1024400099E700001000002037B582B00C46154611
:10245000002204211048FEF73FF89DF8080040F0E4
:1024600080000290FF2001904FF47A73012202A9AC
:102470000A48FEF713FD4FF47A7023462A4601A955
:1024800000900648FEF7DBFD012204210248FEF71A
:1024900023F8012005B030BD0008024028000020CC
:1024A00013B5002204210F48FEF716F80120FDF7AE
:1024B000FFFE4FF47A73012269460B48FEF7EEFCEB
:1024C0004FF47A73012201A90748FEF7E7FC0122C5
:1024D00004210448FEF700F80120FDF7E9FE012081
:1024E0001CBD000000080240280000200000000081
:1024F00000000000010203040607080900000000B4
:102500000102030424250008000000202800000028
:102510003C2100084C250008280000201005000080
:102520004C21000800000000100000000100000025
:102530000024F40000000000000000000000000083
:0C2540000000000000000000000001008E
:040000050800018965
:00000001FF
